:020000040800F2
:100000006007002089010008071200081B10000883
:100010000512000891020008AB140008000000005F
:100020000000000000000000000000000B120008AB
:100030009302000800000000091200080D120008D9
:10004000A3010008A3010008A3010008A301000800
:10005000A3010008A3010008A3010008A3010008F0
:10006000A3010008A3010008A3010008A3010008E0
:10007000A3010008A3010008A3010008A3010008D0
:10008000A3010008A3010008A3010008A3010008C0
:10009000A3010008A3010008A3010008A3010008B0
:1000A000A301000879120008A3010008A3010008B9
:1000B000A3010008A301000885120008A30100089D
:1000C000A3010008A3010008A3010008A301000880
:1000D000A3010008A3010008A3010008A301000870
:1000E000A3010008A3010008A301000800F002F822
:1000F00000F03AF80AA090E8000C82448344AAF188
:100100000107DA4501D100F02FF8AFF2090EBAE885
:100110000F0013F0010F18BFFB1A43F0010318473B
:10012000C8290000E8290000103A24BF78C878C127
:10013000FAD8520724BF30C830C144BF04680C60ED
:10014000704700000023002400250026103A28BF35
:1001500078C1FBD8520728BF30C148BF0B60704739
:100160001FB51FBD10B510BD00F05FF81146FFF7B9
:10017000F7FF01F033FB00F07DF803B4FFF7F2FF67
:1001800003BC00F04BF800000948804709480047CD
:10019000FEE7FEE7FEE7FEE7FEE7FEE7FEE7FEE737
:1001A000FEE7FEE704480549054A064B7047000094
:1001B00077120008ED0000086001002060070020B1
:1001C00060030020600300204FF0000200B51346DA
:1001D00094469646203922BFA0E80C50A0E80C5067
:1001E000B1F12001BFF4F7AF090728BFA0E80C5018
:1001F00048BF0CC05DF804EB890028BF40F8042B11
:1002000008BF704748BF20F8022B11F0804F18BF7D
:1002100000F8012B7047704770477047014918205C
:10022000ABBEFEE7260002007047754600F02CF8D2
:10023000AE4605006946534620F00700854618B0D3
:1002400020B5FFF7AFFFBDE820404FF000064FF0AC
:1002500000074FF000084FF0000BAC46ACE8C009B7
:10026000ACE8C009ACE8C009ACE8C00921F007015E
:100270008D46704710B50446AFF300802046BDE8B8
:100280001040FFF77ABF00000048704728000020A8
:10029000FEE77047EFF3108072B6FEE72DE9FE4FE0
:1002A000614A04234FF0000B4FF0010C4FF00F0E8A
:1002B0004FF0000A4FF00008904200F1140208BF0E
:1002C0000323019200930A6832FA08F308BFBDE8DD
:1002D000FE8F0CFA08F73A4200F0A1804A68032A20
:1002E00016D9112A26D0122A28D0504B9A4213D060
:1002F0004F4B9A421CBF4F4B9A420DD04E4B9A42E5
:100300001CBF4E4B9A4207D04D4B9A4204D022E07C
:10031000DFE802F002181B1F8A6842B1012A019A25
:100320004FF0080A08BF00F11002176013E04FF009
:10033000040A10E0CA6802F1040A0CE0CA6802F17B
:100340000C0A08E0D1F80CA005E0CA6802F1080A1E
:1003500001E04FF0000AB8F1080F0246454628BFF9
:1003600004321368374C28BF2544AE000EFA06F558
:100370000AFA06F6AB4333431360CA79D2064ED568
:10038000644A4FEA98060BF00C090EFA09F5136857
:1003900043F001031360126802F001020292029B13
:1003A000294CA4F57E7353F8262022EA050C274A2F
:1003B00090420AD0264A90420AD0264ADDF800E050
:1003C000904208BF4FF0020E04E04FF0000E01E033
:1003D0004FF0010E0EFA09F24FF00F0E42EA0C0236
:1003E0004FF0010C43F826204A681B4BA66812F414
:1003F000801F0CBFBE433E43A66096021E6854BFDA
:10040000BE433E431E609303636854BFBB433B43FC
:10041000D2036360226854BFBA433A4322600BF1AF
:10042000040B08F101084EE7001401400000111010
:1004300000001210000021100000221000003110F6
:1004400000003210F8FFFF3F0004014000080140A7
:10045000000C0140001001400C040140002A08BFBC
:1004600009040161704700001B488068704700BFA5
:1004700019480178826811448160704780B5074847
:10048000016841F010010160032000F081F80F20A5
:1004900000F006F800F022F8002080BD00200240A5
:1004A00070B50D4E04464FF47A713078B1FBF0F020
:1004B0008B490968B1FBF0F000F008FB01250F2C17
:1004C00008D838B94FF0FF3021460022002500F04F
:1004D00033F87460284670BD0000002082B00D48DB
:1004E0000222016841F001010160016801F001018F
:1004F00001910199416841F080514160406800F0EC
:100500008050009000980448016862F31A6101600D
:1005100002B070471810024004000140002808DBB8
:1005200000F01F010122400902FA01F1014A42F8DC
:100530002010704700E100E0B0B5144C1A4D00F0F7
:100540000F03B0F1FF3FA3F104032B4403F10C03AD
:10055000C8BF03192868C0F30220051DC41E80F01F
:100560000700072D4FF0010538BF0024042828BFDD
:10057000042005FA00F00138084005FA04F10F31B3
:10058000A0401140084300011870B0BD00E400E035
:1005900005494FF6FF030A681A4060F30A22034830
:1005A00010430860704700BF0CED00E00000FA0542
:1005B0002DE9F04104468846002C00F08880464F23
:1005C0004FF48050395801F0070141450AD239589B
:1005D00021F0070141EA08013950385800F00700BE
:1005E000404574D1206810F0020F11D0410742BF7E
:1005F000796841F4E0617960010742BF796841F4AC
:10060000605179607968A26821F0F0011143796046
:10061000C00727D06068012804D1396811F4003F71
:1006200008D154E03968022802D1890102D44EE091
:1006300089074CD5796821F0030108437860FFF7FA
:1006400013FF064641F288357868616800F00C00B7
:10065000B0EB810F06D0FFF707FF801BA842F3D94C
:10066000032035E04FF48050395801F0070141452F
:100670000AD9395821F0070141EA080139503858A0
:1006800000F00700404522D1206810F0040F05D08B
:100690007968E26821F4E06111437960000706D5CA
:1006A0007868216920F4605040EAC100786000F069
:1006B0001BF87968094AC1F30311515CC840084925
:1006C000086008480068FFF7EBFE002000E001200A
:1006D000C0B2BDE8F08100BF00100240A41A0008BB
:1006E00024000020040000200F490A680F4802F08F
:1006F0000C03042B08BF7047082B13D1C2F3834CA3
:100700000BA312F4803F13F80C3002BF0D4858437E
:10071000704709680AA25843C1F34041515CB0FBDD
:10072000F1F070470848704704100240001BB70002
:1007300002030405060708090A0B0C0D0E0F101022
:100740000102000000093D0000127A002DE9FE4F71
:100750008246BAF1000F00F065819AF80000D64E8B
:10076000D64FC00750D0386800F00C00042819D0CC
:10077000386800F00C00082803D1386810F4803F76
:1007800010D1DAF80400A8B1B0F5803F06D0316886
:10079000B0F5A02F24D141F480203060306840F4BF
:1007A000803023E0306810F4003F2DD0DAF80400E8
:1007B00050BB37E1306820F480303060306820F47E
:1007C00080203060FFF750FE0546306810F4003F8F
:1007D0001AD0FFF749FE411B03206429F5D922E115
:1007E00021F480303060306820F480203060FFF7E2
:1007F0003BFE0546306810F4003F05D1FFF734FE9C
:10080000401B6428F6D9EBE09AF800008007AC485A
:10081000834632D5386810F00C0F1DD0386800F0D0
:100820000C00082804BF386810F4803F14D0DAF8B0
:100830001000002800F09580012059460860FFF75D
:1008400013FE0546306810F0020F0ED1FFF70CFEC4
:10085000401B0228F6D9C3E0306810F0020F1CBF1D
:10086000DAF81000012840F0DD803068DAF8141062
:1008700020F0F80040EAC10030609AF8000000075C
:1008800031D5DAF8180080B101205946C1F880044A
:10089000FFF7EAFD0546386A10F0020F16D1FFF7A0
:1008A000E3FD401B0228F6D99AE000205946C1F822
:1008B0008004FFF7D9FD0546386A10F0020F12D008
:1008C000FFF7D2FD401B0228F6D989E07D484FF49E
:1008D000FA510068B0FBF1F0029000BF0298411E8F
:1008E00000280291F9D19AF80000400740F1818078
:1008F000B86910F0805F0BD1B8694FF0010840F083
:100900008050B861B86900F080500190019801E012
:100910004FF000086C48305810F4807F12D16A48BC
:10092000315841F480713150FFF79EFD054666480D
:10093000305810F4807F05D1FFF796FD401B6428E6
:10094000F5D94DE0DAF80C00E8B1012805D0F969D5
:10095000052830D141F00400F861F86940F0010049
:100960002FE0002059460860FFF77EFD05463068FD
:1009700010F0020F3FF481AFFFF776FD411B03201B
:100980000229F4D94FE0F86920F00100F861F86914
:1009900020F00400F861FFF767FD054641F2883951
:1009A000F86910F0020F1DD0FFF75EFD411B032018
:1009B0004945F5D937E021F00100F861F86920F0E8
:1009C0000400F861FFF750FD054641F28834F869EC
:1009D00010F0020F06D1FFF747FD401BA042F6D9E9
:1009E000032020E0B8F1010F02BFB86920F0805069
:1009F000B861DAF81C405946002C5AD0386800F02B
:100A00000C00082813D1012C0CD03868DAF820101B
:100A100000F480328A4205D1DAF8241000F4701014
:100A2000884246D00120C0B203B0BDE8F08F00205C
:100A30000866FFF719FD0546022C0AD1306810F050
:100A4000007F11D0FFF710FD411B03200229F5D9CB
:100A5000E9E7306810F0007F2BD0FFF705FD411B60
:100A600003200229F5D9DEE7DAF82000B0F5803F4F
:100A700006D13968DAF8082021F4003111433960D1
:100A8000396821F474110843DAF8241008433860F7
:100A90000120CBF86000FFF7E7FC0446306810F057
:100AA000007F06D1FFF7E0FC011B03200229F5D9E6
:100AB000B9E70020B7E700BF001002400410024071
:100AC00000004242240000200060FEFF411E002082
:100AD000B0EB116F1CBF01207047044AF023516036
:100AE00003490B70072190601160704710E000E02F
:100AF00023ED00E07047704790F83C300222012B54
:100B000028D080B5012380F83C3080F83D20026871
:100B10005368D2F808C0B2F1804F23F0700E0B6812
:100B200043EA0E035360BDE8804008D00A4B9A4266
:100B30001CBF394B9A4202D0364B9A4204D14968C5
:100B40002CF08003194391600121002280F83D10B0
:100B500080F83C20D0B270470004004010B5044635
:100B600034B394F83D0028B9002084F83C002046B6
:100B700000F020F80220211D84F83D00206800F0DC
:100B800087FB012084F8460084F83E0084F83F008B
:100B900084F8400084F8410084F8420084F843005F
:100BA00084F8440084F8450084F83D00002010BD1E
:100BB000012010BDE0B50168C748164A914216D021
:100BC000154A914218BF8CBD0168002241F40061B2
:100BD00001600021006800F4006001900198192074
:100BE000FFF7AAFC1920BDE88C40FFF797BC4168CD
:100BF000002241F0040141600021406800F004003F
:100C0000009000981E20FFF797FC1E20BDE88C4046
:100C1000FFF784BC00080040002C014010B50446DA
:100C2000022094F83C20012A70D001224FF67773FD
:100C300084F83C2084F83D00206882689A438260F2
:100C40000A6812B3102A20D0202A18BF302A1CD0DC
:100C5000402A21D0502A2BD0602A35D0B2F5005F2F
:100C60003ED0B2F5805F4AD0702A51D1D1E901233C
:100C7000C9681A4342EA0121826822F47F42114383
:100C80008160816841F0770138E0816821F0770167
:100C9000114341F0070131E04B68CA68194600F082
:100CA000E1FB2068816821F0770141F0470125E0F0
:100CB0004B68CA68194600F0D5FB2068816821F0AE
:100CC000770141F0570119E04B68CA68194600F0F6
:100CD000DAFB2068816821F0770141F067010DE0BF
:100CE000D1E90123C9681A4342EA0121826822F44A
:100CF0007F4211438160816841F48041816000201E
:100D0000012184F83D10002184F83C10C0B210BDD0
:100D10000120F5E7704710B504462068016911F01D
:100D2000020F1CBFC16811F0020F15D06FF0020155
:100D3000016101212177806910F0030F03D0204663
:100D4000FFF7E8FF05E0204600F0CEF8204600F06F
:100D50005BF9002020772068016911F0040F1CBFA7
:100D6000C16811F0040F15D06FF004010161022178
:100D70002177806910F4407F03D02046FFF7CAFF37
:100D800005E0204600F0B0F8204600F03DF90020D4
:100D900020772068016911F0080F1CBFC16811F0AD
:100DA000080F15D06FF00801016104212177C06997
:100DB00010F0030F03D02046FFF7ACFF05E02046FC
:100DC00000F092F8204600F01FF9002020772068FC
:100DD000016911F0100F1CBFC16811F0100F15D080
:100DE0006FF01001016108212177C06910F4407F84
:100DF00003D02046FFF78EFF05E0204600F074F890
:100E0000204600F001F9002020772068016911F0E8
:100E1000010F1CBFC16811F0010F06D06FF0010176
:100E20000161204600F0F2F82068016911F0800F9E
:100E30001CBFC16811F0800F06D06FF08001016106
:100E40002046FFF757FE2068016911F0400F1CBFD4
:100E5000C16811F0400F06D06FF0400101612046DB
:100E600000F0DAF82068016911F0200F1CBFC1689A
:100E700011F0200F00D110BD6FF02001016120465C
:100E8000BDE81040FFF737BEFEB50021CDE90411E3
:100E9000CDE902110068B0F1804F1AD1874801688E
:100EA00041F00801016002A9006800F0080001900B
:100EB00001984FF440600290022003900590804812
:100EC000FFF7ECF905480168054A1140054A11434E
:100ED000016006B080BD00BF181002400400014050
:100EE000FFFCFFF80002000770470000B0B50446A1
:100EF0000D4694F83C00012801D1022041E04FEA60
:100F0000B2010120032984F83C0037D8DFE801F062
:100F1000020A12222068294600F0F2F9206850F8EF
:100F2000181F0EE02068294600F016FA206850F8D5
:100F3000181F16E02068294600F03EFA206850F895
:100F40001C1F41F008010160016821F004010160EB
:100F500029690FE02068294600F05EFA206850F801
:100F60001C1F41F400610160016821F4806101608F
:100F7000296909020268114301600020002184F8F8
:100F80003C10C0B2B0BD10B5044634B394F83D0077
:100F900028B9002084F83C00204600F021F8022007
:100FA000211D84F83D00206800F072F9012084F8CA
:100FB000460084F83E0084F83F0084F8400084F83E
:100FC000410084F8420084F8430084F8440084F827
:100FD000450084F83D00002010BD012010BD000038
:100FE0000068B0F1804F18BF704781B005480168B4
:100FF00041F001010160006800F0010000900098DC
:1010000001B070471C100240704700009C498842A4
:1010100008BF00F04BBA70477047FEE72DE9FF4765
:10102000264800223C264FF00009016841F02001CB
:101030000160016801F0200100910099016841F010
:1010400004010160016801F0040100910099016848
:1010500041F0080101603C21006800F008000090A8
:101060000098174CA4F580652846FFF7F7F920464D
:10107000042100224FF00408FFF7F0F9114F009609
:101080004FF0010A6E460320CDE901A903902846DE
:101090003146B8470220CDE9008ACDF808903146A4
:1010A00003902046B8474FF480503146CDE90009FF
:1010B0002046CDF80890B847BDE8FF8718100240D9
:1010C000000C01409D020008FEB500216C4847233A
:1010D00042F20F7CCDE90411CDE90211CDE90011F6
:1010E000DF4AC0E90023C0E9021CC0E904118161A4
:1010F000FFF734FD08B1FFF7CDF84FF4805002A997
:1011000002905F48FFF78AFD08B1FFF7C3F800209F
:101110006946CDE900005A48FFF7EEFC08B1FFF739
:10112000B9F806B080BD00BF10B58AB0002401A890
:101130001C21CDE90844FFF747F81A484FF08041D9
:1011400040F2FF32C0E90014C0E902420461846148
:10115000FFF719FF08B1FFF79DF8124808A9CDE97C
:101160000844FFF7C9FC08B1FFF794F8602001A913
:10117000082201900020CDE9020005900948FFF700
:10118000B5FE08B1FFF786F8064801A90C22FFF763
:10119000ADFE08B1FFF77EF80248FFF775FE0AB012
:1011A00010BD00BFD0000020FEB500213748472306
:1011B0004FF0310CCDE90411CDE90211CDE9001158
:1011C0004E4AC0E90023C0E9021C01618161FFF7BA
:1011D000C5FC08B1FFF75EF84FF4805002A90290F9
:1011E0002A48FFF71BFD08B1FFF754F800206946B5
:1011F000CDE900002548FFF77FFC08B1FFF74AF86A
:1012000006B080BDFEE7FEE770477047FFF730B9D4
:10121000B0B590B0002401A81421CDE90B44CDE96C
:101220000944FEF7D1FF01204FF4803102250690DA
:10123000CDE907140A904FF48010CDE90D510F90BD
:1012400006A8FFF783FA18B1EFF3108072B6FEE735
:101250000F200221CDE901054FF480600394CDE910
:10126000040401A8FFF7A4F918B1EFF3108072B6D7
:10127000FEE710B0B0BD70470148FFF74CBD00BF9E
:10128000880000200148FFF746BD00BF180100207C
:1012900010B50368724AB0F1804F08D0164CA042D6
:1012A0001CBF6F4CA04202D0144CA04203D14C682A
:1012B00023F070032343B0F1804F08D00E4CA042BE
:1012C0001CBF674CA04202D00C4CA04203D1CC689A
:1012D00023F4407323434C6923F08003904243EA94
:1012E000040303608B68C3620B68836204BF0969EF
:1012F00011630121416110BD00040040000800405D
:1013000070B5026A036A23F0010322F0020203624D
:10131000D0F804E0D0F818C08C680B6822432CF099
:10132000730444EA030C4E4B98420CD1CE68D1E9C9
:1013300005452EF4407322F00C02234343EA050EC8
:1013400026F004031A43C0F804E0C0F818C0496846
:101350004163026270BD00BF70B5026A036A23F088
:10136000100322F020020362D0F804E0D0F818C085
:101370008C680B6842EA04122CF4E64444EA032C1D
:10138000374B98420FD1CE68D1E905452EF4406322
:1013900022F0C00243EA840343EA850E6FF04F0354
:1013A00003EA06131A43C0F804E0C0F818C04968FD
:1013B0008163026270BD00BF70B5026A036A23F4E4
:1013C000807322F400720362D0F804E0D0F81CC0ED
:1013D0008C680B6842EA04222CF0730444EA030C84
:1013E0001F4B98420FD1CE68D1E905452EF44053EA
:1013F00022F4406243EA041340F2FF4443EA051E2C
:101400003302A3431A43C0F804E0C0F81CC0496883
:10141000C163026270BD00BFB0B5026A036A23F403
:10142000805322F400520362D0F804E0C5698B684F
:101430000C6842EA033C0A4B25F4E64242EA0422E5
:10144000984202BF4B692EF4804545EA831EC0F8DE
:1014500004E0C26149680164C0F820C0B0BD00BFAB
:10146000002C0140D0F820C0036A23F0010303627E
:10147000836923F0F00343EA021282612CF00A022E
:10148000114301627047D0F820C0036A23F01003B3
:101490000362836923F4704343EA023282612CF0D1
:1014A000A00242EA011101627047FEE710B5074C45
:1014B0002168B1F5484F88BF10BD201D4FF4FA6276
:1014C00000F0BCF820680230206010BD1000002041
:1014D0000368DB69184700002DE9F041374B0446EB
:1014E00001F580706FF39F216FF39F20A1806081D1
:1014F00033F9105033F911801046A581A4F8068005
:1015000000F0A7F921F0004100F076F941F2DB315B
:101510004843C0F30B3000F0B3F9064628460F46A7
:1015200000F097F921F0004132463B4600F0BCF94B
:1015300000F062F90546280BE081404600F089F989
:1015400021F0004132463B4600F0AEF900F054F97C
:10155000010B2181C5F30F31C0F30F3220680369FD
:1015600020469847B4F90C00012805DB20680121CA
:101570000022036A204609E02168B0F1FF3F2046BF
:101580004FF001020B6ACCBF01210021984721686E
:10159000B4F906004B6A012805DB20460121002230
:1015A000BDE8F0411847B0F1FF3F20464FF001027F
:1015B000D4BF00210121BDE8F0411847B41A00084A
:1015C000704710B50446002000210022E0812081F0
:1015D0002068036920469847206801210122036A98
:1015E00020469847206801210122436A2046BDE831
:1015F0001040184710B50446002000210022E08169
:101600002081206803692046984720680021002235
:10161000036A20469847206800210022436A20463A
:10162000BDE81040184700000348890800680164BD
:101630009108C163704700BFD00000202DE9F04140
:10164000374B044601F580706FF39F216FF39F20A5
:10165000A180608133F9105033F911801046A581C3
:10166000A4F8068000F0F5F821F0004100F0C4F87D
:1016700041F2DB314843C0F30B3000F001F906467C
:1016800028460F4600F0E5F821F0004132463B467F
:1016900000F00AF900F0B0F80546280BE08140465A
:1016A00000F0D7F821F0004132463B4600F0FCF84C
:1016B00000F0A2F8010B2181C5F30F31C0F30F3206
:1016C0002068C36920469847B4F90C00012805DB5F
:1016D000206801210022036A204609E02168B0F158
:1016E000FF3F20464FF001020B6ACCBF01210021D1
:1016F00098472168B4F906004B6A012805DB2046AB
:1017000001210022BDE8F0411847B0F1FF3F20461B
:101710004FF00102D4BF00210121BDE8F04118477C
:10172000B6220008FFF700BD7FB5134800223C2514
:101730000026016841F004010160016801F0040124
:1017400000910099016841F0080101603C210068A6
:1017500000F0080000900098084C2046FEF77EFE3E
:10176000012000956946CDE901060320039020463B
:10177000FEF794FD7FBD00BF181002400008014035
:10178000154800294FF0200300F1040001461CBF5A
:1017900040F61001C4F20101002A0B601CBF40F6A4
:1017A0001000C4F201001021016070470A480029AE
:1017B0004FF0080300F1040001461CBF40F6100181
:1017C000C4F20101002A0B601CBF40F61000C4F2F5
:1017D00001000421016070471008014080B5FEF748
:1017E0004DFEFFF715FDFFF719FCFFF76DFCFFF746
:1017F0009BFCFFF7D9FCFEE74FEA1153A3F580638A
:10180000D3F11E03A8BFD3F1200C08DB4FF0004238
:1018100042EAC12252EA505232FA03F070470942BA
:101820000BD4102BC4BF0020704703F5787CBCF1AB
:10183000FF3F05D04FF0FF3070474FF0000070477A
:1018400070B500F0DBF800BF49922480002070479B
:10185000F0E710F0004248BF4042B0FA80F310FABF
:1018600003F10AD0C3F11D0303F5806302EB0352B9
:101870004FEA415002EBD12170474FF00000704712
:10188000B0FA80F310FA03F10AD0C3F11D0303F597
:1018900080634FEA03524FEA415002EBD121704777
:1018A0004FF000007047000070B5DFF848C11CEA37
:1018B000111E1EBF1CEA13159EEA0C0F95EA0C0FB1
:1018C00000F06F8081EA03044EEAD47EAE4421EA40
:1018D0004C1123EA4C1341F4801143F48013AEF110
:1018E0007F7EA1FB024CA0FB0365361955EB0C056E
:1018F000A1FB034C4CF10003A0FB021C16EB0C06F1
:10190000654153F10003094218BF46F0010613F484
:10191000007F0BD14FEA03314FEA053041EA155100
:1019200040EA165034036FF003020AE04FEAC32185
:101930004FEAC52041EA555140EA5650F4026FF093
:10194000020202EB2E4201EB025585EACE710AD06B
:101950005FEA440C18BF24F0004450F1000041F14C
:10196000000120EAD47040F2FE7C624500D270BDD6
:10197000A84214BF4FF080444FF04044002E08BFEF
:101980000024BEF1806FA8BFA1F1C041BDE8704046
:1019900080F2828001F1C04101F000414FF000006F
:1019A00070470CEA13159EEA0C0F18BF95EA0C0F4E
:1019B00006D081EA030E4FF000000EF0004170BD2A
:1019C00000F01CF88900013E00F007B800F009B8EB
:1019D0004FEA430C5FEA5C5C08D081EA030100F047
:1019E0005BB84FEA410C5FEA5C5CF6D102494FF00C
:1019F000000070470000FF070000F87F0EF1020EA4
:101A00002EF0030E5EF8046B364205D4012A43EB38
:101A1000030515F5001F12D8012841EB010C1CF538
:101A2000001F0CD80ED14FEAD17C0CEB4C0C0CF102
:101A3000020C15F5001F08BF4CEBD37C04E04FF0FF
:101A4000080C01E04FEAD37C0CEB4C0526FA05F6B6
:101A500006F00706B6F1040C06D20EEB860CBDE8C4
:101A600070404CF0010C6047DFE80CF0090B0202FB
:101A70004FF00041A1F500214FF0000070BD194664
:101A80001046012851EB010418BFD4F5001484BF9F
:101A9000002001F0004170BD0808A0F500114FEAD8
:101AA0003101704700000000000000000102030443
:101AB000060708090000190032004B0065007E008F
:101AC0009700B000C900E200FB0014012D0146019F
:101AD0005F0178019101AA01C301DC01F5010E0249
:101AE00027024002590272028B02A302BC02D502F5
:101AF000EE0206031F0338035003690381039A03B0
:101B0000B203CB03E303FC0314042C0444045D047C
:101B100075048D04A504BD04D504ED0405051D055B
:101B200034054C0564057C059305AB05C205DA0553
:101B3000F10508061F0637064E0665067C06930665
:101B4000AA06C106D706EE0605071B073207480797
:101B50005E0775078B07A107B707CD07E307F907EE
:101B60000E0824083A084F0865087A088F08A50867
:101B7000BA08CF08E408F8080D09220937094B090B
:101B80005F09740988099C09B009C409D809EC09DE
:101B9000FF09130A260A3A0A4D0A600A730A860ADE
:101BA000990AAC0ABF0AD10AE40AF60A080B1B0B11
:101BB0002D0B3E0B500B620B740B850B970BA80B78
:101BC000B90BCA0BDB0BEC0BFC0B0D0C1E0C2E0C1B
:101BD0003E0C4E0C5E0C6E0C7E0C8E0C9D0CAC0CF8
:101BE000BC0CCB0CDA0CE90CF80C060D150D230D12
:101BF000320D400D4E0D5C0D690D770D850D920D6A
:101C00009F0DAC0DB90DC60DD30DDF0DEC0DF80D0C
:101C1000040E100E1C0E280E340E3F0E4B0E560EE8
:101C2000610E6C0E770E810E8C0E960EA10EAB0E11
:101C3000B50EBF0EC80ED20EDB0EE40EEE0EF70E82
:101C4000FF0E080F110F190F210F290F310F390F38
:101C5000410F480F500F570F5E0F650F6C0F720F3B
:101C6000790F7F0F850F8B0F910F970F9C0FA20F8E
:101C7000A70FAC0FB10FB60FBB0FBF0FC40FC80F2C
:101C8000CC0FD00FD40FD70FDB0FDE0FE10FE40F17
:101C9000E70FEA0FEC0FEF0FF10FF30FF50FF70F50
:101CA000F80FFA0FFB0FFC0FFD0FFE0FFF0FFF0FDA
:101CB00000100010001000100010FF0FFF0FFE0FAB
:101CC000FD0FFC0FFB0FFA0FF80FF70FF50FF30FD7
:101CD000F10FEF0FEC0FEA0FE70FE40FE10FDE0F4C
:101CE000DB0FD70FD40FD00FCC0FC80FC40FBF0F0F
:101CF000BB0FB60FB10FAC0FA70FA20F9C0F970F22
:101D0000910F8B0F850F7F0F790F720F6C0F650F7F
:101D10005E0F570F500F480F410F390F310F290F2A
:101D2000210F190F110F080FFF0EF70EEE0EE40E24
:101D3000DB0ED20EC80EBF0EB50EAB0EA10E960E68
:101D40008C0E810E770E6C0E610E560E4B0E3F0EF2
:101D5000340E280E1C0E100E040EF80DEC0DDF0DC7
:101D6000D30DC60DB90DAC0D9F0D920D850D770DE0
:101D7000690D5C0D4E0D400D320D230D150D060D38
:101D8000F80CE90CDA0CCB0CBC0CAC0C9D0C8E0CDA
:101D90007E0C6E0C5E0C4E0C3E0C2E0C1E0C0D0CB4
:101DA000FC0BEC0BDB0BCA0BB90BA80B970B850BD1
:101DB000740B620B500B3E0B2D0B1B0B080BF60A22
:101DC000E40AD10ABF0AAC0A990A860A730A600AB1
:101DD0004D0A3A0A260A130AFF09EC09D809C40970
:101DE000B0099C09880974095F094B093709220960
:101DF0000D09F808E408CF08BA08A5088F087A0882
:101E000065084F083A0824080E08F907E307CD07CC
:101E1000B707A1078B0775075E07480732071B073F
:101E20000507EE06D706C106AA0693067C066506D8
:101E30004E0637061F060806F105DA05C205AB0592
:101E400093057C0564054C0534051D050505ED0469
:101E5000D504BD04A5048D0475045D0444042C045C
:101E60001404FC03E303CB03B2039A038103690365
:101E7000500338031F030603EE02D502BC02A3027F
:101E80008B0272025902400227020E02F501DC01A8
:101E9000C301AA01910178015F0146012D011401DE
:101EA000FB00E200C900B00097007E0065004B0017
:101EB000320019000000E7FFCEFFB5FF9BFF82FF55
:101EC00069FF50FF37FF1EFF05FFECFED3FEBAFE91
:101ED000A1FE88FE6FFE56FE3DFE24FE0BFEF2FDC7
:101EE000D9FDC0FDA7FD8EFD75FD5DFD44FD2BFDFB
:101EF00012FDFAFCE1FCC8FCB0FC97FC7FFC66FC20
:101F00004EFC35FC1DFC04FCECFBD4FBBCFBA3FB32
:101F10008BFB73FB5BFB43FB2BFB13FBFBFAE3FA33
:101F2000CCFAB4FA9CFA84FA6DFA55FA3EFA26FA1B
:101F30000FFAF8F9E1F9C9F9B2F99BF984F96DF9E9
:101F400056F93FF929F912F9FBF8E5F8CEF8B8F897
:101F5000A2F88BF875F85FF849F833F81DF807F820
:101F6000F2F7DCF7C6F7B1F79BF786F771F75BF787
:101F700046F731F71CF708F7F3F6DEF6C9F6B5F6C3
:101F8000A1F68CF678F664F650F63CF628F614F6D0
:101F900001F6EDF5DAF5C6F5B3F5A0F58DF57AF5B0
:101FA00067F554F541F52FF51CF50AF5F8F4E5F45D
:101FB000D3F4C2F4B0F49EF48CF47BF469F458F4D6
:101FC00047F436F425F414F404F4F3F3E2F3D2F313
:101FD000C2F3B2F3A2F392F382F372F363F354F316
:101FE00044F335F326F317F308F3FAF2EBF2DDF2DC
:101FF000CEF2C0F2B2F2A4F297F289F27BF26EF264
:1020000061F254F247F23AF22DF221F214F208F2A0
:10201000FCF1F0F1E4F1D8F1CCF1C1F1B5F1AAF1A4
:102020009FF194F189F17FF174F16AF15FF155F15B
:102030004BF141F138F12EF125F11CF112F109F1CA
:1020400001F1F8F0EFF0E7F0DFF0D7F0CFF0C7F0F4
:10205000BFF0B8F0B0F0A9F0A2F09BF094F08EF0D1
:1020600087F081F07BF075F06FF069F064F05EF05E
:1020700059F054F04FF04AF045F041F03CF038F0A0
:1020800034F030F02CF029F025F022F01FF01CF095
:1020900019F016F014F011F00FF00DF00BF009F03C
:1020A00008F006F005F004F003F002F001F001F092
:1020B00000F000F000F000F000F001F001F002F09C
:1020C00003F004F005F006F008F009F00BF00DF055
:1020D0000FF011F014F016F019F01CF01FF022F0C0
:1020E00025F029F02CF030F034F038F03CF041F0DD
:1020F00045F04AF04FF054F059F05EF064F069F0AA
:102100006FF075F07BF081F087F08EF094F09BF02B
:10211000A2F0A9F0B0F0B8F0BFF0C7F0CFF0D7F060
:10212000DFF0E7F0EFF0F8F001F109F112F11CF146
:1021300025F12EF138F141F14BF155F15FF16AF1E2
:1021400074F17FF189F194F19FF1AAF1B5F1C1F138
:10215000CCF1D8F1E4F1F0F1FCF108F214F221F243
:102160002DF23AF247F254F261F26EF27BF289F20A
:1021700097F2A4F2B2F2C0F2CEF2DDF2EBF2FAF292
:1021800008F317F326F335F344F354F363F372F3D0
:1021900082F392F3A2F3B2F3C2F3D2F3E2F3F3F3D6
:1021A00004F414F425F436F447F458F469F47BF499
:1021B0008CF49EF4B0F4C2F4D3F4E5F4F8F40AF528
:1021C0001CF52FF541F554F567F57AF58DF5A0F579
:1021D000B3F5C6F5DAF5EDF501F614F628F63CF69A
:1021E00050F664F678F68CF6A1F6B5F6C9F6DEF68A
:1021F000F3F608F71CF731F746F75BF771F786F748
:102200009BF7B1F7C6F7DCF7F2F707F81DF833F8DC
:1022100049F85FF875F88BF8A2F8B8F8CEF8E5F849
:10222000FBF812F929F93FF956F96DF984F99BF990
:10223000B2F9C9F9E1F9F8F90FFA26FA3EFA55FAB6
:102240006DFA84FA9CFAB4FACCFAE3FAFBFA13FBBF
:102250002BFB43FB5BFB73FB8BFBA3FBBCFBD4FBAC
:10226000ECFB04FC1DFC35FC4EFC66FC7FFC97FC83
:10227000B0FCC8FCE1FCFAFC12FD2BFD44FD5DFD49
:1022800075FD8EFDA7FDC0FDD9FDF2FD0BFE24FE00
:102290003DFE56FE6FFE88FEA1FEBAFED3FEECFEAA
:1022A00005FF1EFF37FF50FF69FF82FF9BFFB5FF51
:1022B000CEFFE7FF00000000190032004B00650070
:1022C0007E009700B000C900E200FB0014012D0160
:1022D00046015F0178019101AA01C301DC01F5010A
:1022E0000E0227024002590272028B02A302BC02B4
:1022F000D502EE0206031F0338035003690381036E
:102300009A03B203CB03E303FC0314042C04440438
:102310005D0475048D04A504BD04D504ED04050514
:102320001D0534054C0564057C059305AB05C20508
:10233000DA05F10508061F0637064E0665067C0617
:102340009306AA06C106D706EE0605071B07320745
:1023500048075E0775078B07A107B707CD07E30797
:10236000F9070E0824083A084F0865087A088F080C
:10237000A508BA08CF08E408F8080D0922093709AA
:102380004B095F09740988099C09B009C409D80977
:10239000EC09FF09130A260A3A0A4D0A600A730A71
:1023A000860A990AAC0ABF0AD10AE40AF60A080B9F
:1023B0001B0B2D0B3E0B500B620B740B850B970BFD
:1023C000A80BB90BCA0BDB0BEC0BFC0B0D0C1E0C9A
:1023D0002E0C3E0C4E0C5E0C6E0C7E0C8E0C9D0C6E
:1023E000AC0CBC0CCB0CDA0CE90CF80C060D150D82
:1023F000230D320D400D4E0D5C0D690D770D850DD1
:10240000920D9F0DAC0DB90DC60DD30DDF0DEC0D6A
:10241000F80D040E100E1C0E280E340E3F0E4B0E3F
:10242000560E610E6C0E770E810E8C0E960EA10E5E
:10243000AB0EB50EBF0EC80ED20EDB0EE40EEE0EC6
:10244000F70EFF0E080F110F190F210F290F310F73
:10245000390F410F480F500F570F5E0F650F6C0F6C
:10246000720F790F7F0F850F8B0F910F970F9C0FB6
:10247000A20FA70FAC0FB10FB60FBB0FBF0FC40F4A
:10248000C80FCC0FD00FD40FD70FDB0FDE0FE10F2B
:10249000E40FE70FEA0FEC0FEF0FF10FF30FF50F5B
:1024A000F70FF80FFA0FFB0FFC0FFD0FFE0FFF0FDA
:1024B000FF0F00100010001000100010FF0FFF0FA2
:1024C000FE0FFD0FFC0FFB0FFA0FF80FF70FF50FC4
:1024D000F30FF10FEF0FEC0FEA0FE70FE40FE10F2F
:1024E000DE0FDB0FD70FD40FD00FCC0FC80FC40FE8
:1024F000BF0FBB0FB60FB10FAC0FA70FA20F9C0FF2
:10250000970F910F8B0F850F7F0F790F720F6C0F45
:10251000650F5E0F570F500F480F410F390F310FE6
:10252000290F210F190F110F080FFF0EF70EEE0ED6
:10253000E40EDB0ED20EC80EBF0EB50EAB0EA10E12
:10254000960E8C0E810E770E6C0E610E560E4B0E93
:102550003F0E340E280E1C0E100E040EF80DEC0D5E
:10256000DF0DD30DC60DB90DAC0D9F0D920D850D70
:10257000770D690D5C0D4E0D400D320D230D150DBF
:10258000060DF80CE90CDA0CCB0CBC0CAC0C9D0C59
:102590008E0C7E0C6E0C5E0C4E0C3E0C2E0C1E0C2B
:1025A0000D0CFC0BEC0BDB0BCA0BB90BA80B970B40
:1025B000850B740B620B500B3E0B2D0B1B0B080B8A
:1025C000F60AE40AD10ABF0AAC0A990A860A730A13
:1025D000600A4D0A3A0A260A130AFF09EC09D809CB
:1025E000C409B0099C09880974095F094B093709B6
:1025F00022090D09F808E408CF08BA08A5088F08D1
:102600007A0865084F083A0824080E08F907E30716
:10261000CD07B707A1078B0775075E074807320785
:102620001B070507EE06D706C106AA0693067C0619
:1026300065064E0637061F060806F105DA05C205CF
:10264000AB0593057C0564054C0534051D050505A2
:10265000ED04D504BD04A5048D0475045D04440493
:102660002C041404FC03E303CB03B2039A03810399
:102670006903500338031F030603EE02D502BC02B0
:10268000A3028B0272025902400227020E02F501D8
:10269000DC01C301AA01910178015F0146012D010E
:1026A0001401FB00E200C900B00097007E00650045
:1026B0004B00320019000000E7FFCEFFB5FF9BFF83
:1026C00082FF69FF50FF37FF1EFF05FFECFED3FEC0
:1026D000BAFEA1FE88FE6FFE56FE3DFE24FE0BFEF6
:1026E000F2FDD9FDC0FDA7FD8EFD75FD5DFD44FD2C
:1026F0002BFD12FDFAFCE1FCC8FCB0FC97FC7FFC52
:1027000066FC4EFC35FC1DFC04FCECFBD4FBBCFB66
:10271000A3FB8BFB73FB5BFB43FB2BFB13FBFBFA6A
:10272000E3FACCFAB4FA9CFA84FA6DFA55FA3EFA56
:1027300026FA0FFAF8F9E1F9C9F9B2F99BF984F927
:102740006DF956F93FF929F912F9FBF8E5F8CEF8D9
:10275000B8F8A2F88BF875F85FF849F833F81DF867
:1027600007F8F2F7DCF7C6F7B1F79BF786F771F7D2
:102770005BF746F731F71CF708F7F3F6DEF6C9F614
:10278000B5F6A1F68CF678F664F650F63CF628F627
:1027900014F601F6EDF5DAF5C6F5B3F5A0F58DF50D
:1027A0007AF567F554F541F52FF51CF50AF5F8F4BF
:1027B000E5F4D3F4C2F4B0F49EF48CF47BF469F441
:1027C00058F447F436F425F414F404F4F3F3E2F384
:1027D000D2F3C2F3B2F3A2F392F382F372F363F390
:1027E00054F344F335F326F317F308F3FAF2EBF25C
:1027F000DDF2CEF2C0F2B2F2A4F297F289F27BF2ED
:102800006EF261F254F247F23AF22DF221F214F232
:1028100008F2FCF1F0F1E4F1D8F1CCF1C1F1B5F13D
:10282000AAF19FF194F189F17FF174F16AF15FF1FE
:1028300055F14BF141F138F12EF125F11CF112F176
:1028400009F101F1F8F0EFF0E7F0DFF0D7F0CFF0A9
:10285000C7F0BFF0B8F0B0F0A9F0A2F09BF094F090
:102860008EF087F081F07BF075F06FF069F064F026
:102870005EF059F054F04FF04AF045F041F03CF072
:1028800038F034F030F02CF029F025F022F01FF071
:102890001CF019F016F014F011F00FF00DF00BF021
:1028A00009F008F006F005F004F003F002F001F082
:1028B00001F000F000F000F000F000F001F001F095
:1028C00002F003F004F005F006F008F009F00BF058
:1028D0000DF00FF011F014F016F019F01CF01FF0CD
:1028E00022F025F029F02CF030F034F038F03CF0F4
:1028F00041F045F04AF04FF054F059F05EF064F0CA
:1029000069F06FF075F07BF081F087F08EF094F055
:102910009BF0A2F0A9F0B0F0B8F0BFF0C7F0CFF094
:10292000D7F0DFF0E7F0EFF0F8F001F109F112F184
:102930001CF125F12EF138F141F14BF155F15FF128
:102940006AF174F17FF189F194F19FF1AAF1B5F187
:10295000C1F1CCF1D8F1E4F1F0F1FCF108F214F29C
:1029600021F22DF23AF247F254F261F26EF27BF26A
:1029700089F297F2A4F2B2F2C0F2CEF2DDF2EBF2FB
:10298000FAF208F317F326F335F344F354F363F341
:1029900072F382F392F3A2F3B2F3C2F3D2F3E2F34F
:1029A000F3F304F414F425F436F447F458F469F41A
:1029B0007BF48CF49EF4B0F4C2F4D3F4E5F4F8F4B0
:1029C0000AF51CF52FF541F554F567F57AF58DF507
:1029D000A0F5B3F5C6F5DAF5EDF501F614F628F62F
:1029E0003CF650F664F678F68CF6A1F6B5F6C9F624
:1029F000DEF6F3F608F71CF731F746F75BF771F7E9
:102A000086F79BF7B1F7C6F7DCF7F2F707F81DF882
:102A100033F849F85FF875F88BF8A2F8B8F8CEF8F3
:102A2000E5F8FBF812F929F93FF956F96DF984F93F
:102A30009BF9B2F9C9F9E1F9F8F90FFA26FA3EFA69
:102A400055FA6DFA84FA9CFAB4FACCFAE3FAFBFA76
:102A500013FB2BFB43FB5BFB73FB8BFBA3FBBCFB65
:102A6000D4FBECFB04FC1DFC35FC4EFC66FC7FFC3F
:102A700097FCB0FCC8FCE1FCFAFC12FD2BFD44FD08
:102A80005DFD75FD8EFDA7FDC0FDD9FDF2FD0BFEC0
:102A900024FE3DFE56FE6FFE88FEA1FEBAFED3FE6A
:102AA000ECFE05FF1EFF37FF50FF69FF82FF9BFF13
:102AB000B5FFCEFFE7FF00000000000000000000AF
:102AC000C1150008D9140008F5150008C315000841
:102AD000D114000829170008251700082916000836
:102AE00081170008AD170008102B00080000002017
:102AF0002800000028010008382B000828000020CA
:102B00003807000044010008000000000000000039
:102B100001000000100000000000000000000000A4
:102B200000000000C02A00080000000000000000B3
:082B3000000000000024F40085
:04000005080000ED02
:00000001FF
