:020000040800F2
:10000000700B00208D0100085F1900081F17000801
:100010005D190008FD0200088F1D000800000000A7
:100020000000000000000000000000003D1A000871
:10003000FF0200080000000061190008EF1A000824
:10004000A7010008A7010008A7010008A7010008F0
:10005000A7010008A7010008A7010008A7010008E0
:10006000A7010008A7010008A7010008A7010008D0
:10007000A7010008A7010008A7010008A7010008C0
:10008000A7010008A7010008A7010008A7010008B0
:10009000A7010008A7010008A7010008A7010008A0
:1000A000A70100085D1B0008A7010008A7010008C0
:1000B000A7010008A7010008691B0008A7010008A4
:1000C000A7010008A7010008A7010008A701000870
:1000D000A7010008A7010008A7010008A701000860
:1000E000A7010008A7010008A701000800F002F816
:1000F00000F03CF80AA090E8000C82448344AAF186
:100100000107DA4501D100F031F8AFF2090EBAE883
:100110000F0013F0010F18BFFB1A43F0010318473B
:1001200094310000B4310000103A24BF78C878C17F
:10013000FAD8520724BF30C830C144BF04680C60ED
:10014000704700000023002400250026103A28BF35
:1001500078C1FBD8520728BF30C148BF0B60704739
:100160001FB500F07FF81FBD10B510BD00F093F86B
:100170001146FFF7F5FF02F041FA00F0B1F803B4C1
:10018000FFF7F2FF03BC00F07FF80000094880474A
:1001900009480047FEE7FEE7FEE7FEE7FEE7FEE769
:1001A000FEE7FEE7FEE7FEE704480549054A064B81
:1001B00070470000591B0008ED0000087005002082
:1001C000700B002070070020700700204FF0000225
:1001D0000429C0F0128010F0030C00F01B80CCF159
:1001E000040CBCF1020F18BF00F8012BA8BF20F8C7
:1001F000022BA1EB0C0100F00DB85FEAC17C24BF1B
:1002000000F8012B00F8012B48BF00F8012B7047C4
:100210004FF0000200B5134694469646203922BF9F
:10022000A0E80C50A0E80C50B1F12001BFF4F7AFEA
:10023000090728BFA0E80C5048BF0CC05DF804EBCC
:10024000890028BF40F8042B08BF704748BF20F83A
:10025000022B11F0804F18BF00F8012B7047704738
:100260007047704770B5064C7C44064D7D4403E0F2
:10027000206820448047241DAC42F9D170BD0000A5
:10028000683000006830000001491820ABBEFEE76E
:10029000260002007047754600F02CF8AE460500B7
:1002A0006946534620F00700854618B020B5FFF791
:1002B0007BFFBDE820404FF000064FF000074FF0F5
:1002C00000084FF0000BAC46ACE8C009ACE8C00930
:1002D000ACE8C009ACE8C00921F007018D467047C1
:1002E00010B50446AFF300802046BDE81040FFF78C
:1002F00046BF00000048704720000020FEE770471E
:10030000EFF3108072B6FEE72A48016811F0100F73
:1003100001D1002105E08449CA6942F00202CA61A4
:100320001021026812F0040F06D07F4A41F0040148
:10033000D36943F00103D361026912F0010F08D0C1
:10034000794AD36943F00403D361026922F00102C0
:1003500002610160704700BF70B5044600F0E4F927
:100360000546661C1348016811F0010F09D0002EE4
:10037000F8D024B100F0D8F9401BA042F2D90320F4
:1003800014E0016811F0200F1CBF202101600168FA
:1003900011F0100F07D1016911F0010F04BF0068BF
:1003A00010F0040F04D0FFF7AFFF0120C0B270BD02
:1003B0000020FBE70C2002402DE9F8435A4E054689
:1003C0008946307E012801D1022021E001203076CB
:1003D0004CF250302C68FFF7BFFF544F022C13D162
:1003E00098B90020F061386840F00400386038683F
:1003F00040F0400038604CF25030FFF7ADFF3968F4
:1004000021F00401396001E030B101200021317692
:10041000C0B201B0BDE8F0834FF0FF304FF00008EC
:10042000C9F800000120A9680C4618E0C6F81C8035
:10043000386840F0020038607C60386840F0400066
:1004400038604CF25030FFF787FF3968002821F000
:100450000201396009D1A96804F580640020EA68C6
:1004600001EB82218C42E1D3D0E7C9F80040CDE70F
:100470002E48016841F0800101600020704700BFF4
:100480002DE9F84FDFF8A08081461C4692460E46C3
:1004900098F81800012801D1022042E0012088F8D4
:1004A00018004CF25030FFF757FFB8BBB9F1020FFC
:1004B0004F466FF01F0B18BF0427B9F1010F08BF9B
:1004C0004F464FF000095FFA89F0874225D9002195
:1004D0000201C8F81C102AFA02F2144D296841F0F2
:1004E000010129602021A1EB001104FA01F111435F
:1004F0000BEB0012002AA8BF24FA02F126F8101014
:100500004CF25030FFF728FF296809F10109002853
:1005100021F001012960D6D000E00020002188F8F8
:10052000181001B0BDE8F08F4005002010200240F7
:100530000748C16811F0800F04BF002070470549CB
:10054000016005490160C068C0F3C010704700BF7A
:100550000420024023016745AB89EFCD2DE9FE4F12
:10056000614A04234FF0000B4FF0010C4FF00F0EC7
:100570004FF0000A4FF00008904200F1140208BF4B
:100580000323019200930A6832FA08F308BFBDE81A
:10059000FE8F0CFA08F73A4200F0A1804A68032A5D
:1005A00016D9112A26D0122A28D0504B9A4213D09D
:1005B0004F4B9A421CBF4F4B9A420DD04E4B9A4222
:1005C0001CBF4E4B9A4207D04D4B9A4204D022E0BA
:1005D000DFE802F002181B1F8A6842B1012A019A63
:1005E0004FF0080A08BF00F11002176013E04FF047
:1005F000040A10E0CA6802F1040A0CE0CA6802F1B9
:100600000C0A08E0D1F80CA005E0CA6802F1080A5B
:1006100001E04FF0000AB8F1080F0246454628BF36
:1006200004321368374C28BF2544AE000EFA06F595
:100630000AFA06F6AB4333431360CA79D2064ED5A5
:10064000644A4FEA98060BF00C090EFA09F5136894
:1006500043F001031360126802F001020292029B50
:10066000294CA4F57E7353F8262022EA050C274A6C
:1006700090420AD0264A90420AD0264ADDF800E08D
:10068000904208BF4FF0020E04E04FF0000E01E070
:100690004FF0010E0EFA09F24FF00F0E42EA0C0273
:1006A0004FF0010C43F826204A681B4BA66812F451
:1006B000801F0CBFBE433E43A66096021E6854BF17
:1006C000BE433E431E609303636854BFBB433B433A
:1006D000D2036360226854BFBA433A4322600BF1ED
:1006E000040B08F101084EE700140140000011104E
:1006F0000000121000002110000022100000311034
:1007000000003210F8FFFF3F0004014000080140E4
:10071000000C0140001001400C040140002A08BFF9
:1007200009040161704700001B488068704700BFE2
:1007300019480178826811448160704780B5074884
:10074000016841F010010160032000F081F80F20E2
:1007500000F006F800F022F8002080BD00200240E2
:1007600070B50D4E04464FF47A713078B1FBF0F05D
:100770008B490968B1FBF0F000F0ACFC01250F2CAF
:1007800008D838B94FF0FF3021460022002500F08C
:1007900033F87460284670BD0000002082B00D4818
:1007A0000222016841F001010160016801F00101CC
:1007B00001910199416841F080514160406800F029
:1007C0008050009000980448016862F31A6101604B
:1007D00002B070471810024004000140002808DBF6
:1007E00000F01F010122400902FA01F1014A42F81A
:1007F0002010704700E100E0B0B5144C1A4D00F035
:100800000F03B0F1FF3FA3F104032B4403F10C03EA
:10081000C8BF03192868C0F30220051DC41E80F05C
:100820000700072D4FF0010538BF0024042828BF1A
:10083000042005FA00F00138084005FA04F10F31F0
:10084000A0401140084300011870B0BD00E400E072
:1008500005494FF6FF030A681A4060F30A2203486D
:1008600010430860704700BF0CED00E00000FA057F
:100870002DE9F04104468846002C00F08880464F60
:100880004FF48050395801F0070141450AD23958D8
:1008900021F0070141EA08013950385800F00700FB
:1008A000404574D1206810F0020F11D0410742BFBB
:1008B000796841F4E0617960010742BF796841F4E9
:1008C000605179607968A26821F0F0011143796084
:1008D000C00727D06068012804D1396811F4003FAF
:1008E00008D154E03968022802D1890102D44EE0CF
:1008F00089074CD5796821F0030108437860FFF738
:1009000013FF064641F288357868616800F00C00F4
:10091000B0EB810F06D0FFF707FF801BA842F3D989
:10092000032035E04FF48050395801F0070141456C
:100930000AD9395821F0070141EA080139503858DD
:1009400000F00700404522D1206810F0040F05D0C8
:100950007968E26821F4E06111437960000706D507
:100960007868216920F4605040EAC100786000F0A6
:100970001BF87968094AC1F30311515CC840084962
:10098000086008480068FFF7EBFE002000E0012047
:10099000C0B2BDE8F08100BF00100240A02A0008EC
:1009A0000C000020040000200F490A680F4802F0E4
:1009B0000C03042B08BF7047082B13D1C2F3834CE0
:1009C0000BA312F4803F13F80C3002BF0D485843BC
:1009D000704709680AA25843C1F34041515CB0FB1B
:1009E000F1F070470848704704100240001BB70040
:1009F00002030405060708090A0B0C0D0E0F101060
:100A00000102000000093D0000127A002DE9FE4FAE
:100A10008246BAF1000F00F065819AF80000D64EC8
:100A2000D64FC00750D0386800F00C00042819D009
:100A3000386800F00C00082803D1386810F4803FB3
:100A400010D1DAF80400A8B1B0F5803F06D03168C3
:100A5000B0F5A02F24D141F480203060306840F4FC
:100A6000803023E0306810F4003F2DD0DAF8040025
:100A700050BB37E1306820F480303060306820F4BB
:100A800080203060FFF750FE0546306810F4003FCC
:100A90001AD0FFF749FE411B03206429F5D922E152
:100AA00021F480303060306820F480203060FFF71F
:100AB0003BFE0546306810F4003F05D1FFF734FED9
:100AC000401B6428F6D9EBE09AF800008007AC4898
:100AD000834632D5386810F00C0F1DD0386800F00E
:100AE0000C00082804BF386810F4803F14D0DAF8EE
:100AF0001000002800F09580012059460860FFF79B
:100B000013FE0546306810F0020F0ED1FFF70CFE01
:100B1000401B0228F6D9C3E0306810F0020F1CBF5A
:100B2000DAF81000012840F0DD803068DAF814109F
:100B300020F0F80040EAC10030609AF80000000799
:100B400031D5DAF8180080B101205946C1F8800487
:100B5000FFF7EAFD0546386A10F0020F16D1FFF7DD
:100B6000E3FD401B0228F6D99AE000205946C1F85F
:100B70008004FFF7D9FD0546386A10F0020F12D045
:100B8000FFF7D2FD401B0228F6D989E07D484FF4DB
:100B9000FA510068B0FBF1F0029000BF0298411ECC
:100BA00000280291F9D19AF80000400740F18180B5
:100BB000B86910F0805F0BD1B8694FF0010840F0C0
:100BC0008050B861B86900F080500190019801E050
:100BD0004FF000086C48305810F4807F12D16A48FA
:100BE000315841F480713150FFF79EFD054666484B
:100BF000305810F4807F05D1FFF796FD401B642824
:100C0000F5D94DE0DAF80C00E8B1012805D0F96912
:100C1000052830D141F00400F861F86940F0010086
:100C20002FE0002059460860FFF77EFD054630683A
:100C300010F0020F3FF481AFFFF776FD411B032058
:100C40000229F4D94FE0F86920F00100F861F86951
:100C500020F00400F861FFF767FD054641F288398E
:100C6000F86910F0020F1DD0FFF75EFD411B032055
:100C70004945F5D937E021F00100F861F86920F025
:100C80000400F861FFF750FD054641F28834F86929
:100C900010F0020F06D1FFF747FD401BA042F6D926
:100CA000032020E0B8F1010F02BFB86920F08050A6
:100CB000B861DAF81C405946002C5AD0386800F068
:100CC0000C00082813D1012C0CD03868DAF8201059
:100CD00000F480328A4205D1DAF8241000F4701052
:100CE000884246D00120C0B203B0BDE8F08F00209A
:100CF0000866FFF719FD0546022C0AD1306810F08E
:100D0000007F11D0FFF710FD411B03200229F5D908
:100D1000E9E7306810F0007F2BD0FFF705FD411B9D
:100D200003200229F5D9DEE7DAF82000B0F5803F8C
:100D300006D13968DAF8082021F40031114339600E
:100D4000396821F474110843DAF824100843386034
:100D50000120CBF86000FFF7E7FC0446306810F094
:100D6000007F06D1FFF7E0FC011B03200229F5D923
:100D7000B9E70020B7E700BF0010024004100240AE
:100D8000000042420C0000200060FEFF70B50446E7
:100D900034B1606A30B10020206104F1140007E032
:100DA00001264CE06068B0F5827F03D004F11C009E
:100DB0000021016000264FF0000CA66294F851005B
:100DC00038B9204684F8506000F03CF8A06A00F47E
:100DD000005C022184F8511021680A6822F0400268
:100DE0000A60D4E90123D4E9030502F4827203F412
:100DF000044300F400601A43104305F0020210435C
:100E0000626902F001021043A26902F40073184300
:100E1000E36903F038031843236A03F0800318439F
:100E200040EA0C000860042000EA12404860C869EB
:100E300020F40060C8610120666584F851003046E6
:100E400070BD000070B586B00026CDE90466CDE91E
:100E50000266194C006804F5105188422AD1EE4808
:100E600002AD016841F480510160016801F48051D4
:100E700001910199016841F008010160294600686B
:100E800000F00800019001982820029002200390B1
:100E9000032005902046FFF761FB10202946CDE98D
:100EA000020620460496FFF759FB04480168044AED
:100EB0001143016006B070BD000C01400400014008
:100EC000010000072DE9F84304461E4615460F466B
:100ED00094F85000012801D10220DAE0012084F8C2
:100EE0005000FFF721FC94F85110814601290BD0E6
:100EF0006068B0F5827F79D104294FF0020004BF09
:100F0000A168002940F0C2800120002F00F0BE80BF
:100F1000002D00F0BB80002E00F0B88094F8510046
:100F2000731EDDF82080B3FA83F35B0904281CBF2D
:100F3000052084F8510000206065A563E687A68738
:100F40002763E686A686C4E910002068016811F0D0
:100F5000400F02BF016841F0400101606168E26832
:100F6000B1FA81F1B2F5006F4FEA511141EA030184
:100F70003ED1012906D137F8021BC1602763E08EFC
:100F80000138E086012608F10105E08E18B9E08FEE
:100F9000002800F082802068816811F0020F0CD0D8
:100FA000E18E012E09D141B1216B002631F8022BCF
:100FB000C2602163E18E0139E186816811F0010F81
:100FC0001CBFE18F002908D0C068A16B012621F861
:100FD000020BA163E08F0138E087FFF7A5FB002D2E
:100FE000D3D0A0EB09004045CFD34BE002204DE029
:100FF000012907D139780173206B01302063E08E1D
:101000000138E086012608F10105E08E10B9E08F75
:10101000002842D02068816811F0020F0ED0E18EC6
:10102000012E0BD151B1216B002609780173206B81
:1010300001302063E08E0138E0862068816811F07D
:10104000010F1CBFE18F002909D0C068A16B0126E8
:101050000870A06B0130A063E08F0138E087FFF7D4
:1010600063FBA0EB0900294640454FF0000028BF74
:101070000120002D18BF0121B8F1000F02D0084057
:101080000128C2D1012084F851000320002184F8F6
:101090005010C0B201B0BDE8F083204641464A4638
:1010A00000F05FFC18B1202060650120EEE7A06829
:1010B00038B9002000902068C168009180680090D5
:1010C0000098616D01200029E0D184F851000020D2
:1010D000DCE70000411E0020B0EB116F1CBF0120B7
:1010E0007047044AF023516003490B700721906058
:1010F0001160704710E000E023ED00E0704770479A
:1011000090F83C300222012B28D080B5012380F8D2
:101110003C3080F83D2002685368D2F808C0B2F134
:10112000804F23F0700E0B6843EA0E035360BDE856
:10113000804008D04C4B9A421CBF4C4B9A4202D084
:101140004B4B9A4204D149682CF0800319439160BB
:101150000121002280F83D1080F83C20D0B2704779
:1011600010B5044634B394F83D0028B9002084F843
:101170003C00204600F020F80220211D84F83D00AC
:10118000206800F0F7FC012084F8460084F83E0057
:1011900084F83F0084F8400084F8410084F842005D
:1011A00084F8430084F8440084F8450084F83D0046
:1011B000002010BD012010BDE0B50168DC482C4ABC
:1011C000914216D0294A914218BF8CBD0168002275
:1011D00041F4006101600021006800F400600190AA
:1011E00001981920FFF708FB1920BDE88C40FFF794
:1011F000F5BA4168002241F00401416000214068D5
:1012000000F00400009000981E20FFF7F5FA1E2061
:10121000BDE88C40FFF7E2BA1810024090F83D108C
:1012200001291CBF01207047022180F83D10006891
:10123000C168B0F1804F41F00101C16008D00A4996
:1012400088421CBF0949884202D00949884204D11A
:10125000816801F00701062903D0016841F001010E
:1012600001600020704700BF00040040002C0140D6
:101270000008004010B50446022094F83C20012AE2
:1012800070D001224FF6777384F83C2084F83D003B
:10129000206882689A4382600A6812B3102A20D0BC
:1012A000202A18BF302A1CD0402A21D0502A2BD007
:1012B000602A35D0B2F5005F3ED0B2F5805F4AD0EB
:1012C000702A51D1D1E90123C9681A4342EA0121A8
:1012D000826822F47F4211438160816841F0770186
:1012E00038E0816821F07701114341F0070131E0D6
:1012F0004B68CA68194600F027FD2068816821F014
:10130000770141F0470125E04B68CA68194600F0B3
:101310001BFD2068816821F0770141F0570119E039
:101320004B68CA68194600F020FD2068816821F0EA
:10133000770141F067010DE0D1E90123C9681A4343
:1013400042EA0121826822F47F4211438160816870
:1013500041F4804181600020012184F83D1000218A
:1013600084F83C10C0B210BD0120F5E7704710B5FD
:1013700004462068016911F0020F1CBFC16811F01A
:10138000020F15D06FF00201016101212177806900
:1013900010F0030F03D02046FFF7E8FF05E02046DA
:1013A00000F0D0F8204600F05DF90020207720689A
:1013B000016911F0040F1CBFC16811F0040F15D0B2
:1013C0006FF00401016102212177806910F4407FF0
:1013D00003D02046FFF7CAFF05E0204600F0B2F830
:1013E000204600F03FF9002020772068016911F0C5
:1013F000080F1CBFC16811F0080F15D06FF008016D
:10140000016104212177C06910F0030F03D0204649
:10141000FFF7ACFF05E0204600F094F8204600F00E
:1014200021F9002020772068016911F0100F1CBFFE
:10143000C16811F0100F15D06FF010010161082183
:101440002177C06910F4407F03D02046FFF78EFF5C
:1014500005E0204600F076F8204600F003F9002071
:1014600020772068016911F0010F1CBFC16811F0DD
:10147000010F06D06FF001010161204600F042F932
:101480002068016911F0800F1CBFC16811F0800F46
:1014900006D06FF0800101612046FFF72FFE206823
:1014A000016911F0400F1CBFC16811F0400F06D058
:1014B0006FF040010161204600F030F920680169B9
:1014C00011F0200F1CBFC16811F0200F00D110BD1A
:1014D0006FF0200101612046BDE81040FFF70FBE0C
:1014E000FEB50021CDE90411CDE902110068B0F18B
:1014F000804F1AD1A248016841F00801016002A999
:10150000006800F00800019001984FF440600290DC
:101510000220039005900748FFF720F8064801686D
:10152000064A1140064A1143016006B080BD00BF63
:1015300018100240000C014004000140FFFCFFF8BD
:101540000002000770470000B0B504460D4694F84D
:101550003C00012801D1022041E04FEAB201012004
:10156000032984F83C0037D8DFE801F0020A122290
:101570002068294600F036FB206850F8181F0EE05E
:101580002068294600F05AFB206850F8181F16E022
:101590002068294600F082FB206850F81C1F41F0AB
:1015A00008010160016821F00401016029690FE070
:1015B0002068294600F0A2FB206850F81C1F41F467
:1015C00000610160016821F48061016029690902FC
:1015D0000268114301600020002184F83C10C0B271
:1015E000B0BD10B5044634B394F83D0028B90020CE
:1015F00084F83C00204600F021F80220211D84F8E8
:101600003D00206800F0B6FA012084F8460084F816
:101610003E0084F83F0084F8400084F8410084F8DC
:10162000420084F8430084F8440084F8450084F8BC
:101630003D00002010BD012010BD00000068B0F189
:10164000804F18BF704781B00548016841F0010123
:101650000160006800F001000090009801B0704740
:101660001C1002407047000039B10322082908BF4E
:101670000222042908BF012200E00022024492F85D
:101680003E20012A1CBF01207047022241B10829D7
:1016900009D0042914BF80F8412080F83F2004E0DD
:1016A00080F83E2001E080F84020006801F01F0132
:1016B000012202FA01F1026A8A430262026A1143BC
:1016C00001625B49884202BF4A6C42F400424A64AC
:1016D000B0F1804F08D00A4988421CBF5449884263
:1016E00002D08A49884204D1816801F007010629A5
:1016F00003D0016841F0010101600020704700BF84
:10170000000400409249884218BF70479248007810
:1017100010B1914800F0B4BE704700BF7047FEE7BB
:101720007FB5174800223C250026016841F02001C2
:101730000160016801F0200100910099016841F009
:1017400004010160016801F0040100910099016841
:1017500041F0080101603C21006800F008000090A1
:101760000098084C2046FEF7D9FF012000956946F5
:10177000CDE90106032003902046FEF7EFFE7FBD72
:10178000181002400008014070B50F480F494FF48F
:10179000827200234FF4006C4FF0020E01244FF4CC
:1017A0000075102680E80E5000F1140170C1C0E9E8
:1017B00008330A21C0E90A31FFF7E8FA18B1BDE899
:1017C0007040FEF79DBD70BDE80300200030014071
:1017D000FEB50021E348472340F2F31CCDE9041194
:1017E000CDE90211CDE90011114AC0E90023C0E999
:1017F000021CC0E904118161FFF7B2FC08B1FEF7D9
:101800007FFD4FF4805002A90290D648FFF732FDC9
:1018100008B1FEF775FD00206946CDE90000D1480A
:10182000FFF76EFC08B1FEF76BFD06B080BD00BF90
:10183000002C014010B58AB0002401A81C21CDE97C
:101840000844FEF7E5FC43484FF0804140F2FF3288
:10185000C0E90014C0E9024204618461FFF7C1FEDF
:1018600008B1FEF74DFD3B4808A9CDE90844FFF754
:1018700047FC08B1FEF744FD602001A90822019051
:101880000020CDE9020005903248FFF75DFE08B167
:10189000FEF736FD2F4801A90C22FFF755FE08B1CF
:1018A000FEF72EFD2B48FFF71BFE0AB010BD00BF50
:1018B000FEB50021AE4847234FF0310CCDE90411AD
:1018C000CDE90211CDE90011C54AC0E90023C0E904
:1018D000021C01618161FFF743FC08B1FEF710FDB6
:1018E0004FF4805002A90290A148FFF7C3FC08B151
:1018F000FEF706FD00206946CDE900009C48FFF791
:10190000FFFB08B1FEF7FCFC06B080BD00080040FC
:1019100010B59448FFF782FC9548FFF77FFC0D4C0B
:1019200008212046FFF7A0FE20460C21FFF79CFE71
:10193000094C01202070002020726072E060C4E930
:10194000D600C4F86003204600F03CFBFBE700BF74
:10195000D00400208804002084000020FEE7FEE779
:10196000704710B513460A468021044600F00AF875
:1019700028B1606D40F020006065032000E0002089
:10198000C0B210BD2DE9FC411E4617460D468046EB
:10199000FEF7CAFE301AC419FEF7C6FE06462648F0
:1019A00001370068C0F3CB306043019006E0019836
:1019B000019901390028019108BF0446D8F80000B8
:1019C00081682940A94232D1002FF9D0FEF7ACFE40
:1019D000801BA042EBD3D8F80000416821F0E00161
:1019E0004160D8F80410B1F5827F0BD1D8F8081007
:1019F000B1F5004F18BFB1F5806F03D1016821F038
:101A000040010160D8F82810B1F5005F07D10168E6
:101A100021F400510160016841F40051016001208E
:101A200088F85100002088F85000032000E00020D2
:101A3000C0B202B0BDE8F0810C000020704710B5C4
:101A40000446FEF775FD2068E06010BD2DE9F04703
:101A500086B00446FEF76CFD4FF000084FF0010918
:101A60000DF1080A01AE0027002515E0CDF8088029
:101A7000314620683844CDE904095046FEF79CFC05
:101A80004FF0FF30FEF768FC074807F58067013527
:101A9000016821F002010160A0688542E6D3FEF7EB
:101AA000E7FC06B0BDE8F08710200240FEF7E0BC7E
:101AB00070B506460D4614463068F168814205D37C
:101AC000726801EB44011044814200D970BD002CC2
:101AD00008BF70BD2A88F16801200023FEF7D0FC02
:101AE00010B9F0680230F0600235013CEFE7FEF714
:101AF0001FBEB0B590B0002401A81421CDE90B445D
:101B0000CDE90944FEF784FB01204FF48031022522
:101B10000690CDE907140A904FF48010CDE90D51DD
:101B20000F9006A8FEF772FF18B1EFF3108072B69F
:101B3000FEE70F200221CDE901054FF480600394F8
:101B4000CDE9040401A8FEF793FE18B1EFF310806D
:101B500072B6FEE710B0B0BD704700000148FFF755
:101B600006BC00BF400400200148FFF700BC00BFD6
:101B7000D004002010B50368724AB0F1804F08D03D
:101B8000164CA0421CBF6F4CA04202D0144CA04285
:101B900003D14C6823F070032343B0F1804F08D089
:101BA0000E4CA0421CBF674CA04202D00C4CA0427D
:101BB00003D1CC6823F4407323434C6923F08003A2
:101BC000904243EA040303608B68C3620B6883623C
:101BD00004BF096911630121416110BD0004004087
:101BE0000008004070B5026A036A23F0010322F086
:101BF00002020362D0F804E0D0F818C08C680B68C9
:101C000022432CF0730444EA030C4E4B98420CD14F
:101C1000CE68D1E905452EF4407322F00C0223432F
:101C200043EA050E26F004031A43C0F804E0C0F8A6
:101C300018C049684163026270BD00BF70B5026A96
:101C4000036A23F0100322F020020362D0F804E0BC
:101C5000D0F818C08C680B6842EA04122CF4E644F1
:101C600044EA032C374B98420FD1CE68D1E90545A1
:101C70002EF4406322F0C00243EA840343EA850E57
:101C80006FF04F0303EA06131A43C0F804E0C0F8EC
:101C900018C049688163026270BD00BF70B5026AF6
:101CA000036A23F4807322F400720362D0F804E024
:101CB000D0F81CC08C680B6842EA04222CF0730434
:101CC00044EA030C1F4B98420FD1CE68D1E9054579
:101CD0002EF4405322F4406243EA041340F2FF44DE
:101CE00043EA051E3302A3431A43C0F804E0C0F8D8
:101CF0001CC04968C163026270BD00BFB0B5026A12
:101D0000036A23F4805322F400520362D0F804E003
:101D1000C5698B680C6842EA033C0A4B25F4E6422D
:101D200042EA0422984202BF4B692EF4804545EAFC
:101D3000831EC0F804E0C26149680164C0F820C095
:101D4000B0BD00BF002C0140D0F820C0036A23F0D2
:101D500001030362836923F0F00343EA0212826104
:101D60002CF00A02114301627047D0F820C0036AC8
:101D700023F010030362836923F4704343EA0232C1
:101D800082612CF0A00242EA011101627047FEE775
:101D900080B507484FF480410160002181720172D3
:101DA0004160044840F246311230FEF70FFA80BD20
:101DB0001805002084000020F8B504461E480025C0
:101DC00001260027A06120E0218B00F037F8A083D6
:101DD000618B00F033F8E083C0B20022A18B40EAAF
:101DE00001210020A18189B284F8200007E006FAD1
:101DF00002F301320B421CBF013084F82000102A8C
:101E0000F5D1C00707D065740137F8B20228DBD9D5
:101E1000607C10B907E001206074A0898108E1812D
:101E2000C0F340002074E089A080616931F810009F
:101E3000E08001B0F0BD00BF00830084BCB5ADF808
:101E400006104FF400454FF0FF300DF1060101AAD6
:101E500001233F4C656000900348FFF733F825608D
:101E6000BDF8040002B0B0BDE80300202DE9F8433E
:101E7000364B054601F580706FF39F216FF39F206D
:101E80002980E88033F9109033F911801046A5F8C5
:101E90000890A5F8028000F038FC21F0004100F025
:101EA00007FC41F2DB314843C0F30B3000F044FC47
:101EB000074648460C4600F028FC21F000413A460F
:101EC000234600F0C5FC00F0F3FB0646300B6881AA
:101ED000404600F01AFC21F000413A46234600F04B
:101EE000B7FC00F0E5FB244A010BB9F1000F4FF0FD
:101EF0002003A980C6F38D3112681164C0F38D30C0
:101F0000D063134800F104010246B8BF0A46C4BFBB
:101F100040F61002C4F20102136002464FF01003B3
:101F2000C8BF0A46B8F1000F136002464FF008031D
:101F3000B8BF0A46C4BF40F61002C4F201021360E3
:101F4000C8BF084604210160BDE8F883B02A000834
:101F50001008014000214181818007480068016428
:101F6000C163202105480160102101600821016042
:101F700004210160704700BF88040020140801405C
:101F80002DE9F0410D4606461446701B00F0BDFBDE
:101F90006410804621F00047204600F0B6FB024660
:101FA0000B464046394600F06DFD0146A819401029
:101FB00029B9A042A4BF001BBDE8F0812044BDE8C0
:101FC000F08100002DE9F84F0446607A062818BF1A
:101FD000BDE8F88F9B48FFF7BDFF204600F060F991
:101FE000207A002840F02281974D0020C4F8600339
:101FF0002846FFF72BFD2846FFF721FD217CD4F86A
:102000005803002900F0808004F134014FF4484A5D
:102010008346009171E001F1C802C826009D01F1DC
:10202000010BB2FBF6F303FB162201F1C903B3FB6C
:10203000F6F707FB163335F8122035F813309D1AE2
:10204000824A1268B5EB620FC2F10003C8BFAD1A35
:10205000B5EB630FB8BF154481421BD1D4F85C8344
:102060000AEB00264FEA082911E099FBF5F030440D
:10207000B0FBFAF101FB1A0100F0F6F9D4F86003A5
:1020800009F5807908F101080130C4F86003A8451A
:10209000EBDB30E0C8300AEB012800260027814244
:1020A00011D026E096FBF5F04044B0FBFAF101FBBD
:1020B0001A0100F0D9F9D4F8600306F580760137EB
:1020C0000130C4F86003D4F85C038742EADB12E015
:1020D00096FBF5F04044B0FBFAF101FB1A0100F069
:1020E000C3F9D4F8600306F5807601370130C4F8EF
:1020F0006003AF42ECDBD4F85803594600F1C90243
:102100009142FFF688AF81E004F1340100F1C80B81
:102110004FF4484A009176E00BF1C901C827009EB0
:10212000B1FBF7F202FB17110BF1C802B2FBF7F398
:1021300003FB172236F8111036F81220571AC94936
:102140000968B7EB610FC1F10002C8BF7F1AB7EB96
:10215000620F00F1C802B8BF0F440BF101019345B3
:102160001BD1D4F85C830AEB01254FEA082911E062
:1021700099FBF7F0281AB0FBFAF101FB1A0100F005
:1021800073F9D4F8600309F5807908F1010801308A
:10219000C4F86003B845EBDB31E00AEB0128002509
:1021A0000026834512D028E095FBF7F0A8EB00004D
:1021B000B0FBFAF101FB1A0100F056F9D4F8600304
:1021C00005F5807501360130C4F86003D4F85C036E
:1021D0008642E9DB13E095FBF7F0A8EB0000B0FBCB
:1021E000FAF101FB1A0100F03FF9D4F8600305F59C
:1021F000807501360130C4F86003BE42EBDBD4F8D1
:102200005803ABF1010B8345BFF686AF9B48FFF740
:102210004DFCF748D4F8602301688A4204D1217A42
:1022200021B90121017207E004202072F048002149
:1022300001729248FFF70AFC002060722070BDE82E
:10224000F88F00BF60050020100000201805002056
:102250002DE9F043B0F800E0C2F100094FEA620C4A
:1022600001254FEA690876460EE030F815704B46B6
:102270000135A7EB0E046445D8BF0023444506EBA7
:102280000704B8BF1346E6188D42EED396FBF1F172
:102290000029B8BF1144881AD8BF0846BDE8F083AA
:1022A0002DE9F04F87B00446D1480026056809E0C3
:1022B00004EB46072A46B7F8C611B88EFFF760FE52
:1022C000B8860136C92EF3D1B4F8C201A68E311AF0
:1022D0006842B1EB650FC8BF491BB1EB600FB8BFD7
:1022E00029440029069100F08B804FEA60004FEAF4
:1022F000650104904FF000000591C8BF01202074D3
:10230000C82095FBF0F000EB400000EBD0704010CF
:1023100000F0FBF9CDE902104FF4C87095FBF0F026
:1023200000F0F3F94FF01B0A4FF00209CDE900105D
:102330002FE034F81AB0B0B2ABEB00060598864235
:10234000C8BF761B04988642B8BF2E44304600F0C2
:10235000DCF9DDE9023221F000480746414600F091
:1023600083FB00284ED1DDE900323846414600F0BB
:1023700090FB002846D1002E42D0012E03DB0698A8
:10238000002803DC3CE00698002839DC0AF1010A49
:102390005E46AAF11A00C728CBD90698A5F1010C10
:1023A000002834DD4FF0000EC82204F1340300276A
:1023B0001EE007F1C80607F1C9000137B6FBF2F5C8
:1023C000B0FBF2F105FB126601FB120033F8165068
:1023D00033F81000A8420BD2791E03EB46000EF131
:1023E000010EC4F858130088ACEB0000C4F85C037D
:1023F000C72FDED9BEF1010F31D14FF0000901E046
:102400004FF0010984F8089007B0BDE8F08F002173
:10241000C82204F1340300271DE007F1C900B0FB16
:10242000F2F606FB120607F1C8000137B0FBF2F521
:1024300005FB120033F8165033F8100085420AD914
:1024400003EB46007E1E0131C4F858630088ACEBF4
:102450000000C4F85C03C72FDFD90129CDD04FF0AD
:102460000309CFE718050020E0B50448ADF80610D1
:102470000DF106010122FFF71BFB8CBD10000020AF
:1024800070B55B4D04462846FFF796FC5948017825
:10249000D9B1607A062800F2A280DFE800F01B04C0
:1024A0002E586674A100E0684FF47A72811C52487D
:1024B000E160FFF7DBFCE068B0F5C83F40F08F80DB
:1024C0004FF44840E060022088E000216172012161
:1024D000217001702078002800F08180E168464872
:1024E0004FF47A72FFF7C2FC4FF44840E0600020DE
:1024F00060824FF48070208170BDE66816F0FF0F97
:1025000017D1618AA8884A1C04EB41016282888243
:1025100090B210280FD12A6804F114001021FFF79F
:1025200097FEA6F54841090A04EB41018886002080
:1025300060820136E660304831464FF47A72FFF728
:1025400095FCE068B0F5C83F49D9032046E0E06853
:102550004FF47A72411C2848E160FFF787FCE0687D
:10256000B0F5D23F3BD1042038E0E0684FF47A72F6
:10257000411E2148E160FFF779FCE068B0F5C83FF3
:102580002DD105202AE0E66816F0FF0F18D1618AE8
:10259000A8884A1C04EB41016282888290B210280C
:1025A00010D12A6804F114001021FFF751FEA6F59E
:1025B0004841090A04EB4101A1F8C60100206082EC
:1025C000013EE6600C4831464FF47A72FFF74EFC4C
:1025D000E068C00A182888BF70BD0620607270BD10
:1025E000054800210022BDE87040FFF73FBC00BF56
:1025F00018050020800000206005002080B5FEF74F
:102600009DF8FFF776FAFFF78BF8FFF751F9FFF720
:10261000BBF8FFF70FF9FFF7DBF8FFF779F9FEE7F3
:10262000491058BFC1F140415B1058BFC3F140434E
:102630008B42EFF30080704751EA030C17D41CF56E
:10264000801F58BFBCF5801F00F10680994218BF5B
:10265000704708BF9042704707D711F5801F58BFD9
:1026600013F5801F19D499427047894270471CF5B1
:10267000801F08D5BCF5801FF7D58B4218BF704767
:1026800008BF824270474FF4001C1CEB410F38BF5B
:102690001CEB430F01D28B42704770B500F082F9FA
:1026A000922449004FF000514FF08053FFF7B8BF1C
:1026B0004FEA1153A3F58063D3F11E03A8BFD3F1F2
:1026C000200C08DB4FF0004242EAC12252EA50528D
:1026D00032FA03F0704709420BD4102BC4BF00201C
:1026E000704703F5787CBCF1FF3F05D04FF0FF3019
:1026F00070474FF00000704770B500F053F900BF0D
:102700004992248000207047F0E710F0004248BF53
:102710004042B0FA80F310FA03F10AD0C3F11D036E
:1027200003F5806302EB03524FEA415002EBD121E3
:1027300070474FF000007047B0FA80F310FA03F1D1
:102740000AD0C3F11D0303F580634FEA03524FEA39
:10275000415002EBD12170474FF00000704700005C
:1027600051EA030C17D41CF5801F58BFBCF5801F1D
:1027700000F10680994218BF704708BF9042704729
:1027800007D711F5801F58BF13F5801F19D4994240
:102790007047894270471CF5801F08D5BCF5801F23
:1027A000F7D58B4218BF704708BF824270474FF47D
:1027B000001C1CEB410F38BF1CEB430F01D28B42B6
:1027C000704770B500F0EEF8922449004FF0805148
:1027D0004FF00053FFF724BF51EA030C17D41CF548
:1027E000801F58BFBCF5801F00F10680994218BFBA
:1027F000704708BF9042704707D711F5801F58BF38
:1028000013F5801F19D499427047894270471CF50F
:10281000801F08D5BCF5801FF7D58B4218BF7047C5
:1028200008BF824270474FF4001C1CEB410F38BFB9
:102830001CEB430F01D28B42704770B500F0B2F829
:10284000922449004FF000514FF08053FFF7E8BE4B
:1028500070B5DFF848C11CEA111E1EBF1CEA131533
:102860009EEA0C0F95EA0C0F00F06F8081EA0304DA
:102870004EEAD47EAE4421EA4C1123EA4C1341F4D3
:10288000801143F48013AEF17F7EA1FB024CA0FBCC
:102890000365361955EB0C05A1FB034C4CF1000305
:1028A000A0FB021C16EB0C06654153F10003094224
:1028B00018BF46F0010613F4007F0BD14FEA033135
:1028C0004FEA053041EA155140EA165034036FF0E3
:1028D00003020AE04FEAC3214FEAC52041EA5551FD
:1028E00040EA5650F4026FF0020202EB2E4201EB76
:1028F000025585EACE710AD05FEA440C18BF24F075
:10290000004450F1000041F1000120EAD47040F28F
:10291000FE7C624500D270BDA84214BF4FF08044D7
:102920004FF04044002E08BF0024BEF1806FA8BFC6
:10293000A1F1C041BDE8704080F2828001F1C04148
:1029400001F000414FF0000070470CEA13159EEAB9
:102950000C0F18BF95EA0C0F06D081EA030E4FF05A
:1029600000000EF0004170BD00F01CF88900013E2F
:1029700000F007B800F009B84FEA430C5FEA5C5C6E
:1029800008D081EA030100F05BB84FEA410C5FEA2E
:102990005C5CF6D102494FF0000070470000FF0771
:1029A0000000F87F0EF1020E2EF0030E5EF8046BAD
:1029B000364205D4012A43EB030515F5001F12D852
:1029C000012841EB010C1CF5001F0CD80ED14FEA79
:1029D000D17C0CEB4C0C0CF1020C15F5001F08BF60
:1029E0004CEBD37C04E04FF0080C01E04FEAD37CC1
:1029F0000CEB4C0526FA05F606F00706B6F1040CBA
:102A000006D20EEB860CBDE870404CF0010C60471E
:102A1000DFE80CF0090B02024FF00041A1F50021A4
:102A20004FF0000070BD19461046012851EB01041B
:102A300018BFD4F5001484BF002001F0004170BD20
:102A40000808A0F500114FEA3101704710B5FFF7F3
:102A5000F3FD0CBF0120002010BD10B5FFF7ECFD09
:102A600014BF0120002010BD10B5FFF779FE8CBF08
:102A70000120002010BD10B5FFF772FE2CBF012011
:102A8000002010BD10B5FFF7A7FE94BF0120002065
:102A900010BD10B5FFF7A0FE34BF0120002010BD0F
:102AA00000000000000000000102030406070809FE
:102AB0000000190032004B0065007E009700B00056
:102AC000C900E200FB0014012D0146015F017801FD
:102AD0009101AA01C301DC01F5010E0227024002A7
:102AE000590272028B02A302BC02D502EE02060357
:102AF0001F0338035003690381039A03B203CB0316
:102B0000E303FC0314042C0444045D0475048D04E5
:102B1000A504BD04D504ED0405051D0534054C05CB
:102B200064057C059305AB05C205DA05F1050806C9
:102B30001F0637064E0665067C069306AA06C106E2
:102B4000D706EE0605071B07320748075E0775071D
:102B50008B07A107B707CD07E307F9070E0824087D
:102B60003A084F0865087A088F08A508BA08CF0800
:102B7000E408F8080D09220937094B095F097409AF
:102B800088099C09B009C409D809EC09FF09130A8E
:102B9000260A3A0A4D0A600A730A860A990AAC0A9A
:102BA000BF0AD10AE40AF60A080B1B0B2D0B3E0BD9
:102BB000500B620B740B850B970BA80BB90BCA0B50
:102BC000DB0BEC0BFC0B0D0C1E0C2E0C3E0C4E0C00
:102BD0005E0C6E0C7E0C8E0C9D0CAC0CBC0CCB0CED
:102BE000DA0CE90CF80C060D150D230D320D400D15
:102BF0004E0D5C0D690D770D850D920D9F0DAC0D81
:102C0000B90DC60DD30DDF0DEC0DF80D040E100E31
:102C10001C0E280E340E3F0E4B0E560E610E6C0E1F
:102C2000770E810E8C0E960EA10EAB0EB50EBF0E5A
:102C3000C80ED20EDB0EE40EEE0EF70EFF0E080FDE
:102C4000110F190F210F290F310F390F410F480FA5
:102C5000500F570F5E0F650F6C0F720F790F7F0FBC
:102C6000850F8B0F910F970F9C0FA20FA70FAC0F23
:102C7000B10FB60FBB0FBF0FC40FC80FCC0FD00FD3
:102C8000D40FD70FDB0FDE0FE10FE40FE70FEA0FD2
:102C9000EC0FEF0FF10FF30FF50FF70FF80FFA0F1F
:102CA000FB0FFC0FFD0FFE0FFF0FFF0F00100010BA
:102CB000001000100010FF0FFF0FFE0FFD0FFC0FA4
:102CC000FB0FFA0FF80FF70FF50FF30FF10FEF0FE0
:102CD000EC0FEA0FE70FE40FE10FDE0FDB0FD70F6A
:102CE000D40FD00FCC0FC80FC40FBF0FBB0FB60F40
:102CF000B10FAC0FA70FA20F9C0F970F910F8B0F67
:102D0000850F7F0F790F720F6C0F650F5E0F570FD6
:102D1000500F480F410F390F310F290F210F190F95
:102D2000110F080FFF0EF70EEE0EE40EDB0ED20EA3
:102D3000C80EBF0EB50EAB0EA10E960E8C0E810EF8
:102D4000770E6C0E610E560E4B0E3F0E340E280E93
:102D50001C0E100E040EF80DEC0DDF0DD30DC60D7C
:102D6000B90DAC0D9F0D920D850D770D690D5C0DA4
:102D70004E0D400D320D230D150D060DF80CE90C0E
:102D8000DA0CCB0CBC0CAC0C9D0C8E0C7E0C6E0CBF
:102D90005E0C4E0C3E0C2E0C1E0C0D0CFC0BEC0BAA
:102DA000DB0BCA0BB90BA80B970B850B740B620BD3
:102DB000500B3E0B2D0B1B0B080BF60AE40AD10A35
:102DC000BF0AAC0A990A860A730A600A4D0A3A0ACF
:102DD000260A130AFF09EC09D809C409B0099C099D
:102DE000880974095F094B09370922090D09F80898
:102DF000E408CF08BA08A5088F087A0865084F08C4
:102E00003A0824080E08F907E307CD07B707A1071A
:102E10008B0775075E07480732071B070507EE0695
:102E2000D706C106AA0693067C0665064E06370637
:102E30001F060806F105DA05C205AB0593057C05FA
:102E400064054C0534051D050505ED04D504BD04D8
:102E5000A5048D0475045D0444042C041404FC03CF
:102E6000E303CB03B2039A038103690350033803DE
:102E70001F030603EE02D502BC02A3028B027202FC
:102E80005902400227020E02F501DC01C301AA012A
:102E9000910178015F0146012D011401FB00E20060
:102EA000C900B00097007E0065004B003200190099
:102EB0000000E7FFCEFFB5FF9BFF82FF69FF50FFD9
:102EC00037FF1EFF05FFECFED3FEBAFEA1FE88FE13
:102ED0006FFE56FE3DFE24FE0BFEF2FDD9FDC0FD49
:102EE000A7FD8EFD75FD5DFD44FD2BFD12FDFAFC79
:102EF000E1FCC8FCB0FC97FC7FFC66FC4EFC35FC9A
:102F00001DFC04FCECFBD4FBBCFBA3FB8BFB73FBA9
:102F10005BFB43FB2BFB13FBFBFAE3FACCFAB4FAA3
:102F20009CFA84FA6DFA55FA3EFA26FA0FFAF8F985
:102F3000E1F9C9F9B2F99BF984F96DF956F93FF94C
:102F400029F912F9FBF8E5F8CEF8B8F8A2F88BF8F1
:102F500075F85FF849F833F81DF807F8F2F7DCF771
:102F6000C6F7B1F79BF786F771F75BF746F731F7CE
:102F70001CF708F7F3F6DEF6C9F6B5F6A1F68CF6FF
:102F800078F664F650F63CF628F614F601F6EDF500
:102F9000DAF5C6F5B3F5A0F58DF57AF567F554F5D4
:102FA00041F52FF51CF50AF5F8F4E5F4D3F4C2F475
:102FB000B0F49EF48CF47BF469F458F447F436F4DE
:102FC00025F414F404F4F3F3E2F3D2F3C2F3B2F30E
:102FD000A2F392F382F372F363F354F344F335F301
:102FE00026F317F308F3FAF2EBF2DDF2CEF2C0F2B9
:102FF000B2F2A4F297F289F27BF26EF261F254F22D
:1030000047F23AF22DF221F214F208F2FCF1F0F15B
:10301000E4F1D8F1CCF1C1F1B5F1AAF19FF194F14D
:1030200089F17FF174F16AF15FF155F14BF141F1F2
:1030300038F12EF125F11CF112F109F101F1F8F04E
:10304000EFF0E7F0DFF0D7F0CFF0C7F0BFF0B8F067
:10305000B0F0A9F0A2F09BF094F08EF087F081F030
:103060007BF075F06FF069F064F05EF059F054F0A9
:103070004FF04AF045F041F03CF038F034F030F0D9
:103080002CF029F025F022F01FF01CF019F016F0BA
:1030900014F011F00FF00DF00BF009F008F006F04D
:1030A00005F004F003F002F001F001F000F000F090
:1030B00000F000F000F001F001F002F003F004F085
:1030C00005F006F008F009F00BF00DF00FF011F02C
:1030D00014F016F019F01CF01FF022F025F029F082
:1030E0002CF030F034F038F03CF041F045F04AF08C
:1030F0004FF054F059F05EF064F069F06FF075F045
:103100007BF081F087F08EF094F09BF0A2F0A9F0B4
:10311000B0F0B8F0BFF0C7F0CFF0D7F0DFF0E7F0D5
:10312000EFF0F8F001F109F112F11CF125F12EF1A7
:1031300038F141F14BF155F15FF16AF174F17FF132
:1031400089F194F19FF1AAF1B5F1C1F1CCF1D8F177
:10315000E4F1F0F1FCF108F214F221F22DF23AF26E
:1031600047F254F261F26EF27BF289F297F2A4F226
:10317000B2F2C0F2CEF2DDF2EBF2FAF208F317F39C
:1031800026F335F344F354F363F372F382F392F3CB
:10319000A2F3B2F3C2F3D2F3E2F3F3F304F414F4C0
:1031A00025F436F447F458F469F47BF48CF49EF477
:1031B000B0F4C2F4D3F4E5F4F8F40AF51CF52FF5F5
:1031C00041F554F567F57AF58DF5A0F5B3F5C6F53B
:1031D000DAF5EDF501F614F628F63CF650F664F64D
:1031E00078F68CF6A1F6B5F6C9F6DEF6F3F608F732
:1031F0001CF731F746F75BF771F786F79BF7B1F7E6
:10320000C6F7DCF7F2F707F81DF833F849F85FF86E
:1032100075F88BF8A2F8B8F8CEF8E5F8FBF812F9D3
:1032200029F93FF956F96DF984F99BF9B2F9C9F911
:10323000E1F9F8F90FFA26FA3EFA55FA6DFA84FA2E
:103240009CFAB4FACCFAE3FAFBFA13FB2BFB43FB30
:103250005BFB73FB8BFBA3FBBCFBD4FBECFB04FC19
:103260001DFC35FC4EFC66FC7FFC97FCB0FCC8FCEA
:10327000E1FCFAFC12FD2BFD44FD5DFD75FD8EFDAC
:10328000A7FDC0FDD9FDF2FD0BFE24FE3DFE56FE5E
:103290006FFE88FEA1FEBAFED3FEECFE05FF1EFF08
:1032A00037FF50FF69FF82FF9BFFB5FFCEFFE7FFAF
:1032B00000000000D83200080000002020000000BC
:1032C00028010008F832000820000020500B000000
:1032D00044010008BDEAFFFF0100000010000000EB
:1032E000000000000024F400007C010800800000C1
:0832F0002000000000000000B6
:04000005080000ED02
:00000001FF
