:020000040800F2
:10000000580F00208D010008A72800080D250008C2
:10001000A52800081B030008553400080000000054
:10002000000000000000000000000000A12D0008FA
:100030007103000800000000C52C0008532E0008C2
:10004000A7010008A7010008A7010008A7010008F0
:10005000A7010008A7010008A7010008A7010008E0
:10006000A7010008A7010008A7010008A7010008D0
:10007000A7010008A7010008310300083D0300089C
:10008000A7010008A7010008A701000845340008DF
:100090004D3400081D03000825030008A7010008CF
:1000A000A7010008C12E0008A7010008A701000849
:1000B000A7010008A7010008CD2E0008A70100082D
:1000C000A7010008A7010008A7010008A701000870
:1000D000A701000839340008A7010008A70100089B
:1000E000A7010008A7010008A701000800F002F816
:1000F00000F03CF80AA090E8000C82448344AAF186
:100100000107DA4501D100F031F8AFF2090EBAE883
:100110000F0013F0010F18BFFB1A43F0010318473B
:100120007C5F00009C5F0000103A24BF78C878C153
:10013000FAD8520724BF30C830C144BF04680C60ED
:10014000704700000023002400250026103A28BF35
:1001500078C1FBD8520728BF30C148BF0B60704739
:100160001FB500F07FF81FBD10B510BD00F0A7F857
:100170001146FFF7F5FF04F0F2FC00F0C5F803B4F8
:10018000FFF7F2FF03BC00F08BF80000094880473E
:1001900009480047FEE7FEE7FEE7FEE7FEE7FEE769
:1001A000FEE7FEE7FEE7FEE704480549054A064B81
:1001B00070470000BD2E0008ED000008580900201F
:1001C000580F0020580B0020580B00204FF0000261
:1001D0000429C0F0128010F0030C00F01B80CCF159
:1001E000040CBCF1020F18BF00F8012BA8BF20F8C7
:1001F000022BA1EB0C0100F00DB85FEAC17C24BF1B
:1002000000F8012B00F8012B48BF00F8012B7047C4
:100210004FF0000200B5134694469646203922BF9F
:10022000A0E80C50A0E80C50B1F12001BFF4F7AFEA
:10023000090728BFA0E80C5048BF0CC05DF804EBCC
:10024000890028BF40F8042B08BF704748BF20F83A
:10025000022B11F0804F18BF00F8012B7047704738
:100260007047704770B5064C7C44064D7D4403E0F2
:10027000206820448047241DAC42F9D170BD0000A5
:10028000505E0000505E000010B500F00FF80068EE
:1002900010BD10B5044600F009F8046010BD000060
:1002A00001491820ABBEFEE7260002000048704757
:1002B000400000200048704740000020704775460D
:1002C000FFF7F8FFAE4605006946534620F00700E9
:1002D000854618B020B5FFF767FFBDE820404FF016
:1002E00000064FF000074FF000084FF0000BAC463F
:1002F000ACE8C009ACE8C009ACE8C009ACE8C0098A
:1003000021F007018D46704710B50446AFF3008019
:100310002046BDE81040FFF732BFFEE7034800F07B
:1003200063B900BF014800F05FB900BF3805002085
:10033000014800F0D1BB00BF30010020014800F0AF
:10034000CBBB00BFA000002010B5D0E90FCE012428
:1003500004FA0EF4CCF80440046863604068102886
:10036000084608BF1046A06008BF0A46E26010BDFC
:100370007047EFF3108072B6FEE700002B4801686B
:1003800011F0100F01D1002105E01049CA6942F0B7
:100390000202CA611021026812F0040F06D00B4A53
:1003A00041F00401D36943F00103D361026912F003
:1003B000010F08D0054AD36943F00403D3610269F1
:1003C00022F0010202610160704700BFA80800200E
:1003D00070B5044600F04AFE0546661C13480168E5
:1003E00011F0010F09D0002EF8D024B100F03EFE2C
:1003F000401BA042F2D9032014E0016811F0200F45
:100400001CBF20210160016811F0100F07D10169A4
:1004100011F0010F04BF006810F0040F04D0FFF7C3
:10042000ADFF0120C0B270BD0020FBE70C200240F0
:1004300010B590F82040D0F800C0DCF808E0013C8E
:10044000E4B2012C0ED81EF0E05F11D0CEF30160B3
:10045000012484401C60D1E9023E7BB14C6843EA30
:10046000C4030DE000F1240301204FF4802123E0B8
:1004700000F1240301204FF400111DE00B685B051F
:100480000CEB001043EA0E03C0F880310B69C0F892
:10049000843100F5C073097D012901BF00F5C271E7
:1004A0000C6844F480740C605168C0F88C111168B9
:1004B000C0F88811002001211A681143196010BD8D
:1004C000704710B590F82040013CE4B2012C19D8D7
:1004D000D0F800C000290CBFDCF80C40DCF810405C
:1004E00014F0030F14D00CEB011CDCF8B0410CF538
:1004F000D87E14F004049460DCF8B0410ED1640D91
:1005000014600DE000F1240201204FF4802166E028
:1005100000F1240201204FF4001160E0E40854606F
:10052000DEF800400CF5DA7E04F00204D460DCF85A
:10053000B44114F0080F06BFDEF8004004F00F04C9
:10054000082400291461DEF80040C4F307249461F4
:10055000DEF800404FEA14445461DCF8B8211A7008
:10056000026802EB0112D2F8B8214FEA12225A7047
:10057000026802EB0112D2F8B8214FEA12429A70D7
:10058000026802EB0112D2F8B8214FEA1262DA7067
:10059000026802EB0112D2F8BC211A71026802EB68
:1005A0000112D2F8BC214FEA12225A71026802EB02
:1005B0000112D2F8BC214FEA12429A71026802EB92
:1005C00001124FF02001D2F8BC214FEA1262DA7119
:1005D000006800F1100208BF00F10C02002013684F
:1005E0001943116010BD00002DE9F84F0446206842
:1005F0004669D0F804908768D0F80CB0D0F810A005
:10060000D0F8188016F0010F01D1002549E0F90754
:100610000ED001218160B80707D478071DD43807B0
:1006200021D4204600F0EBF902E0204600F0E8F982
:100630000025F8051CD520684FF480718160B8054D
:1006400007D478050CD4380510D4204600F0D9F929
:100650000EE0204600F0D6F90AE04FF40065E8E726
:1006600045F4005504E04FF48055E2E745F4804539
:10067000F80316D520684FF480318160B80307D4A1
:10068000780309D438030AD4204600F0BCF908E006
:10069000204600F0B9F904E045F4004501E045F4D6
:1006A0008035300707D51BF010001FBF20681021D0
:1006B000C16045F40075700708D51BF0080005D02F
:1006C00020680821C160204600F078F9B00707D5FE
:1006D0002068C06810F0030F1CBF204600F070F9BE
:1006E000700607D51AF010001FBF206810210161A5
:1006F00045F48065B00608D51AF0080005D02068DA
:1007000008210161204600F077F9F00607D520683E
:10071000006910F0030F1CBF204600F06EF9B00313
:1007200008D519F0100005D020681021416020463E
:1007300000F064F9F00308D519F0080005D020682E
:1007400008214160204600F060F9300444D55FEA9A
:1007500049703ED506F4807018F0020F08EA1020A8
:1007600040EA0500014618BF41F0020116F4007F7F
:1007700008BF014618F0040F0D4618BF45F00405E8
:1007800016F4806F08BF0D4616F4006F18BF18F0FE
:1007900070001ED010380009052815D8DFE800F0D9
:1007A0000306090C0F1245F008050DE045F0100591
:1007B0000AE045F0200507E045F0400504E045F07B
:1007C000800501E045F480752068816921F07001A1
:1007D00081612068042141603DB1606A2843606204
:1007E0002046BDE8F84FFFF76BBEBDE8F88FB0B507
:1007F0000446C4B194F8200010B9204600F076F801
:100800002068016841F00101016000F02FFC0546FD
:100810002068416811F0010F07D100F027FC401B50
:100820000B28F5D312E00120B0BD016821F00201D0
:10083000016000F01BFC05462068416811F0020FC2
:100840000BD000F013FC401B0B28F5D3606A052188
:1008500040F400306062012044E0217E026822F012
:100860008003012908BF42F080030360617E0268B3
:1008700022F04003012908BF42F040030360A17E3B
:10088000026822F02003012908BF42F02003036020
:10089000E17E026842F01003012908BF22F0100334
:1008A0000360217F026822F00803012908BF42F09B
:1008B00008030360617F026822F00403012908BF76
:1008C00042F004030360D4E901C2D4E9033561694D
:1008D0001A432A431143ACF101021143C1610020C4
:1008E0000121606284F82010B0BD0000B0B586B070
:1008F0000021CDE90411CDE902110068274A904298
:1009000049D1274802AD426842F000724260426815
:1009100002F000720192019A026842F0080202603D
:10092000006800F00800019001984FF48070CDE954
:100930000201049129461B4C204600F0B1FA4FF405
:100940000070294602900220039003200590204663
:1009500000F0A6FA1448174C0168144A1140144AD2
:1009600011430022016013200021A047124D1320E3
:10097000A847142000210022A0471420A8471520D2
:1009800000210022A0471520A847162000210022A0
:10099000A0471620A84706B0B0BD00BF00640040C5
:1009A00018100240000C014004000140FF9FFFF8B6
:1009B000004000073D1100082111000870470000A9
:1009C00010B50B4C0B4B00212246FFF77AFD08B106
:1009D000FFF7CFFC206800F4FE41FF2988BF10BD5F
:1009E0002269044900F07F00BDE8104001F05CBFBF
:1009F0007C010020740100207047704770477047E9
:100A000070477047704770477047704790F82110E3
:100A1000022912D1016801230A6822F00E020A603D
:100A20000A6822F001020A60D0E90F1203FA02F20A
:100A30004A60002180F8213002E004218163012115
:100A4000002280F8202008467047000080B590F80A
:100A5000211002291DD103684FF0010C196821F003
:100A60000E011960196821F001011960644A654995
:100A70008B4212D064498B4211D064498B4210D012
:100A800063498B4210D063498B4210D14FF48031BF
:100A900015E00421816301211BE001210FE01021F9
:100AA0000DE04FF480710AE04FF4805107E002F14D
:100AB000680E4FF08071734508BF4FF480111160CC
:100AC000002180F821C080F82010426B0AB19047C5
:100AD0000021084680BD00BFF0B5D0E90F311C6889
:100AE00002681568464F15F0040F1EBF04268E409D
:100AF00016EA040619D0116811F0200F02BF116820
:100B000021F0040111603F498A4259D03E498A428E
:100B100045D03E498A4244D03D498A4244D03D496D
:100B20008A4244D14FF480214BE0AE0720D5022603
:100B30008E4026401CD0116811F0200F06D111689C
:100B400021F00A011160012180F821102D498A420B
:100B50003AD02D498A4239D02C498A4238D02C4982
:100B60008A4238D02B498A4238D14FF400313DE0D7
:100B70002F0744D508278F40274008BFF0BD1768CE
:100B800027F00E071760012202FA01F159600021D7
:100B9000826380F8212080F82010016B2BE0402137
:100BA0000FE04FF480610CE04FF4804109E007F161
:100BB00068034FF080619A4208BF4FF4800100E063
:100BC00004213960C16A16E002210FE020210DE006
:100BD0004FF400710AE04FF4005107E007F1680399
:100BE0004FF000719A4208BF4FF4001139600021A4
:100BF00080F82010816A11B1BDE8F0400847F0BDCF
:100C000004000240080002401C0002403000024084
:100C1000440002405800024001460120002908BF5C
:100C20007047B0B50A68174B02EB030C1423BCFBEA
:100C3000F3F39B000B64144BCB63022381F8213048
:100C400043F6F073D2F800C02CEA030CD1E9013E60
:100C5000D1E9034543EA0C0343EA0E0323432B4344
:100C60004D692B438D692B43CD692B4313600022C3
:100C70008A6381F8210081F820200020BDE8B0407F
:100C8000704700BFF8FFFDBF0000024010B50446EA
:100C900094F82000012820D0012084F8200094F846
:100CA0002100012816D1022084F821000020A06331
:100CB000D4F800C0DCF8000020F00100CCF80000FF
:100CC0002046FFF741FB2068E26A01683AB141F033
:100CD0000E010AE0002084F8200002200BE021F041
:100CE00004010160016841F00A010160016841F0FE
:100CF000010101600020C0B210BD00002DE9F843E1
:100D00005A4E05468946307E012801D1022021E055
:100D1000012030764CF250302C68FFF759FB544FCD
:100D2000022C13D198B90020F061386840F004001B
:100D30003860386840F0400038604CF25030FFF7BF
:100D400047FB396821F00401396001E030B101202E
:100D500000213176C0B201B0BDE8F0834FF0FF3022
:100D60004FF00008C9F800000120A9680C4618E0FF
:100D7000C6F81C80386840F0020038607C60386833
:100D800040F0400038604CF25030FFF721FB3968EA
:100D9000002821F00201396009D1A96804F58064B6
:100DA0000020EA6801EB82218C42E1D3D0E7C9F848
:100DB0000040CDE72E48016841F08001016000202D
:100DC000704700BF2DE9F84FDFF8A08081461C4630
:100DD00092460E4698F81800012801D1022042E000
:100DE000012088F818004CF25030FFF7F1FAB8BB38
:100DF000B9F1020F4F466FF01F0B18BF0427B9F16E
:100E0000010F08BF4F464FF000095FFA89F0874293
:100E100025D900210201C8F81C102AFA02F2144D4B
:100E2000296841F0010129602021A1EB001104FA99
:100E300001F111430BEB0012002AA8BF24FA02F1C2
:100E400026F810104CF25030FFF7C2FA296809F169
:100E50000109002821F001012960D6D000E000201E
:100E6000002188F8181001B0BDE8F08FA808002014
:100E7000102002400748C16811F0800F04BF002015
:100E800070470549016005490160C068C0F3C010A2
:100E9000704700BF0420024023016745AB89EFCDB6
:100EA0002DE9FE4F614A04234FF0000B4FF0010C77
:100EB0004FF00F0E4FF0000A4FF00008904200F183
:100EC000140208BF0323019200930A6832FA08F360
:100ED00008BFBDE8FE8F0CFA08F73A4200F0A18087
:100EE0004A68032A16D9112A26D0122A28D0504B34
:100EF0009A4213D04F4B9A421CBF4F4B9A420DD08F
:100F00004E4B9A421CBF4E4B9A4207D04D4B9A42D1
:100F100004D022E0DFE802F002181B1F8A6842B109
:100F2000012A019A4FF0080A08BF00F11002176069
:100F300013E04FF0040A10E0CA6802F1040A0CE062
:100F4000CA6802F10C0A08E0D1F80CA005E0CA68F2
:100F500002F1080A01E04FF0000AB8F1080F02465A
:100F6000454628BF04321368374C28BF2544AE00DD
:100F70000EFA06F50AFA06F6AB4333431360CA7954
:100F8000D2064ED5644A4FEA98060BF00C090EFAC9
:100F900009F5136843F001031360126802F00102BF
:100FA0000292029B294CA4F57E7353F8262022EA74
:100FB000050C274A90420AD0264A90420AD0264A77
:100FC000DDF800E0904208BF4FF0020E04E04FF061
:100FD000000E01E04FF0010E0EFA09F24FF00F0E75
:100FE00042EA0C024FF0010C43F826204A681B4BE2
:100FF000A66812F4801F0CBFBE433E43A660960253
:101000001E6854BFBE433E431E609303636854BFD3
:10101000BB433B43D2036360226854BFBA433A43A5
:1010200022600BF1040B08F101084EE700140140A7
:10103000000011100000121000002110000022100A
:101040000000311000003210F8FFFF3F00040140A3
:1010500000080140000C0140001001400C04014058
:10106000002A08BF09040161704700001B4880681E
:10107000704700BF19480178826811448160704749
:1010800080B50748016841F010010160032000F0BD
:1010900081F80F2000F006F800F022F8002080BD53
:1010A0000020024070B50D4E04464FF47A7130783E
:1010B000B1FBF0F09E490968B1FBF0F000F0D2FC02
:1010C00001250F2C08D838B94FF0FF3021460022F7
:1010D000002500F033F87460284670BD0000002041
:1010E00082B00D480222016841F0010101600168EF
:1010F00001F0010101910199416841F08051416085
:10110000406800F08050009000980448016862F345
:101110001A61016002B070471810024004000140DB
:10112000002808DB00F01F010122400902FA01F14A
:10113000014A42F82010704700E100E0B0B5144CBD
:10114000224D00F00F03B0F1FF3FA3F104032B4445
:1011500003F10C03C8BF03192868C0F30220051D62
:10116000C41E80F00700072D4FF0010538BF002492
:10117000042828BF042005FA00F00138084005FAC9
:1011800004F10F31A0401140084300011870B0BDB8
:1011900000E400E00D494FF6FF030A681A4060F3CF
:1011A0000A22024810430860704700BF0000FA0599
:1011B000BFF34F8F05480168054A01F4E061114310
:1011C0000160BFF34F8F00BFFDE700BF0CED00E0F3
:1011D0000400FA052DE9F04104468846002C00F091
:1011E0008880464F4FF48050395801F0070141453F
:1011F0000AD2395821F0070141EA0801395038581C
:1012000000F00700404574D1206810F0020F11D0A3
:10121000410742BF796841F4E0617960010742BF4C
:10122000796841F4605179607968A26821F0F00131
:1012300011437960C00727D06068012804D139685C
:1012400011F4003F08D154E03968022802D1890125
:1012500002D44EE089074CD5796821F00301084398
:101260007860FFF703FF064641F2883578686168C9
:1012700000F00C00B0EB810F06D0FFF7F7FE801BEB
:10128000A842F3D9032035E04FF48050395801F0DB
:10129000070141450AD9395821F0070141EA0801FF
:1012A0003950385800F00700404522D1206810F02E
:1012B000040F05D07968E26821F4E0611143796098
:1012C000000706D57868216920F4605040EAC10023
:1012D000786000F031F87968094AC1F30311515C74
:1012E000C8401349086007480068FFF7DBFE00208C
:1012F00000E00120C0B2BDE8F08100BF0010024054
:10130000825800080400002009480A4A00681A4967
:101310000968C1F30221515CC8407047FD48054A85
:101320000068FA490968C1F3C221515CC84070479E
:101330000C000020925800080F490A680F4802F07C
:101340000C03042B08BF7047082B13D1C2F3834C46
:101350000BA312F4803F13F80C3002BF0D48584322
:10136000704709680AA25843C1F34041515CB0FB81
:10137000F1F070470848704704100240001BB700A6
:1013800002030405060708090A0B0C0D0E0F1010C6
:101390000102000000093D0000127A002DE9FE4F15
:1013A0008246BAF1000F00F065819AF80000D64E2F
:1013B000D64FC00750D0386800F00C00042819D070
:1013C000386800F00C00082803D1386810F4803F1A
:1013D00010D1DAF80400A8B1B0F5803F06D031682A
:1013E000B0F5A02F24D141F480203060306840F463
:1013F000803023E0306810F4003F2DD0DAF804008C
:1014000050BB37E1306820F480303060306820F421
:1014100080203060FFF72AFE0546306810F4003F58
:101420001AD0FFF723FE411B03206429F5D922E1DE
:1014300021F480303060306820F480203060FFF785
:1014400015FE0546306810F4003F05D1FFF70EFE8B
:10145000401B6428F6D9EBE09AF800008007AC48FE
:10146000834632D5386810F00C0F1DD0386800F074
:101470000C00082804BF386810F4803F14D0DAF854
:101480001000002800F09580012059460860FFF701
:10149000EDFD0546306810F0020F0ED1FFF7E6FDB6
:1014A000401B0228F6D9C3E0306810F0020F1CBFC1
:1014B000DAF81000012840F0DD803068DAF8141006
:1014C00020F0F80040EAC10030609AF80000000700
:1014D00031D5DAF8180080B101205946C1F88004EE
:1014E000FFF7C4FD0546386A10F0020F16D1FFF76A
:1014F000BDFD401B0228F6D99AE000205946C1F8EC
:101500008004FFF7B3FD0546386A10F0020F12D0D1
:10151000FFF7ACFD401B0228F6D989E07D484FF467
:10152000FA510068B0FBF1F0029000BF0298411E32
:1015300000280291F9D19AF80000400740F181801B
:10154000B86910F0805F0BD1B8694FF0010840F026
:101550008050B861B86900F080500190019801E0B6
:101560004FF000086C48305810F4807F12D16A4860
:10157000315841F480713150FFF778FD05466648D7
:10158000305810F4807F05D1FFF770FD401B6428B0
:10159000F5D94DE0DAF80C00E8B1012805D0F96979
:1015A000052830D141F00400F861F86940F00100ED
:1015B0002FE0002059460860FFF758FD05463068C7
:1015C00010F0020F3FF481AFFFF750FD411B0320E5
:1015D0000229F4D94FE0F86920F00100F861F869B8
:1015E00020F00400F861FFF741FD054641F288391B
:1015F000F86910F0020F1DD0FFF738FD411B0320E2
:101600004945F5D937E021F00100F861F86920F08B
:101610000400F861FFF72AFD054641F28834F869B5
:1016200010F0020F06D1FFF721FD401BA042F6D9B2
:10163000032020E0B8F1010F02BFB86920F080500C
:10164000B861DAF81C405946002C5AD0386800F0CE
:101650000C00082813D1012C0CD03868DAF82010BF
:1016600000F480328A4205D1DAF8241000F47010B8
:10167000884246D00120C0B203B0BDE8F08F002000
:101680000866FFF7F3FC0546022C0AD1306810F01B
:10169000007F11D0FFF7EAFC411B03200229F5D996
:1016A000E9E7306810F0007F2BD0FFF7DFFC411B2B
:1016B00003200229F5D9DEE7DAF82000B0F5803FF3
:1016C00006D13968DAF8082021F400311143396075
:1016D000396821F474110843DAF82410084338609B
:1016E0000120CBF86000FFF7C1FC0446306810F021
:1016F000007F06D1FFF7BAFC011B03200229F5D9B0
:10170000B9E70020B7E700BF001002400410024014
:10171000000042420C0000200060FEFF70B504464D
:1017200034B1606A30B10020206104F1140007E098
:1017300001264CE06068B0F5827F03D004F11C0004
:101740000021016000264FF0000CA66294F85100C1
:1017500038B9204684F8506000F03CF8A06A00F4E4
:10176000005C022184F8511021680A6822F04002CE
:101770000A60D4E90123D4E9030502F4827203F478
:10178000044300F400601A43104305F002021043C2
:10179000626902F001021043A26902F40073184367
:1017A000E36903F038031843236A03F08003184306
:1017B00040EA0C000860042000EA12404860C86952
:1017C00020F40060C8610120666584F8510030464D
:1017D00070BD000070B586B00026CDE90466CDE985
:1017E0000266194C006804F5105188422AD1EE486F
:1017F00002AD016841F480510160016801F480513B
:1018000001910199016841F00801016029460068D1
:1018100000F0080001900198282002900220039017
:10182000032005902046FFF73BFB10202946CDE919
:10183000020620460496FFF733FB04480168044A79
:101840001143016006B070BD000C0140040001406E
:10185000010000072DE9F84304461E4615460F46D1
:1018600094F85000012801D10220DAE0012084F828
:101870005000FFF7FBFB94F85110814601290BD073
:101880006068B0F5827F79D104294FF0020004BF6F
:10189000A168002940F0C2800120002F00F0BE8026
:1018A000002D00F0BB80002E00F0B88094F85100AD
:1018B000731EDDF82080B3FA83F35B0904281CBF94
:1018C000052084F8510000206065A563E687A6879F
:1018D0002763E686A686C4E910002068016811F037
:1018E000400F02BF016841F0400101606168E26899
:1018F000B1FA81F1B2F5006F4FEA511141EA0301EB
:101900003ED1012906D137F8021BC1602763E08E62
:101910000138E086012608F10105E08E18B9E08F54
:10192000002800F082802068816811F0020F0CD03E
:10193000E18E012E09D141B1216B002631F8022B35
:10194000C2602163E18E0139E186816811F0010FE7
:101950001CBFE18F002908D0C068A16B012621F8C7
:10196000020BA163E08F0138E087FFF77FFB002DBA
:10197000D3D0A0EB09004045CFD34BE002204DE08F
:10198000012907D139780173206B01302063E08E83
:101990000138E086012608F10105E08E10B9E08FDC
:1019A000002842D02068816811F0020F0ED0E18E2D
:1019B000012E0BD151B1216B002609780173206BE8
:1019C00001302063E08E0138E0862068816811F0E4
:1019D000010F1CBFE18F002909D0C068A16B01264F
:1019E0000870A06B0130A063E08F0138E087FFF73B
:1019F0003DFBA0EB0900294640454FF0000028BF01
:101A00000120002D18BF0121B8F1000F02D00840BD
:101A10000128C2D1012084F851000320002184F85C
:101A20005010C0B201B0BDE8F083204641464A469E
:101A300001F049F918B1202060650120EEE7A068A7
:101A400038B9002000902068C1680091806800903B
:101A50000098616D01200029E0D184F85100002038
:101A6000DCE70000411E0020B0EB116F1CBF01201D
:101A70007047044AF023516003490B7007219060BE
:101A80001160704710E000E023ED00E07047704700
:101A900090F83C300222012B28D080B5012380F839
:101AA0003C3080F83D2002685368D2F808C0B2F19B
:101AB000804F23F0700E0B6843EA0E035360BDE8BD
:101AC000804008D04C4B9A421CBF4C4B9A4202D0EB
:101AD0004B4B9A4204D149682CF080031943916022
:101AE0000121002280F83D1080F83C20D0B27047E0
:101AF00010B5044634B394F83D0028B9002084F8AA
:101B00003C00204600F020F80220211D84F83D0012
:101B1000206801F0E1F9012084F8460084F83E00D5
:101B200084F83F0084F8400084F8410084F84200C3
:101B300084F8430084F8440084F8450084F83D00AC
:101B4000002010BD012010BDE0B50168DC482C4A22
:101B5000914216D0294A914218BF8CBD01680022DB
:101B600041F4006101600021006800F40060019010
:101B700001981920FFF7E2FA1920BDE88C40FFF721
:101B8000CFBA4168002241F0040141600021406861
:101B900000F00400009000981E20FFF7CFFA1E20EE
:101BA000BDE88C40FFF7BCBA1810024090F83D1019
:101BB00001291CBF01207047022180F83D100068F8
:101BC000C168B0F1804F41F00101C16008D00A49FD
:101BD00088421CBF0949884202D00949884204D181
:101BE000816801F00701062903D0016841F0010175
:101BF00001600020704700BF00040040002C01403D
:101C00000008004010B50446022094F83C20012A48
:101C100070D001224FF6777384F83C2084F83D00A1
:101C2000206882689A4382600A6812B3102A20D022
:101C3000202A18BF302A1CD0402A21D0502A2BD06D
:101C4000602A35D0B2F5005F3ED0B2F5805F4AD051
:101C5000702A51D1D1E90123C9681A4342EA01210E
:101C6000826822F47F4211438160816841F07701EC
:101C700038E0816821F07701114341F0070131E03C
:101C80004B68CA68194601F011FA2068816821F092
:101C9000770141F0470125E04B68CA68194601F019
:101CA00005FA2068816821F0770141F0570119E0B9
:101CB0004B68CA68194601F00AFA2068816821F069
:101CC000770141F067010DE0D1E90123C9681A43AA
:101CD00042EA0121826822F47F42114381608168D7
:101CE00041F4804181600020012184F83D100021F1
:101CF00084F83C10C0B210BD0120F5E7704710B564
:101D000004462068016911F0020F1CBFC16811F080
:101D1000020F15D06FF00201016101212177806966
:101D200010F0030F03D02046FFF7E8FF05E0204640
:101D300000F0D0F8204600F05DF900202077206800
:101D4000016911F0040F1CBFC16811F0040F15D018
:101D50006FF00401016102212177806910F4407F56
:101D600003D02046FFF7CAFF05E0204600F0B2F896
:101D7000204600F03FF9002020772068016911F02B
:101D8000080F1CBFC16811F0080F15D06FF00801D3
:101D9000016104212177C06910F0030F03D02046B0
:101DA000FFF7ACFF05E0204600F094F8204600F075
:101DB00021F9002020772068016911F0100F1CBF65
:101DC000C16811F0100F15D06FF0100101610821EA
:101DD0002177C06910F4407F03D02046FFF78EFFC3
:101DE00005E0204600F076F8204600F003F90020D8
:101DF00020772068016911F0010F1CBFC16811F044
:101E0000010F06D06FF001010161204600F046F994
:101E10002068016911F0800F1CBFC16811F0800FAC
:101E200006D06FF0800101612046FFF72FFE206889
:101E3000016911F0400F1CBFC16811F0400F06D0BE
:101E40006FF040010161204600F03CF92068016913
:101E500011F0200F1CBFC16811F0200F00D110BD80
:101E60006FF0200101612046BDE81040FFF70FBE72
:101E7000FEB50021CDE90411CDE902110068B0F1F1
:101E8000804F1AD10E48016841F00801016002A993
:101E9000006800F00800019001984FF44060029043
:101EA0000220039005900748FEF7FAFF06480168F4
:101EB000064A1140064A1143016006B080BD00BFCA
:101EC00018100240000C014004000140FFFCFFF824
:101ED0000002000770470000B0B504460D4694F8B4
:101EE0003C00012801D1022041E04FEAB20101206B
:101EF000032984F83C0037D8DFE801F0020A1222F7
:101F00002068294601F020F8206850F8181F0EE0DC
:101F10002068294601F044F8206850F8181F16E0A0
:101F20002068294601F06CF8206850F81C1F41F029
:101F300008010160016821F00401016029690FE0D6
:101F40002068294601F08CF8206850F81C1F41F4E5
:101F500000610160016821F4806101602969090262
:101F60000268114301600020002184F83C10C0B2D7
:101F7000B0BD10B5044634B394F83D0028B9002034
:101F800084F83C00204600F021F80220211D84F84E
:101F90003D00206800F0A0FF012084F8460084F88E
:101FA0003E0084F83F0084F8400084F8410084F843
:101FB000420084F8430084F8440084F8450084F823
:101FC0003D00002010BD012010BD00000068B0F1F0
:101FD000804F18BF704781B00548016841F001018A
:101FE0000160006800F001000090009801B07047A7
:101FF0001C1002407047000039B10322082908BFB5
:102000000222042908BF012200E00022024492F8C3
:102010003E20012A1CBF01207047022241B108293D
:1020200009D0042914BF80F8412080F83F2004E043
:1020300080F83E2001E080F84020006801F01F0198
:10204000012202FA01F1026A8A430262026A114322
:1020500001620F49884202BF4A6C42F400424A645E
:10206000B0F1804F08D00B4988421CBF0849884214
:1020700002D00949884204D1816801F0070106298C
:1020800003D0016841F0010101600020704700BFEA
:10209000002C01400004004000080040064988422E
:1020A00018BF70470548007810B1044802F014B812
:1020B000034802F0DBBC00BF48060020D40100202A
:1020C000D80600207047704770470000F8B50446F6
:1020D00020680168C268456901F02F0602F02003FC
:1020E000202E05D123B12046BDE8F84001F0B5B857
:1020F0005FEA017C08D005F0010E12F4907F8EF0AB
:10210000010559D1002D57D01140CA06226B3DD58B
:10211000012A3BD1002100910168009141680091A2
:102120000099416911F0400F40F0A580A18DE28D2A
:10213000E38D002B00F00F81891A89B209B90AE1F9
:10214000206850E8030F226820F4907042E80303EF
:10215000002BF5D1206850E8050F226820F001001F
:1021600042E80503002BF5D1202084F8420000202E
:102170002063206850E8030F226820F0100042E836
:102180000303002BF5D102206063B8E00A0640F19A
:10219000BB8094F84110212940F0DD80A168B1F5A1
:1021A000805F04BF2169002900F0C780216A4A1CB2
:1021B000226209784160C7E0CE0706D012F480762B
:1021C0001EBF666C46F00106666401F00407012636
:1021D00086EA97072F4302BF676C47F002076764E0
:1021E00001F0020786EA5706354302BF656C45F0E9
:1021F0000405656453EA0E0318BF0123BCF1000F08
:1022000005D5012B02BF636C43F008036364636C64
:10221000002B00F0A0801140890603D5204601F074
:102220001CF820684069616C00F0400001F0080172
:1022300008437CD0204600F0DBFF2068416911F0A4
:10224000400F01D16EE0206850E8050F216820F0B2
:10225000400041E80502002AF5D1E06B002861D07A
:1022600042494163FEF7F2FB002874D0E06B416BFA
:10227000BDE8F8400847E26B11684B689EB2002E3B
:1022800069D0A18D8E4266D2E3859269202A01D160
:1022900030E0206850E8030F216820F4807041E8A6
:1022A0000302002AF5D1206850E8050F216820F0CC
:1022B000010041E80502002AF5D1206850E8050F29
:1022C000216820F0400041E80502002AF5D12020D5
:1022D00084F8420000202063206850E8030F216842
:1022E00020F0100041E80302002AF5D1E06BFEF770
:1022F0008DFBA18D02206063E08D081A81B220461B
:10230000BDE8F840FFF7DFBE490624D5C16821F0DB
:102310004001C160202084F841002046BDE8F8401B
:1023200000F0F3B82046BDE8F840FFF7CDBE2046E8
:10233000FFF7CAFE00206064F8BD216A31F8022B65
:102340006FF35F2242602162E18C4FF6FF72013928
:102350001142E18400D0F8BDC16821F08001C16064
:10236000C16841F04001C160F8BD00BFF330000812
:1023700010B504464CB394F8410028B9002084F805
:102380004000204600F024F8242084F84100206812
:10239000C16821F40051C160204600F0C3FF2068ED
:1023A000016921F490410161416921F02A014161F3
:1023B000C16841F40051C16000202021606484F8AC
:1023C000411084F84210606310BD012010BD000070
:1023D0002DE9F04385B000270446CDE90377CDE928
:1023E0000177334D216805F5305081425CD1864834
:1023F00001AE016841F480410160016801F480414F
:1024000000910099016841F00801016031460068BF
:1024100000F00800009000984020019002200290F7
:10242000032004902846FEF73BFD4FF08008284625
:102430003146CDE901870397FEF732FD1D48204D57
:102440004FF4805901681C4A114301601B4E06F18C
:102450001400C5E900072846C5E90278C5E90477F4
:10246000C5E90679FEF7D8FB08B1FDF782FFE56301
:102470006C62144D10200021C5E900602846C5E9B2
:102480000218C5E90411C5E90619FEF7C5FB08B134
:10249000FDF76FFF252000210022A5636C62FEF787
:1024A0004DFE2520FEF73CFE05B0BDE8F08300BFE1
:1024B000000C0140040001400400000744000240F9
:1024C000A00000203001002010B590F84230202BF1
:1024D00007D1012431B12AB10024046300F064FF64
:1024E00000E00224E0B210BD0548064980220068E1
:1024F0004068C0F180000870E648E749FFF7E4BF94
:10250000A0000020C808002070477047FEE70000C8
:1025100010B50D480D49042200234FF4802C4FF4D0
:10252000001E4FF4803480E80E0000F10C0181E8B9
:10253000085084618383FEF75AF918B1BDE8104052
:10254000FDF717BF10BD00BF380500200064004034
:10255000E0B50E480022016841F001010160002150
:10256000006800F00100019001980E20FEF7E6FDE2
:102570000E20FEF7D5FD0F2000210022FEF7DEFD24
:102580000F20BDE88C40FEF7CBBD00BF1410024009
:102590007FB51D4800223C250026016841F020013E
:1025A0000160016801F0200100910099016841F08B
:1025B00004010160016801F00401009100990168C3
:1025C00041F0080101603C21006800F00800009023
:1025D00000980E4C2046FEF743FD012000956D4605
:1025E000CDE901060320294603902046FEF758FC5A
:1025F00041F204002946CDE9000604F58060029608
:10260000FEF74EFC7FBD00BF1810024000080140DD
:1026100070B50F480F494FF4827200234FF4006CDD
:102620004FF0020E01244FF40075102680E80E5082
:1026300000F1140170C1C0E908330A21C0E90A3170
:10264000FFF76CF818B1BDE87040FDF792BE70BDA1
:102650006005002000300140FEB500218748472377
:1026600040F2F31CCDE90411CDE90211CDE90011CE
:10267000114AC0E90023C0E9021CC0E904118161CC
:10268000FFF736FA08B1FDF774FE4FF4805002A947
:1026900002907A48FFF7B6FA08B1FDF76AFE00200B
:1026A0006946CDE900007548FFF7F2F908B1FDF77A
:1026B00060FE06B080BD00BF002C014010B58AB09E
:1026C000002401A81C21CDE90844FDF7A1FD6D48B7
:1026D0004FF0804140F2FF32C0E90014C0E90242ED
:1026E00004618461FFF745FC08B1FDF742FE6548CF
:1026F00008A9CDE90844FFF7CBF908B1FDF739FE89
:10270000602001A9082201900020CDE90200059077
:102710005C48FFF7E1FB08B1FDF72BFE594801A922
:102720000C22FFF7D9FB08B1FDF723FE5548FFF750
:102730009FFB0AB010BD00BFFEB5002150484723E3
:102740004FF0310CCDE90411CDE90211CDE90011B2
:10275000104AC0E90023C0E9021C01618161FFF752
:10276000C7F908B1FDF705FE4FF4805002A90290A9
:102770004348FFF747FA08B1FDF7FBFD0020694623
:10278000CDE900003E48FFF783F908B1FDF7F1FD00
:1027900006B080BD0008004080B53E480A494FF4AD
:1027A000E13200234FF00C0C80E80E00C0E9033347
:1027B000C0E905C3C361FFF7DBFD18B1BDE8804088
:1027C000FDF7D7BD80BD00BF003801402DE9F041C5
:1027D0002A48FFF7EBF92A48FFF7E8F9294C0821C6
:1027E0002046FFF709FC20460C21FFF705FC274E89
:1027F000254C4FF001080027304684F800802772EE
:102800006772E760C4E9D677C4F8607300F0CEFE63
:102810001F4DD5F8400101F007FF1E481E498022D8
:10282000FFF752FE2846314601F036FFA8681B4AE2
:102830004FF47A714FF49673FA26C0EB001082F8C9
:102840000080C2E90177C2F80C80116102F1240C0A
:10285000400050614FF4FA6011499161D061C82085
:1028600010625020ACE8490005F1A400178601F081
:10287000C6F8204601F0D2F9FBE700BFB8050020FA
:102880004806002000060020D40100208408002013
:10289000D806002090060020C9080020A0010020D2
:1028A00040420F00FEE7FEE72DE9FC410C46411EC9
:1028B000232933D8DFE811F024003C0040005B00FE
:1028C0007A008901AC00D101D101D101D101D1013E
:1028D000D101D101D101D101E600EB00F7000B01DC
:1028E0002701380142014901BA015001C101D1015A
:1028F000D101D101D101D101D301570169017B017E
:10290000DFF8B803002100680128DFF8AC0B08BF2E
:102910000221D0F840010171BDE8FC817E2800F061
:10292000C3817F2840F09981FEF742FCBDE8FC811D
:10293000DFF8900B01218FE1DFF87C5BD5F8404197
:102940006079032805D02046032101F0A6FCD5F8C4
:102950004041DFF868030068D24902F0C9FD02F087
:102960002BFD0146204601F055FDBDE8FC81D14D0F
:10297000D5F840416079022808D0CD48022140694D
:10298000A861204601F089FCD5F84041A86802F012
:102990002FFD0146C948006802F0AAFD02F00CFDB7
:1029A0000146204601F05DFDBDE8FC81C14ED6F830
:1029B00040516879012808D0BD4801214069B061C3
:1029C000284601F06AFCD6F84051B06802F010FDCC
:1029D0000146BA48006802F08BFD02F0EDFC0146AA
:1029E000284601F039FD2079002800F03681D6F81C
:1029F00040010021002501F02BFC019001A802E01C
:102A0000415D61550135042DFAD1D6F840010AE146
:102A1000DFF8A48AD8F840516879012809D0A44881
:102A200001214069C8F81800284601F036FCD8F8A2
:102A30004051D8F8080002F0DBFCA04F06463146B2
:102A4000786802F055FD02F0B7FCC8F81800386845
:102A5000314602F04DFD02F0AFFC0146284601F080
:102A6000FBFCD8F840010021002501F0F1FB0190AA
:102A700001A802E0415D61550135042DFAD1D8F875
:102A80004001D0E08D48016889484160E1E08B4811
:102A900000688B4902F02CFD02F08EFC85494861EC
:102AA000834908610DE0834DA86802F0A1FC01464E
:102AB0008248006802F01CFD02F07EFC7C49A8619F
:102AC00048612079002808BFBDE8FC8128E0794EE4
:102AD000B06802F08DFC01467848006802F008FDFD
:102AE000019002F069FC054606F1A4002946F56153
:102AF00000F085FF06F1B800294600F014FFF169E7
:102B00006B488161A5E06B4CD4F8400101F0B3FC47
:102B1000D4E9020191FBF0F202FB101064498860D5
:102B200002200870BDE8FC81644800680138B0FAF2
:102B300080F041095E4880F830108AE05F48016803
:102B40005C4841655A48016283E05C480168594825
:102B50008165574841627CE05848016855480166E4
:102B60005348C16275E0534DD5F8400101F087FB31
:102B70000190002001A902E00A5C225401300428DF
:102B8000FAD1D5F8400122217AE04A4D00210026F1
:102B9000D5F8400101F05CFB019001A802E0815DE5
:102BA000A1550136042EFAD1D5F840013BE0414849
:102BB0006946C0680090002002E00A5C225401309F
:102BC0000428FAD13A48242161E03A4FD7F840511D
:102BD0006879012805D02846012101F05EFBD7F86D
:102BE0004051B86802F004FC344A0146D2E90006BC
:102BF00002F07EFC02F0E0FB01462846324601F07E
:102C0000B1FC207948B3D7F840010021002501F03C
:102C10001FFB019001A802E0415D61550135042DC3
:102C2000FAD1D7F84001807923212AE023480168AE
:102C30002048C1651E4881620BE0204800680138C9
:102C4000B0FA80F041091B4880F88410184880F8D9
:102C50003110217909B102210170BDE8FC81154DC7
:102C6000D5F8400101F01EFB0190002001A902E00F
:102C70000A5C225401300428FAD1D5F84001212100
:102C800080790138B0FA80F0400920710848406826
:102C900041EAC01108480160214600F019FCBDE876
:102CA000FC8100BF00007A4401480021D4E700BF46
:102CB000A0010020D8060020200000207401002080
:102CC00000007A44704710B513460A468021044636
:102CD00000F00AF828B1606D40F020006065032024
:102CE00000E00020C0B210BD2DE9FC411E46174691
:102CF0000D468046FEF7BAF9301AC419FEF7B6F948
:102D00000646264801370068C0F3CB306043019087
:102D100006E00198019901390028019108BF044695
:102D2000D8F8000081682940A94232D1002FF9D09B
:102D3000FEF79CF9801BA042EBD3D8F80000416855
:102D400021F0E0014160D8F80410B1F5827F0BD189
:102D5000D8F80810B1F5004F18BFB1F5806F03D156
:102D6000016821F040010160D8F82810B1F5005F3A
:102D700007D1016821F400510160016841F400515C
:102D80000160012088F85100002088F850000320DD
:102D900000E00020C0B202B0BDE8F0810C000020CD
:102DA000704710B50446FEF765F82068E06010BD76
:102DB0002DE9F04786B00446FEF75CF84FF00008B6
:102DC0004FF001090DF1080A01AE0027002515E0BA
:102DD000CDF80880314620683844CDE904095046D2
:102DE000FDF78CFF4FF0FF30FDF7F2FA074807F5CB
:102DF00080670135016821F002010160A068854209
:102E0000E6D3FDF7D7FF06B0BDE8F08710200240FB
:102E1000FDF7D0BF70B506460D4614463068F16820
:102E2000814205D3726801EB44011044814200D90C
:102E300070BD002C08BF70BD2A88F16801200023F6
:102E4000FDF7C0FF10B9F0680230F0600235013CB8
:102E5000EFE7FEF70FB9B0B590B0002401A8142138
:102E6000CDE90B44CDE90944FDF7D2F901204FF437
:102E7000803102250690CDE907140A904FF48010A6
:102E8000CDE90D510F9006A8FEF788FA18B1EFF3BF
:102E9000108072B6FEE70F200221CDE901054FF444
:102EA00080600394CDE9040401A8FEF793F918B1FA
:102EB000EFF3108072B6FEE710B0B0BD70470000AF
:102EC0000148FEF71CBF00BFB80500200148FEF70F
:102ED00016BF00BF4806002010B50368724AB0F163
:102EE000804F08D0164CA0421CBF6F4CA04202D0AD
:102EF000144CA04203D14C6823F070032343B0F17B
:102F0000804F08D00E4CA0421CBF674CA04202D09C
:102F10000C4CA04203D1CC6823F4407323434C698A
:102F200023F08003904243EA040303608B68C3628A
:102F30000B68836204BF096911630121416110BDFF
:102F4000000400400008004070B5026A036A23F0E4
:102F5000010322F002020362D0F804E0D0F818C0A6
:102F60008C680B6822432CF0730444EA030C4E4B2C
:102F700098420CD1CE68D1E905452EF4407322F079
:102F80000C02234343EA050E26F004031A43C0F85B
:102F900004E0C0F818C049684163026270BD00BF18
:102FA00070B5026A036A23F0100322F02002036264
:102FB000D0F804E0D0F818C08C680B6842EA04121C
:102FC0002CF4E64444EA032C374B98420FD1CE68E8
:102FD000D1E905452EF4406322F0C00243EA8403A0
:102FE00043EA850E6FF04F0303EA06131A43C0F855
:102FF00004E0C0F818C049688163026270BD00BF78
:1030000070B5026A036A23F4807322F400720362CB
:10301000D0F804E0D0F81CC08C680B6842EA0422A7
:103020002CF0730444EA030C1F4B98420FD1CE6876
:10303000D1E905452EF4405322F4406243EA0413DB
:1030400040F2FF4443EA051E3302A3431A43C0F88B
:1030500004E0C0F81CC04968C163026270BD00BFD3
:10306000B0B5026A036A23F4805322F4005203626B
:10307000D0F804E0C5698B680C6842EA033C0A4B4F
:1030800025F4E64242EA0422984202BF4B692EF43C
:10309000804545EA831EC0F804E0C26149680164C6
:1030A000C0F820C0B0BD00BF002C0140D0F820C047
:1030B000036A23F001030362836923F0F00343EA08
:1030C000021282612CF00A02114301627047D0F8AB
:1030D00020C0036A23F010030362836923F4704362
:1030E00043EA023282612CF0A00242EA011101623D
:1030F0007047406A0021C185C184FEF7E5BF10B565
:10310000446A2068416994F84120212A08D111F0CD
:10311000800105D00020E084204600F090F820686F
:10312000406994F84210222907D110F0400004D0E1
:103130000020E085204600F05BF8606C40F0100055
:1031400060642046BDE81040FEF7BEBF0168406ADB
:10315000096811F0200F32D10021C185016851E8C2
:10316000031F026821F4807142E80313002BF5D19C
:10317000016851E8051F026821F0010142E80513CA
:10318000002BF5D1016851E8051F026821F04001CC
:1031900042E80513002BF5D12021844680F8421027
:1031A0005CF8302F012A0CD1026852E8032F036823
:1031B00022F0100243E803210029F5D101E000F1DB
:1031C000300C00214163DCF80010012918BFFFF723
:1031D0008BB9818DFEF777BF406A01214163016B96
:1031E000012918BFFFF790B9818D4908FEF76BBF21
:1031F000016851E8031F026821F4907142E803134B
:10320000002BF5D1016851E8051F026821F001018A
:1032100042E80513002BF5D1016B012909D10168A2
:1032200051E8031F026821F0100142E80313002B4C
:10323000F5D1202180F84210002101637047016818
:1032400051E8031F026821F0C00142E80313002B7C
:10325000F5D1202180F84110704790F842102229C2
:1032600018BF70478368B3F5805F06D1026900F12B
:103270002801A2B1D1F800C008E00146002B51F8A6
:1032800028CF01D103690BB17F2300E0FF2302683F
:1032900052681A4001238CF800200A6806E003688F
:1032A000826A5B686FF35F23138002231A440A600B
:1032B0004FF6FF72C18D01391142C18500D07047B0
:1032C0000168CA6822F02002CA60CA6822F48072CB
:1032D000CA604A6922F001024A61202280F8422035
:1032E00000224263036B012B18BFFFF7FDB8026396
:1032F00051E8031F026821F0100142E8031301683E
:10330000002BF5D10A6812F0100F08D081B000220E
:1033100000920A68009249680091009901B0818D7D
:10332000FEF7D1BE10B5044620680169E26821F4B9
:103330004051114341F20C620161D4F808C0D4E954
:1033400004E3C16891434EEA0C021A431143C16081
:103350004169A26921F440711143416111498842D8
:1033600002D0FDF7D1FF01E0FDF7D8FF1921484356
:10337000D4E900126FF063049200B0FBF2F0642213
:10338000B0FBF2F303FB0400322404EB0010B0FBAB
:10339000F2F000F0F00200F00F0002EB0312104315
:1033A000886010BD00380140BCB513460A4604468B
:1033B000002522201D49A262A385656484F842008D
:1033C000E06B81621A49C1621A49C0E90C15216893
:1033D0000431FDF75BFC01952068016801914168AB
:1033E00001910199216909B909E0206850E8030FAA
:1033F000216840F4807041E80302002AF5D120687A
:1034000050E8050F216840F0010041E80502002A5C
:10341000F5D1206850E8050F216840F0400041E8F0
:103420000502002AF5D1002002B0B0BD4D310008E0
:10343000D9310008FF3000080148FEF747BE00BF41
:10344000900600202948FDF7CFB800BF2748FDF7B8
:10345000CBB800BFFEE7000010B5174801F012FB23
:1034600016484FF480410024016084720472446065
:1034700013494161134840F246311230FCF7A6FE71
:1034800011480121042301714FF47A714471C0E99C
:10349000024401610D4A426103830223C46180F842
:1034A000203080F82140C0E90944C0E90B124FF4F4
:1034B00080518186846310BDD806002084080020D6
:1034C000007C0108D4010020F0000020000C014025
:1034D00080B50A4601460548054BFCF7A9FF18B11F
:1034E000BDE88040FCF745BF80BD00BF3805002027
:1034F00098010020F8B504461E4800250126002743
:10350000A06120E0218B00F039F8A083618B00F0EE
:1035100035F8E083C0B20022A18B40EA01210020EF
:10352000A18189B284F8200007E006FA02F3013293
:103530000B421CBF013084F82000102AF5D1C007CF
:1035400007D065740137F8B20228DBD9607C10B966
:1035500007E001206074A0898108E181C0F3400088
:103560002074E089A080616931F81000E08001B02A
:10357000F0BD00BF00830084007A7047BCB5ADF891
:1035800006104FF400454FF0FF300DF1060101AA7F
:103590000123534C656000900348FEF75BF92560FA
:1035A000BDF8040002B0B0BD6005002080B5012167
:1035B0004FF0000C4FF6FF7E00220172016891422D
:1035C00008BF80BD436933F812300132734508BF2C
:1035D00080F808C0F3E700002DE9F843364B0546B4
:1035E00001F580706FF39F216FF39F202980E880A1
:1035F00033F9109033F911801046A5F80890A5F81A
:10360000028001F080FB21F0004101F04FFB41F20C
:10361000DB314843C0F30B3001F08CFB07464846D2
:103620000C4601F070FB21F000413A46234601F0C0
:103630000DFC01F03BFB0646300B6881404601F073
:1036400062FB21F000413A46234601F0FFFB01F006
:103650002DFB2D4A010BB9F1000F4FF02003A9807B
:10366000C6F38D3112681164C0F38D30D0631C48ED
:1036700000F104010246B8BF0A46C4BF40F610027A
:10368000C4F20102136002464FF01003C8BF0A469D
:10369000B8F1000F136002464FF00803B8BF0A46A6
:1036A000C4BF40F61002C4F201021360C8BF08464E
:1036B00004210160BDE8F8839A5800080021418187
:1036C0008180114800680164C163202104480160C1
:1036D000102101600821016004210160704700BFD2
:1036E0001008014000214181818007480068016481
:1036F000C16320210548016010210160082101609B
:1037000004210160704700BF00060020140801403A
:1037100010B50446C4F8B410E068D0F8B4004069AD
:103720002061206AD0F8B4000069606204F13000C2
:1037300000F021F9D4F88400D0F8B4000069C4F88E
:103740008800C820C4F8940010BD70B504460D462A
:103750002669A81B20D0012809DBA168204600F0BB
:103760001FF82069002E0DDBA84213DA16E0A068CE
:103770004142204600F014F82069002E08DD0028A0
:103780000CDC01E0002809DB0020E060206105E09E
:10379000A84203DC0020E06025612846206070BD5F
:1037A0004268D0E9033C1268194491FBF2F39C444F
:1037B00003FB1211C0E9031C70470022C0E903217A
:1037C00070472DE9F8430446A06A256A0E1A38D0DE
:1037D000002D41D0012EA8BF012D48DBA068D0F8F4
:1037E000B400D0F80C904D4552DC284601F000FEA4
:1037F000014601F07DFE616901F07AFE01F0DCFD19
:103800000746304601F07FFA804638460E4601F002
:103810007AFA02460B4626F00041404601F092FC3F
:10382000B0BB4D453FDAE168204600F097F8A0684C
:10383000216AD0F8B400C068814234DB0021E16124
:1038400030E0A06941428D420EDB85420CDC002055
:10385000C4E90700606226E0E168012E2046B8BF97
:10386000494200F07BF81EE0012D11DA02E0B6F1CA
:10387000FF3F0ADDB5F1FF3F15DC2169204600F06E
:103880006DF8206A00280BDA0DE0B5F1FF3F14DD7A
:1038900020694142204600F061F8206A002802DCDD
:1038A0000020E0612062216A204600F04AF8A06A08
:1038B0002060206A6060BDE8F883A068D0F8B4009A
:1038C000C068C0F100094D45D7DB284601F090FDE6
:1038D000014601F00DFE616901F00AFE01F06CFD88
:1038E0000746304601F00FFA804638460E4601F092
:1038F0000AFA02460B4626F00041404601F022FC3F
:103900000028BAD14D45CEDDE0684142204600F0A6
:1039100025F8A068216AD0F8B400C068404281420E
:103920007FF78CAFBFE710B504460846C4E9031122
:1039300001F05EFD01464FF07C5001F047FC6061F4
:1039400010BD8268D0E9093C1268194491FBF2F37A
:103950009C4403FB1211C0E9091C70478268D0E93E
:10396000073C1268194491FBF2F39C4403FB1211CB
:10397000C0E9071C704710B50446A068D0F8B40031
:1039800001692046FFF7CFFFA0684FF47A71D0F8A5
:10399000B400006990FBF1F0A06110BD0023C0E904
:1039A0000732C0E90931704770B504460D462669F3
:1039B000A81B20D0012809DBA168204600F021F8CF
:1039C0002069002E0DDBA84213DA16E0A068414200
:1039D000204600F016F82069002E08DD00280CDCD7
:1039E00001E0002809DB0020E060206105E0A8423A
:1039F00003DC0020E06025612846206070BD816006
:103A000070474268D0E9033C1268194491FBF2F315
:103A10009C4403FB1211C0E9031C70470022C0E95B
:103A2000032170472DE9F047044616460D46206AEB
:103A3000B04204BF606AA84232D04FF00008C4F818
:103A40001480C4E90865E76AD4F834A0B81901F015
:103A5000CFFC8146F01B01F0CBFC0146484601F04B
:103A600047FD0646A5EB0A00400001F0C1FC0146F7
:103A7000304601F0ABFB01F09FFC206184F81C8014
:103A80002169204600F045F8254655F82C1F2046B0
:103A900000F032F8606B206028686060BDE8F08755
:103AA000D4E905014FF47A725143884206DAA168DD
:103AB000496808446061207F10B9E1E70120207760
:103AC000254655F82C0F50B1E16801280ADB494220
:103AD000204600F01EF8E16A0029D8DC08E0002149
:103AE000A162D4E7204600F014F8E16A0029CEDB99
:103AF0000021A162E162CAE78268D0E90C3C126849
:103B0000194491FBF2F39C4403FB1211C0E90C1C15
:103B100070478268D0E90A3C1268194491FBF2F3BD
:103B20009C4403FB1211C0E90A1C70470023436147
:103B30000377C0E90A32C0E90C31704780B5C2682A
:103B4000C0E90312A1EB020C8368D0E906E21B680E
:103B5000C2EB821203FB0C22724422F03F034FEAB5
:103B6000A21CD21AC0F81CC0C0E90512C0E9001C92
:103B700080BDC0E903114161C2617047B0B5044620
:103B800044F620603221002584E8230004F124005B
:103B90001421C4E90345C4E90555C4E90754FCF7F9
:103BA00037FB04F13C002821A463FCF731FB04F14E
:103BB00068001C216466FCF72BFBC820C4E9214582
:103BC000C4E923551C21C4F8940004F19C0084F836
:103BD0009850FCF71DFB2046B0BD2DE9F0410D4685
:103BE00006461446701B01F08EF86410804621F0E2
:103BF0000047204601F087F802460B46404639460A
:103C000001F0A0FA0146A819401029B9A042A4BFAA
:103C1000001BBDE8F0812044BDE8F0812DE9F84F9C
:103C20000446607A062818BFBDE8F88F9B48FFF766
:103C300059FD204600F060F9207A002840F02281EA
:103C4000974D0020C4F860032846FFF7B1F82846D6
:103C5000FFF7A7F8217CD4F85803002900F08080F2
:103C600004F134014FF4484A8346009171E001F1B8
:103C7000C802C826009D01F1010BB2FBF6F303FB5D
:103C8000162201F1C903B3FBF6F707FB163335F82B
:103C9000122035F813309D1A824A1268B5EB620F74
:103CA000C2F10003C8BFAD1AB5EB630FB8BF15442E
:103CB00081421BD1D4F85C830AEB00264FEA082925
:103CC00011E099FBF5F03044B0FBFAF101FB1A0169
:103CD00000F0F6F9D4F8600309F5807908F10108DD
:103CE0000130C4F86003A845EBDB30E0C8300AEBD4
:103CF000012800260027814211D026E096FBF5F02E
:103D00004044B0FBFAF101FB1A0100F0D9F9D4F8F4
:103D1000600306F5807601370130C4F86003D4F8FB
:103D20005C038742EADB12E096FBF5F04044B0FB0F
:103D3000FAF101FB1A0100F0C3F9D4F8600306F5AB
:103D4000807601370130C4F86003AF42ECDBD4F871
:103D50005803594600F1C9029142FFF688AF81E04D
:103D600004F1340100F1C80B4FF4484A009176E0A9
:103D70000BF1C901C827009EB1FBF7F202FB171136
:103D80000BF1C802B2FBF7F303FB172236F8111050
:103D900036F81220571AC9490968B7EB610FC1F10B
:103DA0000002C8BF7F1AB7EB620F00F1C802B8BFAC
:103DB0000F440BF1010193451BD1D4F85C830AEB4E
:103DC00001254FEA082911E099FBF7F0281AB0FB0A
:103DD000FAF101FB1A0100F073F9D4F8600309F558
:103DE000807908F101080130C4F86003B845EBDBC5
:103DF00031E00AEB012800250026834512D028E097
:103E000095FBF7F0A8EB0000B0FBFAF101FB1A01FB
:103E100000F056F9D4F8600305F5807501360130DD
:103E2000C4F86003D4F85C038642E9DB13E095FB39
:103E3000F7F0A8EB0000B0FBFAF101FB1A0100F06B
:103E40003FF9D4F8600305F5807501360130C4F8F8
:103E50006003BE42EBDBD4F85803ABF1010B8345A2
:103E6000BFF686AF9B48FEF7D3FFF748D4F8602330
:103E700001688A4204D1217A21B90121017207E047
:103E800004202072F048002101729248FEF790FF52
:103E9000002060722070BDE8F88F00BF4A09002042
:103EA00010000020840800202DE9F043B0F800E065
:103EB000C2F100094FEA620C01254FEA6908764613
:103EC0000EE030F815704B460135A7EB0E04644543
:103ED000D8BF0023444506EB0704B8BF1346E618D5
:103EE0008D42EED396FBF1F10029B8BF1144881A38
:103EF000D8BF0846BDE8F0832DE9F04F87B00446EF
:103F0000D1480026056809E004EB46072A46B7F8C1
:103F1000C611B88EFFF761FEB8860136C92EF3D1FF
:103F2000B4F8C201A68E311A6842B1EB650FC8BF62
:103F3000491BB1EB600FB8BF29440029069100F07E
:103F40008B804FEA60004FEA650104904FF000005B
:103F50000591C8BF01202074C82095FBF0F000EB4C
:103F6000400000EBD070401000F0CDFECDE9021013
:103F70004FF4C87095FBF0F000F0C5FE4FF01B0A3F
:103F80004FF00209CDE900102FE034F81AB0B0B2BA
:103F9000ABEB000605988642C8BF761B04988642A4
:103FA000B8BF2E44304600F0AEFEDDE9023221F00B
:103FB00000480746414601F0B7F800284ED1DDE938
:103FC00000323846414601F0C4F8002846D1002EA0
:103FD00042D0012E03DB0698002803DC3CE0069863
:103FE000002839DC0AF1010A5E46AAF11A00C72846
:103FF000CBD90698A5F1010C002834DD4FF0000E56
:10400000C82204F1340300271EE007F1C80607F1B7
:10401000C9000137B6FBF2F5B0FBF2F105FB126601
:1040200001FB120033F8165033F81000A8420BD2EF
:10403000791E03EB46000EF1010EC4F858130088F8
:10404000ACEB0000C4F85C03C72FDED9BEF1010F52
:1040500031D14FF0000901E04FF0010984F80890D8
:1040600007B0BDE8F08F0021C82204F13403002717
:104070001DE007F1C900B0FBF2F606FB120607F1DE
:10408000C8000137B0FBF2F505FB120033F81650FB
:1040900033F8100085420AD903EB46007E1E013139
:1040A000C4F858630088ACEB0000C4F85C03C72F69
:1040B000DFD90129CDD04FF00309CFE784080020D4
:1040C000E0B50448ADF806100DF106010122FEF737
:1040D000A1FE8CBD1000002070B55B4D0446284643
:1040E000FFF708FA59480178D9B1607A062800F23A
:1040F000A280DFE800F01B042E586674A100E0687F
:104100004FF47A72811CD348E160FFF765FAE068EA
:10411000B0F5C83F40F08F804FF44840E060022087
:1041200088E000216172012121700170207800284F
:1041300000F08180E168C7484FF47A72FFF74CFACB
:104140004FF44840E060002060824FF4807020818E
:1041500070BDE66816F0FF0F17D1618AA8884A1C67
:1041600004EB41016282888290B210280FD12A6844
:1041700004F114001021FFF797FEA6F54841090A43
:1041800004EB41018886002060820136E660B14878
:1041900031464FF47A72FFF71FFAE068B0F5C83F76
:1041A00049D9032046E0E0684FF47A72411CA948DF
:1041B000E160FFF711FAE068B0F5D23F3BD104208F
:1041C00038E0E0684FF47A72411EA248E160FFF7E0
:1041D00003FAE068B0F5C83F2DD105202AE0E66873
:1041E00016F0FF0F18D1618AA8884A1C04EB410120
:1041F0006282888290B2102810D12A6804F11400DB
:104200001021FFF751FEA6F54841090A04EB4101D0
:10421000A1F8C60100206082013EE6608D4831466B
:104220004FF47A72FFF7D8F9E068C00A182888BFFF
:1042300070BD0620607270BD864800210022BDE876
:104240007040FFF7C9B900BF840800209C0100201E
:10425000B0B500F11402002918BF00F10C0280680B
:104260001168D0E90240081A01F0C2F8054620465C
:1042700001F0BEF80146284600F0A8FFB0BDB0B579
:104280008568C06901F0B4F80446A86801F0B0F888
:104290000146204600F09AFFB0BD017170470160F1
:1042A0007047000080B5006B01F0A2F8014900F0F2
:1042B0008DFF80BD00007A4470B5856A0368A1EB6C
:1042C000050CC3F840C0BCF5486F284C02DD4FF424
:1042D000486C04E026498C4503DC04F5487CC3F8AF
:1042E00040C0C169511ACE11B6F57A6F5E6402DD25
:1042F0004FF47A6402E01F498E4201DC26465C647A
:10430000196B0CFB01FEC3F848E0D3E90D125C6D9C
:1043100002FB0CF206FB0121214421F07F04CA11AB
:104320000C1BC3E91542DA6C02EBE114DC64816812
:104330004A699102B4EB822F02DC49428C4201DAD5
:104340000C46D964D96B06FB01F506FB01E121445B
:104350001D6589129142D96502DC5242914201DA0F
:104360001146DA65BDE8704000F060B860F0FFFF0C
:104370007FF3FFFF5FF0FFFF0268D2F810C0C2F8C2
:1043800014C0C369C91AB1F5801F116102DD4FF471
:10439000801104E01E4B11F5801F01DA19461161EE
:1043A00070B5536840F2FF3501FB03FEC2F818E018
:1043B0009368546A03FB014323EA05059C125D1BC5
:1043C000C2E90954D46904EBA324D46183685E690B
:1043D000B502B4EB862F02DC6D42AC4201DA2C460A
:1043E000D561D568A1EB0C0101FB05F301FB05E1EB
:1043F000214413628912B142D16202DC7642B14299
:1044000001DA3146D662BDE8704000F00FB800BF57
:104410000000F0FF826852698A4201DA114603E027
:1044200052428A42C8BF1146C16370470A460263BE
:10443000012A816A03DB83685B68194405E0B2F1F5
:10444000FF3FDEBF83685B68C91A41650148FFF71B
:10445000C3B800BF4A0900208268D2681144416392
:1044600070478268926953428B42C8BF70478A4244
:10447000A8BF81637047816840698A6890FBF2F346
:1044800003FB1200C8607047B0F1FF3F04DD26490E
:10449000884206DA002033E0294988420BDD0021FA
:1044A0003BE02249884210DC24494FF4837200FB30
:1044B0000210001524E02349884210DB27494FF4FD
:1044C000837200FB0210011527E0194988420FDCB6
:1044D0001949692200FB02104FF496710EE01A4947
:1044E000884213DB1B49692200FB02101A4912E0C3
:1044F0001049342200FB02104FF4C37101EB20502D
:10450000B0F5D77FA8BF4FF4D77070470F4934225A
:1045100000FB02100E4901EB2051114811F5D77F25
:10452000C8BF0846704700BFA08601001FD6130011
:10453000BF91210000652EF9E02CDDF7403870FEB8
:104540006079FEFFE129ECFF416EDEFF009BD106A2
:104550007AFEFFFF20D32208D4FEFFFFC0C78F01E1
:1045600052FEFFFF2DE9F84F824693460A46DAF8DD
:104570000850DAF814000092D5F80C80EE69081A99
:10458000404400F0C0FB21F0004100F05FFB074613
:10459000304600F02DFF5946064600F0A9FF594667
:1045A000814600F0A5FF4FF07A5100F0A1FF0446CC
:1045B000384600F01DFF07462046394600F0E5FD6D
:1045C00018B934480021406923E05846594600F0A4
:1045D0008FFF14490446384600F08AFF314600F048
:1045E000F5FD0146204600F02FFD00F0D0FA3146DF
:1045F00000F07EFF0146484601F0CEF84FF07C51B6
:1046000000F076FF00F0D8FEDAF808500121D5F866
:104610000C80A86100984044CAF83400084601B0F4
:10462000BDE8F08F000080C070B504461948002531
:10463000017B90F83000002808BF014604F10C000F
:10464000217124216571A571FBF7E2FDA0680F219E
:10465000C068C4E90C5004F14400E571A4F840506E
:10466000C4E90E55FBF7D4FD84F86050C4E9155534
:10467000E56501261C21246804F1140026612564E7
:10468000FBF7C6FD04F1480018216664FBF7C0FD86
:1046900070BD00BFA0010020C0F8441170470000A9
:1046A0002DE9F0470446DFF8B863D4F84401A16867
:1046B0003278C08852B1D4F84051EA68C5E90302A3
:1046C000801AB0EB610F0DDD401A10E0E26801EBDB
:1046D000D1777B10B2EB670F3ADA1A448242B8BF47
:1046E000401A39E04A42B0EB620FB8BF084469692A
:1046F0000F18A9616F61D4F88810D5E90723C2EBC0
:10470000421201FB0020C11821F01F024811891A32
:10471000E8612962FFF7B8FE68623844A862696CF4
:10472000081AE862707808B395F85100002800F084
:104730007A8028680021C0E90911C161C0E915111A
:10474000C164DFF8200369652963FEF7B7FF1CE049
:10475000D21A8242C8BF0844D4F84011C1E903000C
:10476000C1E9050001203070BDE8F087286800210C
:10477000C0E90911C161C0E91511C164B948696591
:104780002963FEF7AFFF01207070D4F84001027971
:10479000417991421FBF4271012180F852101146A8
:1047A000A269836B934201DD826303E0524293422C
:1047B000B8BF82636269C36B934201DDC26303E0E9
:1047C00052429342B8BFC26390F8502012B190F8A1
:1047D00040202AB190F851202AB190F8412012B916
:1047E000012280F8522090F85220002A50D0002256
:1047F000013980F8522007290368C3E90922DA61E8
:10480000C3E91522DA648265C27141D8DFE801F09C
:104810000423292F04232936C269816A04F1B800D0
:10482000FFF7BCF834E00220287142F21070A86350
:1048300068790828A9D8DFE810F000010900F6001F
:10484000FB0009000900F600FB000900AA6C2846DD
:10485000FFF732FD99E7C16904F1A400FFF7DEF824
:1048600016E0016B04F19000FEF7A7FF10E0C269AB
:10487000816A04F58270FFF759F909E0C269816A1B
:1048800004F1E400FFF775F9D4F84001816A41634F
:10489000D4F840516879744F0138072842D8DFE8CE
:1048A00000F004111B2604111B34696B04F1B800DD
:1048B000FEF787FFD4F8B800D4F840516864D4F804
:1048C000BC002EE0A96B04F1A400FFF76DF8D4F84A
:1048D000A400D4F8405124E0E96B04F19000FEF705
:1048E00034FFD4F89000D4F84051E8641AE0D5E9D8
:1048F0000D1204F58270FFF795F8D4F80401D4F88E
:1049000040516864D4F808010BE0696B04F1E400DD
:10491000FFF714F9D4F8E400D4F840516864D4F8EF
:10492000E800A86495F8400085F8500095F841002B
:1049300085F85100286B00F0E6F921F0004100F005
:1049400085F9804628686E7990F8600070B3032E70
:1049500003D1B8F1000F08D104E0B8F1000F01D085
:10496000072E02D0606940451AD1E86900F0CBF902
:104970008146A068BA460F46052190FBF1F000F091
:10498000C2F902460B4627F000414846574600F060
:10499000D2FB58B9A86DB84204D90120E87105E0EE
:1049A000002002E0D4F88C100844A86546F004000A
:1049B000072812D10020E86585F86000D4F844018A
:1049C000FEF7DAFDD4F8401128B1487968B1CA7908
:1049D0006AB104200FE005200DE060694045E9D18F
:1049E000E86DB8420AD90120E6E7002003E091F81B
:1049F000602042B103208871BDE8F087D4F88C10A4
:104A00000844E865DAE703281BD002281CD00128F7
:104A100023D14A6B4B6C02209342ECD18A6C002A62
:104A200008BF0120E7E7A96C2846FFF7A5FCACE624
:104A3000E96C2846FFF7FAFCA7E60A48FEF752FEA3
:104A4000A3E6C86BCA6C01E0886B8A6C02238242C1
:104A500008BF01238B71BDE8F0870120CBE700BFC1
:104A60002C0100204A0900203F420F0010B50446E7
:104A70000348FEF73FFD2046BDE81040FFF710BE9B
:104A8000840800202DE9F84304464FF0C8084FF48D
:104A900080704FF4484104F10C09C4E90080A16022
:104AA00079214846FBF7B4FB04F188063046FFF74E
:104AB00065F804F5A47000253621C4E9500504F515
:104AC000AA70C4F84851A4F84E51FBF7A1FB04F5B5
:104AD000C6700F21FBF79CFB4FF4FA604FF47A711C
:104AE00084F8A851C4E96755C4F8A451C4F85041EA
:104AF00084F84C5184F84D51E5602746206161618E
:104B00002062A068C0EB001248431E215200A2613F
:104B1000E061052084F8845047F8245FC4E90A0165
:104B200004F130002421FBF773FB50204FF4967101
:104B3000FA22C4E91580C4E9171204F164002021A7
:104B4000FBF766FB30464946FEF7E2FDD4F840012C
:104B50003946FFF7A4FB204601B0BDE8F08380B5DD
:104B6000FCF78EFAFEF777F9FDF712FDFDF7F0FC82
:104B7000FDF7E2FDFDF74CFDFDF7A0FDFDF76CFD37
:104B8000FDF70AFEFDF7C4FCFDF720FEFEE770B559
:104B9000054600F079FD044620F00040C0F1FF40DA
:104BA000C00F08D025F00040C0F1FF40C00F04BF87
:104BB0000120FBF76EFB204670BD491058BFC1F1C4
:104BC00040415B1058BFC3F140438B42EFF300807C
:104BD0007047000051EA030C17D41CF5801F58BF22
:104BE000BCF5801F00F10680994218BF704708BFCE
:104BF0009042704707D711F5801F58BF13F5801FEB
:104C000019D499427047894270471CF5801F08D516
:104C1000BCF5801FF7D58B4218BF704708BF824292
:104C200070474FF4001C1CEB410F38BF1CEB430FC7
:104C300001D28B42704770B500F0B2F9922449005E
:104C40004FF000514FF08053FFF7B7BF4FEA4103D9
:104C50004FEA5353A3F58063D3F11E03C8BFD3F1CA
:104C6000210C0CDD4FF0004242EAC12242EA5052D0
:104C700032FA03FC8CEAE17CACEBE1707047102B5C
:104C8000C4BF0020704703F5787CBCF1FF3F04D01F
:104C90006FF0004282EA2100704770B500F080F9A1
:104CA0004992248000207047F2E700004FEA115338
:104CB000A3F58063D3F11E03A8BFD3F1200C08DB5A
:104CC0004FF0004242EAC12252EA505232FA03F057
:104CD000704709420BD4102BC4BF0020704703F566
:104CE000787CBCF1FF3F05D04FF0FF3070474FF0AC
:104CF0000000704770B500F053F900BF499224805E
:104D000000207047F0E710F0004248BF4042B0FA80
:104D100080F310FA03F10AD0C3F11D0303F5806399
:104D200002EB03524FEA415002EBD12170474FF0A2
:104D300000007047B0FA80F310FA03F10AD0C3F113
:104D40001D0303F580634FEA03524FEA415002EB23
:104D5000D12170474FF000007047000051EA030C6A
:104D600017D41CF5801F58BFBCF5801F00F10680CA
:104D7000994218BF704708BF9042704707D711F596
:104D8000801F58BF13F5801F19D49942704789427C
:104D900070471CF5801F08D5BCF5801FF7D58B42E6
:104DA00018BF704708BF824270474FF4001C1CEBCD
:104DB000410F38BF1CEB430F01D28B42704770B5D7
:104DC00000F0EEF8922449004FF080514FF000536C
:104DD000FFF7F3BE51EA030C17D41CF5801F58BF30
:104DE000BCF5801F00F10680994218BF704708BFCC
:104DF0009042704707D711F5801F58BF13F5801FE9
:104E000019D499427047894270471CF5801F08D514
:104E1000BCF5801FF7D58B4218BF704708BF824290
:104E200070474FF4001C1CEB410F38BF1CEB430FC5
:104E300001D28B42704770B500F0B2F8922449005D
:104E40004FF000514FF08053FFF7B7BE70B5DFF859
:104E500048C11CEA111E1EBF1CEA13159EEA0C0F66
:104E600095EA0C0F00F06F8081EA03044EEAD47ECD
:104E7000AE4421EA4C1123EA4C1341F4801143F46F
:104E80008013AEF17F7EA1FB024CA0FB03653619B7
:104E900055EB0C05A1FB034C4CF10003A0FB021CDD
:104EA00016EB0C06654153F10003094218BF46F0AA
:104EB000010613F4007F0BD14FEA03314FEA0530AE
:104EC00041EA155140EA165034036FF003020AE03C
:104ED0004FEAC3214FEAC52041EA555140EA5650F6
:104EE000F4026FF0020202EB2E4201EB025585EA5A
:104EF000CE710AD05FEA440C18BF24F0004450F190
:104F0000000041F1000120EAD47040F2FE7C6245CD
:104F100000D270BDA84214BF4FF080444FF040440F
:104F2000002E08BF0024BEF1806FA8BFA1F1C041D0
:104F3000BDE8704080F2828001F1C04101F0004183
:104F40004FF0000070470CEA13159EEA0C0F18BFD3
:104F500095EA0C0F06D081EA030E4FF000000EF028
:104F6000004170BD00F01CF88900013E00F007B858
:104F700000F009B84FEA430C5FEA5C5C08D081EAB4
:104F8000030100F05BB84FEA410C5FEA5C5CF6D1CC
:104F900002494FF0000070470000FF070000F87F53
:104FA0000EF1020E2EF0030E5EF8046B364205D4AD
:104FB000012A43EB030515F5001F12D8012841EB28
:104FC000010C1CF5001F0CD80ED14FEAD17C0CEB64
:104FD0004C0C0CF1020C15F5001F08BF4CEBD37CF8
:104FE00004E04FF0080C01E04FEAD37C0CEB4C05D9
:104FF00026FA05F606F00706B6F1040C06D20EEB0B
:10500000860CBDE870404CF0010C6047DFE80CF006
:10501000090B02024FF00041A1F500214FF0000002
:1050200070BD19461046012851EB010418BFD4F594
:10503000001484BF002001F0004170BD0808A0F5F5
:1050400000114FEA3101704790EA010F48BF81F02B
:10505000004100F1A883421A3CBF801A89184FEA28
:10506000D052A2EBD1534FF07F4C1CEA410F18BF36
:105070009CEA026F00F03B804FF0004C4CEA0020AD
:105080004CEA012121FA03FC10EB0C0C1ED202F1B8
:10509000FF325FEA1C2040EBC25038BF70471CF063
:1050A0007F0F4FEA400C18BFBCF17F4F38BF7047ED
:1050B000C3F12003994008BF20F00100BCF17F4FED
:1050C00038BF7047A0F1C04000F0D9BA4FEA3C00A9
:1050D000000A40EBC25028BF1CF0FF0F4FEA400C03
:1050E000E6D018BFBCF17F4F38BF7047EAE79CEAB3
:1050F000026F05D010EA5C0F08BF00F00040704757
:1051000010B500F076FA00BF64FBBE3E10B5FFF7A5
:1051100061FD0CBF0120002010BD10B5FFF75AFD46
:1051200014BF0120002010BD10B5FFF717FE8CBF83
:105130000120002010BD10B5FFF710FE2CBF01208C
:10514000002010BD10B5FFF745FE94BF01200020E0
:1051500010BD10B5FFF73EFE34BF0120002010BD8A
:1051600010B500F0F5F80CBF0120002010BD10B5FF
:1051700000F0EEF814BF0120002010BD10B500F0C3
:105180004FF98CBF0120002010BD10B500F048F988
:105190002CBF0120002010BD10B500F075F994BFA0
:1051A0000120002010BD10B500F06EF934BF0120C1
:1051B000002010BD401058BFC0F14040491058BFFA
:1051C000C1F140418142EFF3008070474FF47F0C02
:1051D0001CEAD0121EBF1CEAD11392EA0C0F93EA0C
:1051E0000C0F00F0858090EA010F48BF42F48072F6
:1051F00040F4000C41F400002CF07F4120F07F408F
:1052000000B5A2EB030281420FF2081CACEB504E3A
:105210009EF800E0C0F100004FEA4E0E00FB0EFCCD
:1052200038BF49004FEA2C1C0CFB0EF34FEACE1E90
:105230000EEB635E4FEA112C0EFB0CFC4FEAC12112
:105240004FEA1C5300FB031102F5FA024FEA112C3E
:105250000EFB0CFC4FEA01314FEADC4C00FB0C1159
:1052600042EB2242C14228BF09184CEB03335DF8E0
:1052700004EB10EB410143EBC250B2F57C0F38BF99
:10528000704729D512F0F00F1CBF00F1C04000F0AC
:1052900000407047008182838485868788898B8C53
:1052A0008D8E8F919293959697999A9C9D9FA0A28F
:1052B000A3A5A7A8AAACAEB0B2B3B5B7B9BCBEC0DF
:1052C000C2C5C7C9CCCED1D4D7D9DCDFE2E6E9EC80
:1052D000F0F3F7FAFE0000004FEA400C0CF1807C7E
:1052E000BCF17E4F28BF7047B0F1C04000F0C7B995
:1052F0000CEAD11390EA010F48BF42F48072624574
:1053000038BF634507D213F47F0F16D080EA01003F
:1053100000F00040704710B500F06BF9097EFC3ECC
:1053200000F005B880EA010000F00040704780EA14
:10533000010000F0004000F0A2B912F47F0F04BF9A
:105340000248704780EA010000F099B90000C07F70
:1053500050EA010C00F113801CF5000F58BFBCF59A
:10536000000F01D48842704707D710F5000F58BFCF
:1053700011F5000F15D488427047894270471CF51B
:10538000000F04D5BCF5000FF7D5814270474FF0F0
:10539000807C1CEB400F38BF1CEB410F01D28142D7
:1053A000704710B500F025F9922449004FF00050E5
:1053B0004FF08051FFF7FEBE41000B0ED3F19E026D
:1053C00008D950F400034FEA032323FA02F048BF40
:1053D0004042704710B500F00CF900BF499224809C
:1053E000002070476FF0004282EA20007047000002
:1053F00010F0004148BF4042B0FA80F310FA03F2C7
:10540000C3F19D030BD051EAC35101EB12205306A7
:1054100038BF704700F1010008BF20F0010070475D
:1054200050EA010C00F113801CF5000F58BFBCF5C9
:10543000000F01D48842704707D710F5000F58BFFE
:1054400011F5000F15D488427047894270471CF54A
:10545000000F04D5BCF5000FF7D5814270474FF01F
:10546000807C1CEB400F38BF1CEB410F01D2814206
:10547000704710B500F0BDF8922449004FF08050FD
:105480004FF00051FFF796BE50EA010C00F1138077
:105490001CF5000F58BFBCF5000F01D488427047BF
:1054A00007D710F5000F58BF11F5000F15D488422B
:1054B0007047894270471CF5000F04D5BCF5000FFA
:1054C000F7D5814270474FF0807C1CEB400F38BF0E
:1054D0001CEB410F01D28142704710B500F089F8F2
:1054E000922449004FF000504FF08051FFF762BE08
:1054F0004FF47F0C1CEAD0121EBF1CEAD11392EAB3
:105500000C0F93EA0C0F00F0478090EA010F48BFA0
:1055100042F480724FF0004C4CEA00204CEA01212A
:1055200002EB0302A0FB0113A2F50002002918BF41
:1055300043F001035B0028BF4FEA330342EB2242F2
:105540005FEA132C4CEBC2502EBFBCEB436FB2F59D
:105550007C0F70474FEA036CBCF1004F08BF20F08E
:105560000100B2F57C0F38BF70470BD582F0FF0207
:1055700012F5803FC8BF704700F1C040D8BF00F0AF
:105580000040704700F5000C5FEA4C0C48BF7047C4
:10559000B0F1C04000F073B80CEAD11390EA010FEB
:1055A00048BF42F48072624538BF634504D280EA46
:1055B000010000F00040704710B500F01AF800BF7D
:1055C0008900013E00F007B800F009B85FEA410C1D
:1055D0005FEA1C6C08D080EA010000F050B85FEA76
:1055E000400C5FEA1C6CF6D14FF00040A0F5800043
:1055F00070470EF1020E2EF0030E5EF8044B2442AB
:1056000004D44FEA4102B2F17F4F11D84FEA400370
:10561000B3F17F4F0CD80ED14FEAD07C0CEB4C0C81
:105620000CF1020CB2F17F4F08BF4CEBD17C04E0CF
:105630004FF0080C01E04FEAD17C0CEB4C0324FA4C
:1056400003F404F00704B4F1040C06D20EEB840C4E
:10565000BDE810404CF0010C6047DFE80CF0070893
:1056600002024FF00040A0F5800010BD0846420045
:1056700018BFD2F1807288BF00F0004010BDFF213A
:1056800041EAD050C00570474FEAD051002988BF89
:10569000D1F1FF0240F275804FEA002040F0004057
:1056A00070B501F17D01490838BF40080EA2430ED4
:1056B000D25C040C02FB02F304FB03F3C3F140438E
:1056C000A3FB0254ED0D45EA442202FB02F3A0FBCA
:1056D00003546D42C4F1404438BF641EA2FB05353B
:1056E0000023E2FB0453EA0B42EA4342A0FB0232EE
:1056F00012F14004E409A2F1210303F07F031F2B00
:1057000032D904EBC15070BDFEFAF7F3F0ECE9E6D4
:10571000E4E1DEDCD9D7D4D2D0CECCCAC8C6C4C26C
:10572000C1BFBDBCBAB9B7B6B4B3B2B0AFAEACAB23
:10573000AAA9A8A7A6A4A3A2A1A09F9E9E9D9C9B48
:105740009A999897979695949393929190908F8E1B
:105750008E8D8C8C8B8A8A898988878786868584BA
:10576000848383828281818004FB04F6B6EB004649
:1057700003D5E64248BF641CC3E7A64258BF641C79
:10578000BFE711F0FF0F02D100F00040704710B5E5
:10579000FFF72FFF7FDBFFBE90EA010F48BF81F0CC
:1057A00000413FF558AC421A04D882F00042A0EB09
:1057B000020011444FEAD052A2EBD1534FF07F4C7C
:1057C0001CEA410F18BF9CEA026F4AD04FF0004C10
:1057D0004CEA00204CEA012121FA03FCB0EB0C0C4E
:1057E0000FD412F0FE0F36D05FEA4C001DD5001228
:1057F00040EBC25038BF70471CF03F0F18BF7047D6
:105800000BE05FEA1C20A2F1010240EBC25038BF5E
:1058100070471CF07F0F18BF7047C3F120039940F9
:1058200014BF401E20F0010070474FEA1223800889
:1058300008BF7047B0FA80FCA2EB0C02CCF1280C38
:1058400060FA0CF093EA122F04BF00EBC2507047CD
:105850004FEAC3707047130A5FEADC1008BF704755
:10586000F6E79CEA026F04D010EA5C0F08BF002044
:10587000704710B5FFF7BDFE40DFF63E81F00040F7
:10588000704700000000000000000102030406074A
:1058900008090000000001020304000019003200A2
:1058A0004B0065007E009700B000C900E200FB00DD
:1058B00014012D0146015F0178019101AA01C30184
:1058C000DC01F5010E0227024002590272028B022E
:1058D000A302BC02D502EE0206031F0338035003E5
:1058E000690381039A03B203CB03E303FC031404AB
:1058F0002C0444045D0475048D04A504BD04D50482
:10590000ED0405051D0534054C0564057C0593056E
:10591000AB05C205DA05F10508061F0637064E0677
:1059200065067C069306AA06C106D706EE0605079D
:105930001B07320748075E0775078B07A107B707E4
:10594000CD07E307F9070E0824083A084F08650851
:105950007A088F08A508BA08CF08E408F8080D09E6
:10596000220937094B095F09740988099C09B009A4
:10597000C409D809EC09FF09130A260A3A0A4D0A94
:10598000600A730A860A990AAC0ABF0AD10AE40AB5
:10599000F60A080B1B0B2D0B3E0B500B620B740B06
:1059A000850B970BA80BB90BCA0BDB0BEC0BFC0B95
:1059B0000D0C1E0C2E0C3E0C4E0C5E0C6E0C7E0C58
:1059C0008E0C9D0CAC0CBC0CCB0CDA0CE90CF80C5E
:1059D000060D150D230D320D400D4E0D5C0D690D9C
:1059E000770D850D920D9F0DAC0DB90DC60DD30D24
:1059F000DF0DEC0DF80D040E100E1C0E280E340EEB
:105A00003F0E4B0E560E610E6C0E770E810E8C0EF5
:105A1000960EA10EAB0EB50EBF0EC80ED20EDB0E4B
:105A2000E40EEE0EF70EFF0E080F110F190F210FE7
:105A3000290F310F390F410F480F500F570F5E0FCD
:105A4000650F6C0F720F790F7F0F850F8B0F910F02
:105A5000970F9C0FA20FA70FAC0FB10FB60FBB0F84
:105A6000BF0FC40FC80FCC0FD00FD40FD70FDB0F51
:105A7000DE0FE10FE40FE70FEA0FEC0FEF0FF10F6E
:105A8000F30FF50FF70FF80FFA0FFB0FFC0FFD0FD9
:105A9000FE0FFF0FFF0F001000100010001000108D
:105AA000FF0FFF0FFE0FFD0FFC0FFB0FFA0FF80F9C
:105AB000F70FF50FF30FF10FEF0FEC0FEA0FE70FF2
:105AC000E40FE10FDE0FDB0FD70FD40FD00FCC0F99
:105AD000C80FC40FBF0FBB0FB60FB10FAC0FA70F8E
