:020000040800F2
:100000007806002089010008470900080509000852
:10001000450900088F020008B90900080000000027
:100020000000000000000000000000004B09000874
:100030009102000800000000490900084D0900086D
:10004000A3010008A3010008A3010008A301000800
:10005000A3010008A3010008A3010008A3010008F0
:10006000A3010008A3010008A3010008A3010008E0
:10007000A3010008A3010008A3010008A3010008D0
:10008000A3010008A3010008A3010008A3010008C0
:10009000A3010008A3010008A3010008A3010008B0
:1000A000A3010008A3010008A3010008A3010008A0
:1000B000A3010008A3010008A3010008A301000890
:1000C000A3010008A3010008A3010008A301000880
:1000D000A3010008A3010008A3010008A301000870
:1000E000A3010008A3010008A301000800F002F822
:1000F00000F03AF80AA090E8000C82448344AAF188
:100100000107DA4501D100F02FF8AFF2090EBAE885
:100110000F0013F0010F18BFFB1A43F0010318473B
:10012000C0080000E0080000103A24BF78C878C179
:10013000FAD8520724BF30C830C144BF04680C60ED
:10014000704700000023002400250026103A28BF35
:1001500078C1FBD8520728BF30C148BF0B60704739
:100160001FB51FBD10B510BD00F058F81146FFF7C0
:10017000F7FF00F022FC00F076F803B4FFF7F2FF7F
:1001800003BC00F07DF8000009488047094800479B
:10019000FEE7FEE7FEE7FEE7FEE7FEE7FEE7FEE737
:1001A000FEE7FEE704480549054A064B7047000094
:1001B000B7090008ED00000878000020780600204C
:1001C00078020020780200204FF0000200B51346AC
:1001D00094469646203922BFA0E80C50A0E80C5067
:1001E000B1F12001BFF4F7AF090728BFA0E80C5018
:1001F00048BF0CC05DF804EB890028BF40F8042B11
:1002000008BF704748BF20F8022B11F0804F18BF7D
:1002100000F8012B7047704770477047754600F033
:100220002BF8AE4605006946534620F00700854688
:1002300018B020B5FFF7B6FFBDE820404FF000062C
:100240004FF000074FF000084FF0000BAC46ACE851
:10025000C009ACE8C009ACE8C009ACE8C00921F0AD
:1002600007018D46704710B50446AFF30080204665
:10027000BDE81040FFF781BF004870471000002024
:1002800001491820ABBEFEE7260002007047FEE7DA
:10029000704700001B488068704700BF194801780C
:1002A000826811448160704780B50748016841F059
:1002B00010010160032000F073F80F2000F006F831
:1002C00000F022F8002080BD0020024070B50D4EE5
:1002D00004464FF47A713078B1FBF0F08449096834
:1002E000B1FBF0F000F0FAFA01250F2C08D838B96C
:1002F0004FF0FF3021460022002500F025F8746001
:10030000284670BD0000002082B00D48022201681E
:1003100041F001010160016801F0010101910199C1
:10032000416841F080514160406800F08050009089
:1003300000980448016862F31A61016002B07047D6
:100340001810024004000140B0B5144C1A4D00F0E2
:100350000F03B0F1FF3FA3F104032B4403F10C039F
:10036000C8BF03192868C0F30220051DC41E80F011
:100370000700072D4FF0010538BF0024042828BFCF
:10038000042005FA00F00138084005FA04F10F31A5
:10039000A0401140084300011870B0BD00E400E027
:1003A00005494FF6FF030A681A4060F30A22034822
:1003B00010430860704700BF0CED00E00000FA0534
:1003C0002DE9F04104468846002C00F08880464F15
:1003D0004FF48050395801F0070141450AD239588D
:1003E00021F0070141EA08013950385800F00700B0
:1003F000404574D1206810F0020F11D0410742BF70
:10040000796841F4E0617960010742BF796841F49D
:10041000605179607968A26821F0F0011143796038
:10042000C00727D06068012804D1396811F4003F63
:1004300008D154E03968022802D1890102D44EE083
:1004400089074CD5796821F0030108437860FFF7EC
:1004500021FF064641F288357868616800F00C009B
:10046000B0EB810F06D0FFF715FF801BA842F3D930
:10047000032035E04FF48050395801F00701414521
:100480000AD9395821F0070141EA08013950385892
:1004900000F00700404522D1206810F0040F05D07D
:1004A0007968E26821F4E06111437960000706D5BC
:1004B0007868216920F4605040EAC100786000F05B
:1004C0001BF87968094AC1F30311515CC840084917
:1004D000086008480068FFF7F9FE002000E00120EE
:1004E000C0B2BDE8F08100BF00100240CE09000894
:1004F0000C000020040000200F490A680F4802F099
:100500000C03042B08BF7047082B13D1C2F3834C94
:100510000BA312F4803F13F80C3002BF0D48584370
:10052000704709680AA25843C1F34041515CB0FBCF
:10053000F1F070470848704704100240001BB700F4
:1005400002030405060708090A0B0C0D0E0F101014
:100550000102000000093D0000127A002DE9FE4F63
:100560008246BAF1000F00F065819AF80000D64E7D
:10057000D64FC00750D0386800F00C00042819D0BE
:10058000386800F00C00082803D1386810F4803F68
:1005900010D1DAF80400A8B1B0F5803F06D0316878
:1005A000B0F5A02F24D141F480203060306840F4B1
:1005B000803023E0306810F4003F2DD0DAF80400DA
:1005C00050BB37E1306820F480303060306820F470
:1005D00080203060FFF75EFE0546306810F4003F73
:1005E0001AD0FFF757FE411B03206429F5D922E1F9
:1005F00021F480303060306820F480203060FFF7D4
:1006000049FE0546306810F4003F05D1FFF742FE71
:10061000401B6428F6D9EBE09AF800008007AC484C
:10062000834632D5386810F00C0F1DD0386800F0C2
:100630000C00082804BF386810F4803F14D0DAF8A2
:100640001000002800F09580012059460860FFF74F
:1006500021FE0546306810F0020F0ED1FFF71AFE9A
:10066000401B0228F6D9C3E0306810F0020F1CBF0F
:10067000DAF81000012840F0DD803068DAF8141054
:1006800020F0F80040EAC10030609AF8000000074E
:1006900031D5DAF8180080B101205946C1F880043C
:1006A000FFF7F8FD0546386A10F0020F16D1FFF784
:1006B000F1FD401B0228F6D99AE000205946C1F806
:1006C0008004FFF7E7FD0546386A10F0020F12D0EC
:1006D000FFF7E0FD401B0228F6D989E07D484FF482
:1006E000FA510068B0FBF1F0029000BF0298411E81
:1006F00000280291F9D19AF80000400740F181806A
:10070000B86910F0805F0BD1B8694FF0010840F074
:100710008050B861B86900F080500190019801E004
:100720004FF000086C48305810F4807F12D16A48AE
:10073000315841F480713150FFF7ACFD05466648F1
:10074000305810F4807F05D1FFF7A4FD401B6428CA
:10075000F5D94DE0DAF80C00E8B1012805D0F969C7
:10076000052830D141F00400F861F86940F001003B
:100770002FE0002059460860FFF78CFD05463068E1
:1007800010F0020F3FF481AFFFF784FD411B0320FF
:100790000229F4D94FE0F86920F00100F861F86906
:1007A00020F00400F861FFF775FD054641F2883935
:1007B000F86910F0020F1DD0FFF76CFD411B0320FC
:1007C0004945F5D937E021F00100F861F86920F0DA
:1007D0000400F861FFF75EFD054641F28834F869D0
:1007E00010F0020F06D1FFF755FD401BA042F6D9CD
:1007F000032020E0B8F1010F02BFB86920F080505B
:10080000B861DAF81C405946002C5AD0386800F01C
:100810000C00082813D1012C0CD03868DAF820100D
:1008200000F480328A4205D1DAF8241000F4701006
:10083000884246D00120C0B203B0BDE8F08F00204E
:100840000866FFF727FD0546022C0AD1306810F034
:10085000007F11D0FFF71EFD411B03200229F5D9AF
:10086000E9E7306810F0007F2BD0FFF713FD411B44
:1008700003200229F5D9DEE7DAF82000B0F5803F41
:1008800006D13968DAF8082021F4003111433960C3
:10089000396821F474110843DAF8241008433860E9
:1008A0000120CBF86000FFF7F5FC0446306810F03B
:1008B000007F06D1FFF7EEFC011B03200229F5D9CA
:1008C000B9E70020B7E700BF001002400410024063
:1008D000000042420C0000200060FEFF411E00208C
:1008E000B0EB116F1CBF01207047044AF023516028
:1008F00003490B70072190601160704710E000E021
:1009000023ED00E0FEE7000082B00A48016841F0F4
:1009100020010160016801F0200101910199016845
:1009200041F004010160006800F0040000900098AC
:1009300002B0704718100240014800210180FEE714
:1009400070000020FEE7FEE770477047FFF7A6BC87
:10095000B0B590B0002401A81421CDE90B44CDE935
:100960000944FFF731FC01204FF480310225069045
:10097000CDE907140A904FF48010CDE90D510F9086
:1009800006A8FFF7EBFD18B1EFF3108072B6FEE793
:100990000F200221CDE901054FF480600394CDE9D9
:1009A000040401A8FFF70CFD18B1EFF3108072B634
:1009B000FEE710B0B0BD7047FEE780B5FFF774FCEE
:1009C000FFF7C6FFFFF7A0FFFFF7B6FFFEE7000047
:1009D00000000000000001020304060708090000EF
:1009E000000A000800000020100000002801000894
:1009F000100A0008100000206806000044010008EA
:100A00000100000010000000000000000024F400BD
:04000005080000ED02
:00000001FF
