:020000040800F2
:10000000D8060020890100082B12000861110008A1
:10001000291200088F020008AD120008000000003D
:100020000000000000000000000000002F12000887
:10003000A9020008000000002D120008311200087B
:10004000A3010008A3010008A3010008A301000800
:10005000A3010008A3010008A3010008A3010008F0
:10006000A3010008A3010008A3010008A3010008E0
:10007000A3010008A3010008A3010008A3010008D0
:10008000A3010008A3010008A301000895120008BD
:10009000A1120008910200089D020008A3010008B7
:1000A000A3010008A3010008A3010008A3010008A0
:1000B000A3010008A3010008A3010008A301000890
:1000C000A3010008A3010008A3010008A301000880
:1000D000A3010008A3010008A3010008A301000870
:1000E000A3010008A3010008A301000800F002F822
:1000F00000F03AF80AA090E8000C82448344AAF188
:100100000107DA4501D100F02FF8AFF2090EBAE885
:100110000F0013F0010F18BFFB1A43F0010318473B
:100120004012000060120000103A24BF78C878C165
:10013000FAD8520724BF30C830C144BF04680C60ED
:10014000704700000023002400250026103A28BF35
:1001500078C1FBD8520728BF30C148BF0B60704739
:100160001FB51FBD10B510BD00F058F81146FFF7C0
:10017000F7FF01F0ADF800F076F803B4FFF7F2FFF7
:1001800003BC00F07DF8000009488047094800479B
:10019000FEE7FEE7FEE7FEE7FEE7FEE7FEE7FEE737
:1001A000FEE7FEE704480549054A064B7047000094
:1001B00091120008ED000008D8000020D8060020A9
:1001C000D8020020D80200204FF0000200B51346EC
:1001D00094469646203922BFA0E80C50A0E80C5067
:1001E000B1F12001BFF4F7AF090728BFA0E80C5018
:1001F00048BF0CC05DF804EB890028BF40F8042B11
:1002000008BF704748BF20F8022B11F0804F18BF7D
:1002100000F8012B7047704770477047754600F033
:100220002BF8AE4605006946534620F00700854688
:1002300018B020B5FFF7B6FFBDE820404FF000062C
:100240004FF000074FF000084FF0000B21F00701BE
:10025000AC46ACE8C009ACE8C009ACE8C009ACE801
:10026000C0098D46704710B50446AFF300802046A4
:10027000BDE81040FFF781BF0048704778000020BC
:1002800001491820ABBEFEE7260002007047FEE7DA
:10029000014800F011B9000050000020014800F0B2
:1002A0000BB9000050000020704772B6FEE790F8CE
:1002B0002020012A07D0022A05D0416A41F480217A
:1002C000416201207047006842690A434261002090
:1002D0007047000010B590F820300268012B07D05D
:1002E000022B05D0416A41F480214162012010BDFA
:1002F000D2F8000240F00100C2F80002087D00F0D0
:100300001F0301209840D2F81C328343C2F81C32EC
:10031000CB69B3B9D2F80C328343C2F80C328C8962
:100320004B6864F31F434C6902EBC404C4F84032C9
:100330000C890B6864F31F434C6902EBC404C4F8D6
:100340004432CB69012B16D1D2F80C320343C2F8E8
:100350000C320C884B6864F31F434C6902EBC404F5
:10036000C4F840320C89CB6864F31F434C6902EB3C
:10037000C404C4F844328B69002BD2F804320FD085
:1003800053EA0003C2F804320B69002BD2F814328E
:1003900008D00343C2F81432096A012904D008E0E6
:1003A0008343EFE78343F5E7D2F81C120143C2F819
:1003B0001C12D2F8000220F00100C2F80002002056
:1003C00010BD704770B590F82040012C05D0022C6C
:1003D00003D0416A41F4802128E0046809B324690C
:1003E000A40720D04FF4D874056804EB01142D59EC
:1003F00015F00405956005682D591AD0ED08556073
:1004000005682C5904F00204D4604FF4DA740568CE
:1004100004EB01142E5906F00F06082E0CD3082504
:100420000DE0E468DCE7416A41F40011416201201B
:1004300070BD6D0D1560E3E72D5905F00F051561D1
:1004400005682D59C5F30725956105682C59240CBD
:1004500054614FF4DC72046802EB0112A4581C7062
:100460000468A458240A5C700468A458240C9C7086
:100470000468A258120EDA704FF4DE72046802EBC0
:100480000112A4581C710468A458240A5C71046801
:10049000A458240C9C710468A258120EDA710068EA
:1004A00029B1016941F020010161002070BDC168DE
:1004B00041F02001C160F8E72DE9F05F05460068D2
:1004C00000244669D0F804908768D0F80CB0D0F8C2
:1004D00010A0D0F81880F10748D0F90714D00121F6
:1004E0008160B80703D5284600F021FA0CE07807B0
:1004F00002D54FF4006407E0380702D54FF480546A
:1005000002E0284600F012FAF80516D529684FF4E3
:1005100080708860B80503D5284600F00AFA0CE020
:10052000780502D544F4005407E0380502D544F4B8
:10053000804402E0284600F0FBF9F80316D529684C
:100540004FF480308860B80303D5284600F0F3F9F3
:100550000CE0780302D544F4004407E0380302D5E8
:1005600044F4803402E0284600F0E4F9300707D56F
:100570005FEACB6004D52968102044F40074C86099
:1005800070074FF0080707D55FEA0B7004D528689D
:10059000C760284600F07EF9B00706D52868C06815
:1005A000800702D0284600F077F9700607D55FEA89
:1005B000CA6004D52968102044F480640861B0063C
:1005C00007D55FEA0A7004D528680761284600F05D
:1005D0007DF9F00606D528680069800702D0284614
:1005E00000F075F9B00308D55FEAC96005D5296840
:1005F00010204860284600F06BF9F00307D55FEA49
:10060000097004D528684760284600F095F9300441
:1006100046D55FEA497040D5F00504D55FEAC87059
:1006200001D044F00104B00504D55FEA887001D51B
:1006300044F00204700504D55FEA487001D544F027
:100640000404300529D518F0700F26D008F070008A
:10065000402815D006DC102809D020280AD03028E0
:1006600016D10AE050280ED0602811D10EE044F0D7
:1006700008040DE044F010040AE044F0200407E010
:1006800044F0400404E044F0800401E044F4807449
:100690002868816921F0700181612968042048601F
:1006A000002C05D0686A204368622846FFF789FE5F
:1006B000BDE8F09F70B5040003D094F8200010B19D
:1006C00004E0012070BD204600F082F82068016837
:1006D00041F00101016000F041FA0546052604E001
:1006E00000F03CFA401B0A2811D820684068C00777
:1006F000F6D02068016821F00201016000F02EFAB6
:1007000005460BE000F02AFA401B0A2806D9606A69
:1007100040F40030606284F82060D2E720684068CE
:100720008007EFD4207E0128206801683DD021F0A9
:1007300080010160607E01282068016838D021F0C6
:1007400040010160A07E01282068016833D021F0BB
:1007500020010160E07E0128206801682ED041F070
:1007600010010160207F01282068016829D021F054
:1007700008010160607F01282068016824D021F011
:1007800004010160D4E902010843D4E904121143D1
:1007900008436168491E08432168C86100206062FF
:1007A000012084F82000002070BD41F08001C0E7E6
:1007B00041F04001C5E741F02001CAE721F01001F6
:1007C000CFE741F00801D4E741F00401D9E7000088
:1007D00010B586B00021009101910291039100684B
:1007E000284988424BD12848C16941F00071C16154
:1007F000C16901F000710491816941F008018161D2
:100800008069224C00F0080004904FF48070009042
:100810006946204600F0A4F860150090022001907F
:10082000032003906946204600F09AF81848416872
:1008300021F4C04141F0E06141F480414160002277
:100840000321132000F0F6F9132000F0E5F900224F
:100850000321142000F0EEF9142000F0DDF900224D
:100860000321152000F0E6F9152000F0D5F900224B
:100870000321162000F0DEF9162000F0CDF906B0B5
:1008800010BD00000064004000100240000C014058
:10089000000001407047000010B5094B094A0021D3
:1008A000FFF790FD08B172B6FEE70548007803280F
:1008B00005D1BDE810400421034800F041B910BD46
:1008C0000400002034000020000C014070477047F5
:1008D0007047000070B5044690F82000012804D04D
:1008E000606A40F40020606218E0022084F8200072
:1008F0002068016821F00101016000F02FF9054630
:100900000EE000BF00F02AF9401B0A2808D9606AEF
:1009100040F400306062052084F82000012070BDA2
:1009200020684068C007EDD1606270BD70477047B5
:1009300070477047704770477047000070B50446B5
:1009400000F00CF90546601C02D00448007804440D
:1009500000F004F9401BA042FAD370BD0C00002047
:100960002DE9F84FDFF8B8910024A9F1040B2346D4
:100970000F2709F1040AABF1040EC9E00125A540D7
:100980002A40AA427DD1674ED1F804C0ACEB0608DC
:10099000B44532D014DCBCF1030F3AD009DCBCF111
:1009A000000F2AD0BCF1010F1CD0BCF1020F31D1D5
:1009B0001DE0BCF1110F17D0BCF1120F2AD119E0C4
:1009C000B8F5881F19D006DCB8F5803F15D0B8F50A
:1009D000801F1FD111E0B8F5001F0ED0B8F5041F1D
:1009E00018D10AE0CB6815E0CB681B1D12E0CB687C
:1009F00008330FE0CB680C330CE08B682BB1012B74
:100A00004FF0080303D0456104E0042302E00561D0
:100A100000E00023FF2A01D8064601E000F10406A9
:100A20004FEA840501D9A5F12005D6F8008007FA20
:100A300005FC28EA0C0803FA05F548EA0508C6F89B
:100A400000804D68ED0062D5374DAE6946F0010675
:100A5000AE61AD6924F0030605F001050095334D44
:100A600006EB050CDCF80850A607360F07FA06F867
:100A700025EA0805DFF8B880404503D14FF00008AB
:100A800017E044E0DFF8AC80404502D14FF00108A8
:100A90000FE0DFF8A480404502D14FF0020808E0E3
:100AA000DFF89880404502D14FF0030801E04FF095
:100AB000040808FA06F848EA0508CCF808804D68EA
:100AC000D9F80060ED024D4601D5164300E096438B
:100AD0002E604D68DAF80060AD02554601D5164328
:100AE00000E096432E604D68DBF80060AD035D4684
:100AF00001D5164300E096432E604D68DEF8006095
:100B0000ED03754601D5164300E096432E60641C44
:100B10000D682A46E5407FF431AFBDE8F88F00004C
:100B200008040140000011100010024000000140C4
:100B300000080140000C0140001001400014014079
:100B4000C26821EA02030A4043EA02410161704798
:100B50000AB1016170470904FBE7000001488068A1
:100B6000704700000C0000200248816802781144A0
:100B7000816070470C000020074810B5016841F003
:100B800010010160032000F075F80F2000F006F856
:100B900000F024F8002010BD0020024070B50D4D7B
:100BA00004464FF47A712878B1FBF0F00A490968DD
:100BB000B1FBF0F000F0C0FA48B9102C07D20022C7
:100BC0002146501E00F036F800206C6070BD0120F8
:100BD00070BD00000C000020180000200C4808B573
:100BE000816941F001018161816901F00101009198
:100BF000C16941F08051C161C06900F0805000902E
:100C00000448416821F0E06141F00071416008BD95
:100C10000010024000000140002809DB00F01F0224
:100C2000012191404009800000F1E020C0F800114E
:100C300070470000F0B40E4B1B680C46C3F3022350
:100C4000C3F10705042D00D90425191D072901D278
:100C5000002300E0DB1E012606FA05F1491E2140B3
:100C600099409E40761E16403143F0BC00F01FBBF9
:100C70000CED00E0064900F0070208684FF6FF039C
:100C8000184040EA0220034A104308607047000001
:100C90000CED00E00000FA052DE9F0470F460500D5
:100CA00061D0434E306800F00700B84209D2306886
:100CB00020F0070038433060306800F00700B84289
:100CC00051D128683B4C810712D5400703D5606895
:100CD00040F4E06060602878000703D5606840F465
:100CE000605060606068A96820F0F00008436060B0
:100CF0002878C00728D06868012810D02168022809
:100D000010D0890700292EDA616821F00301014320
:100D10006160FFF723FF804641F288390DE02168CA
:100D20008903EFE78901EDE7FFF718FFA0EB080162
:100D3000494502D90320BDE8F0876068696800F082
:100D40000C00B0EB810FEFD1306800F00700B84223
:100D50000BD9306820F0070038433060306800F06D
:100D60000700B84201D00120E5E72878400705D503
:100D70006068E96820F4E060084360602878000754
:100D800006D56068296920F4605040EAC1006060BF
:100D900000F018F86168084AC1F30311515CC840BB
:100DA0000649086006480068FFF7F8FE0020C2E721
:100DB00000200240001002404E13000818000020DE
:100DC000100000200F4A516801F00C00042803D0E5
:100DD000082803D00C4870470C4870470C48C1F3F2
:100DE0008343C903C05C0AD55168094AC1F3404135
:100DF000921E515C054A5043B0FBF1F07047054923
:100E0000484370470010024000127A00001BB700F0
:100E10003E13000800093D002DE9F84F040070D092
:100E20002078C04DC00749D06868C0F38100012810
:100E300007D06868C0F38100022809D16868C00340
:100E400006D52868800339D560680028E7D035E0EA
:100E50006068B0F5803F0BD010B1B0F5A02F11D075
:100E6000286820F480302860286820F4802002E080
:100E7000286840F480302860606890B1FFF76EFE0B
:100E800006460AE0286840F480202860F0E700BFAA
:100E9000FFF764FE801B642873D828688003F7D5A9
:100EA0000CE0FFF75BFE064605E000BFFFF756FECD
:100EB000801B6428F0D828688003F7D420789A4EE5
:100EC00080074FF001094FF0000839D5686810F02D
:100ED0000C0F07D06868C0F38100022809D1686848
:100EE000C00306D42868800714D52069012808D1DA
:100EF00010E02069B0B1C6F80090FFF72FFE07465A
:100F000005E00AE1FFF72AFEC01B0228C4D82868C2
:100F10008007F7D52868616920F0F80040EAC10031
:100F200028600DE0C6F80080FFF718FE074604E0D1
:100F3000FFF714FEC01B022823D828688007F7D4C7
:100F4000207800072CD57948A169D9B1C0F8009064
:100F5000FFF704FE074604E0FFF700FEC01B02286F
:100F60000FD8686A8007F7D571484FF4FA510068C6
:100F7000B0FBF1F0009000BF0098411E0091FAD242
:100F80000EE080E0C0F80080FFF7E8FD074604E0CF
:100F9000FFF7E4FDC01B022875D8686A8007F7D404
:100FA0002078400760D5E8690027C00008D4E869C8
:100FB00040F08050E861E869012700F0805000901F
:100FC0005C480168C90513D40168834641F4807107
:100FD0000160FFF7C3FD824606E000BFFFF7BEFDDC
:100FE000A0EB0A0064284ED8DBF80000C005F5D558
:100FF000E06801280AD008B1052813D0286A20F03B
:1010000001002862286A20F0040002E0286A40F00B
:1010100001002862E06841F2883B98B1FFF79EFD2D
:1010200082460BE0286A40F004002862EEE700BF29
:10103000FFF794FDA0EB0A0159455AD8286A8007AA
:10104000F6D50CE0FFF78AFD824605E0FFF786FD46
:10105000A0EB0A0159454CD8286A8007F6D41FB185
:10106000E86920F08050E861E06988B36968C1F3FD
:101070008101022944D00228C6F8608004D0FFF71D
:101080006DFD044638E034E0FFF768FD074604E0F4
:10109000FFF764FDC01B02282BD828688001F7D415
:1010A000206AB0F5803F05D16868A16820F400305F
:1010B00008436860D4E908010843696821F47411A1
:1010C00008436860C6F86090FFF748FD044606E0F4
:1010D00025E000BFFFF742FD001B022809D8286861
:1010E0008001F7D51BE000BFFFF738FD001B022889
:1010F00002D90320BDE8F88F28688001F4D40EE0FF
:101100000128F7D06868226A00F48031914204D146
:10111000616A00F47010884201D00120EAE70020E3
:10112000E8E7000000100240000042428004424212
:10113000180000200070004010B5401EB0F1807F04
:1011400001D3012010BD4FF0E02460610F21601732
:1011500000F0ADF80020A06107202061002010BD44
:10116000FEE700000F4810B50D4901600421416001
:1011700000214FF480228160C0E90312D200426155
:101180000176417601228276C17601774177FFF7B9
:1011900091FA002803D0BDE81040FFF786B810BDD3
:1011A000006400405000002030B585B000241C4889
:1011B0000094019402940394816941F020018161BB
:1011C000816901F020010491816941F00801816188
:1011D000816901F008010491816941F00401816194
:1011E0008069104D00F0040004900122042128467B
:1011F000FFF7AEFC042000900120CDE9010402209D
:10120000039069462846FFF7ABFBA814CDE900041C
:10121000694628460294FFF7A3FB05B030BD0000E5
:1012200000100240000C0140FEE7FEE770477047E7
:10123000FFF79ABC30B58FB028216846FEF7C4FF8F
:1012400014210AA8FEF7C0FF01210804CDE900100F
:101250000024029402250491CDE907500001099071
:101260006846FFF7D9FD08B172B6FEE70F20CDE959
:101270000A054FF48060CDE90C4002210AA80E94C3
:10128000FFF70AFD002801D072B6FEE70FB030BDAF
:10129000704700000148FFF70FB900005000002020
:1012A0000148FFF709B9000050000020FEE70907D8
:1012B000090E002804DB00F1E02080F800147047DC
:1012C00000F00F0000F1E02080F8141D70470000CE
:1012D0008AB0FFF751FCFFF7ADFFFFF765FFFFF79F
:1012E00041FF0024012503940E200494CDE9085009
:1012F000CDE90645059400940194029469460D4891
:10130000FEF7E8FF08B172B6FEE70A48FFF7E2FA17
:1013100002210848FEF7CBFF07480821C0E9005426
:10132000C4608460016104754FF47A742046FFF74D
:1013300005FBFBE7500000201C0000200102020317
:101340000405060708090A0B0C0D0E0F101000000B
:101350000000000000000102030406070809000065
:1013600080130008000000201C0000002801000875
:101370009C1300081C000020BC060000440100086B
:10138000000000000000000000000000010000005C
:0C13900010000000000000000024F40029
:04000005080000ED02
:00000001FF
