:020000040800F2
:100000005007002089010008BB100008430F0008BA
:10001000B910000891020008FF110008000000005C
:10002000000000000000000000000000BF100008F9
:100030009302000800000000BD100008C110000875
:10004000A3010008A3010008A3010008A301000800
:10005000A3010008A3010008A3010008A3010008F0
:10006000A3010008A3010008A3010008A3010008E0
:10007000A3010008A3010008A3010008A3010008D0
:10008000A3010008A3010008A3010008A3010008C0
:10009000A3010008A3010008A3010008A3010008B0
:1000A000A30100082D110008A3010008A301000806
:1000B000A3010008A301000839110008A3010008EA
:1000C000A3010008A3010008A3010008A301000880
:1000D000A3010008A3010008A3010008A301000870
:1000E000A3010008A3010008A301000800F002F822
:1000F00000F03AF80AA090E8000C82448344AAF188
:100100000107DA4501D100F02FF8AFF2090EBAE885
:100110000F0013F0010F18BFFB1A43F0010318473B
:10012000C0110000E0110000103A24BF78C878C167
:10013000FAD8520724BF30C830C144BF04680C60ED
:10014000704700000023002400250026103A28BF35
:1001500078C1FBD8520728BF30C148BF0B60704739
:100160001FB51FBD10B510BD00F05FF81146FFF7B9
:10017000F7FF01F099F800F07DF803B4FFF7F2FF04
:1001800003BC00F04BF800000948804709480047CD
:10019000FEE7FEE7FEE7FEE7FEE7FEE7FEE7FEE737
:1001A000FEE7FEE704480549054A064B7047000094
:1001B0002B110008ED00000850010020500700201E
:1001C00050030020500300204FF0000200B51346FA
:1001D00094469646203922BFA0E80C50A0E80C5067
:1001E000B1F12001BFF4F7AF090728BFA0E80C5018
:1001F00048BF0CC05DF804EB890028BF40F8042B11
:1002000008BF704748BF20F8022B11F0804F18BF7D
:1002100000F8012B7047704770477047014918205C
:10022000ABBEFEE7260002007047754600F02CF8D2
:10023000AE4605006946534620F00700854618B0D3
:1002400020B5FFF7AFFFBDE820404FF000064FF0AC
:1002500000074FF000084FF0000BAC46ACE8C009B7
:10026000ACE8C009ACE8C009ACE8C00921F007015E
:100270008D46704710B50446AFF300802046BDE8B8
:100280001040FFF77ABF0000004870475800002078
:10029000FEE77047EFF3108072B6FEE70448C188AE
:1002A00002688068024441EA0240110C704700BFB6
:1002B000E8F7FF1F70B505466E1C00F0F5F8044620
:1002C0001EB195480078054401E04FF0FF3500F07D
:1002D000EBF8001BA842FAD370BD00BF2DE9FE4F1A
:1002E000614A04234FF0000B4FF0010C4FF00F0E4A
:1002F0004FF0000A4FF00008904200F1140208BFCE
:100300000323019200930A6832FA08F308BFBDE89C
:10031000FE8F0CFA08F73A4200F0A1804A68032ADF
:1003200016D9112A26D0122A28D0504B9A4213D01F
:100330004F4B9A421CBF4F4B9A420DD04E4B9A42A4
:100340001CBF4E4B9A4207D04D4B9A4204D022E03C
:10035000DFE802F002181B1F8A6842B1012A019AE5
:100360004FF0080A08BF00F11002176013E04FF0C9
:10037000040A10E0CA6802F1040A0CE0CA6802F13B
:100380000C0A08E0D1F80CA005E0CA6802F1080ADE
:1003900001E04FF0000AB8F1080F0246454628BFB9
:1003A00004321368374C28BF2544AE000EFA06F518
:1003B0000AFA06F6AB4333431360CA79D2064ED528
:1003C000644A4FEA98060BF00C090EFA09F5136817
:1003D00043F001031360126802F001020292029BD3
:1003E000294CA4F57E7353F8262022EA050C274AEF
:1003F00090420AD0264A90420AD0264ADDF800E010
:10040000904208BF4FF0020E04E04FF0000E01E0F2
:100410004FF0010E0EFA09F24FF00F0E42EA0C02F5
:100420004FF0010C43F826204A681B4BA66812F4D3
:10043000801F0CBFBE433E43A66096021E6854BF99
:10044000BE433E431E609303636854BFBB433B43BC
:10045000D2036360226854BFBA433A4322600BF16F
:10046000040B08F101084EE70014014000001110D0
:1004700000001210000021100000221000003110B6
:1004800000003210F8FFFF3F000401400008014067
:10049000000C0140001001400C040140806808403D
:1004A00018BF0120704700001B488068704700BFDC
:1004B00019480178826811448160704780B5074807
:1004C000016841F010010160032000F081F80F2065
:1004D00000F006F800F022F8002080BD0020024065
:1004E00070B50D4E04464FF47A713078B1FBF0F0E0
:1004F0008B490968B1FBF0F000F008FB01250F2CD7
:1005000008D838B94FF0FF3021460022002500F00E
:1005100033F87460284670BD0000002082B00D489A
:100520000222016841F001010160016801F001014E
:1005300001910199416841F080514160406800F0AB
:100540008050009000980448016862F31A610160CD
:1005500002B070471810024004000140002808DB78
:1005600000F01F010122400902FA01F1014A42F89C
:100570002010704700E100E0B0B5144C1A4D00F0B7
:100580000F03B0F1FF3FA3F104032B4403F10C036D
:10059000C8BF03192868C0F30220051DC41E80F0DF
:1005A0000700072D4FF0010538BF0024042828BF9D
:1005B000042005FA00F00138084005FA04F10F3173
:1005C000A0401140084300011870B0BD00E400E0F5
:1005D00005494FF6FF030A681A4060F30A220348F0
:1005E00010430860704700BF0CED00E00000FA0502
:1005F0002DE9F04104468846002C00F08880464FE3
:100600004FF48050395801F0070141450AD239585A
:1006100021F0070141EA08013950385800F007007D
:10062000404574D1206810F0020F11D0410742BF3D
:10063000796841F4E0617960010742BF796841F46B
:10064000605179607968A26821F0F0011143796006
:10065000C00727D06068012804D1396811F4003F31
:1006600008D154E03968022802D1890102D44EE051
:1006700089074CD5796821F0030108437860FFF7BA
:1006800013FF064641F288357868616800F00C0077
:10069000B0EB810F06D0FFF707FF801BA842F3D90C
:1006A000032035E04FF48050395801F007014145EF
:1006B0000AD9395821F0070141EA08013950385860
:1006C00000F00700404522D1206810F0040F05D04B
:1006D0007968E26821F4E06111437960000706D58A
:1006E0007868216920F4605040EAC100786000F029
:1006F0001BF87968094AC1F30311515CC8400849E5
:10070000086008480068FFF7EBFE002000E00120C9
:10071000C0B2BDE8F08100BF00100240C412000862
:1007200050000020040000200F490A680F4802F022
:100730000C03042B08BF7047082B13D1C2F3834C62
:100740000BA312F4803F13F80C3002BF0D4858433E
:10075000704709680AA25843C1F34041515CB0FB9D
:10076000F1F070470848704704100240001BB700C2
:1007700002030405060708090A0B0C0D0E0F1010E2
:100780000102000000093D0000127A002DE9FE4F31
:100790008246BAF1000F00F065819AF80000D64E4B
:1007A000D64FC00750D0386800F00C00042819D08C
:1007B000386800F00C00082803D1386810F4803F36
:1007C00010D1DAF80400A8B1B0F5803F06D0316846
:1007D000B0F5A02F24D141F480203060306840F47F
:1007E000803023E0306810F4003F2DD0DAF80400A8
:1007F00050BB37E1306820F480303060306820F43E
:1008000080203060FFF750FE0546306810F4003F4E
:100810001AD0FFF749FE411B03206429F5D922E1D4
:1008200021F480303060306820F480203060FFF7A1
:100830003BFE0546306810F4003F05D1FFF734FE5B
:10084000401B6428F6D9EBE09AF800008007AC481A
:10085000834632D5386810F00C0F1DD0386800F090
:100860000C00082804BF386810F4803F14D0DAF870
:100870001000002800F09580012059460860FFF71D
:1008800013FE0546306810F0020F0ED1FFF70CFE84
:10089000401B0228F6D9C3E0306810F0020F1CBFDD
:1008A000DAF81000012840F0DD803068DAF8141022
:1008B00020F0F80040EAC10030609AF8000000071C
:1008C00031D5DAF8180080B101205946C1F880040A
:1008D000FFF7EAFD0546386A10F0020F16D1FFF760
:1008E000E3FD401B0228F6D99AE000205946C1F8E2
:1008F0008004FFF7D9FD0546386A10F0020F12D0C8
:10090000FFF7D2FD401B0228F6D989E07D484FF45D
:10091000FA510068B0FBF1F0029000BF0298411E4E
:1009200000280291F9D19AF80000400740F1818037
:10093000B86910F0805F0BD1B8694FF0010840F042
:100940008050B861B86900F080500190019801E0D2
:100950004FF000086C48305810F4807F12D16A487C
:10096000315841F480713150FFF79EFD05466648CD
:10097000305810F4807F05D1FFF796FD401B6428A6
:10098000F5D94DE0DAF80C00E8B1012805D0F96995
:10099000052830D141F00400F861F86940F0010009
:1009A0002FE0002059460860FFF77EFD05463068BD
:1009B00010F0020F3FF481AFFFF776FD411B0320DB
:1009C0000229F4D94FE0F86920F00100F861F869D4
:1009D00020F00400F861FFF767FD054641F2883911
:1009E000F86910F0020F1DD0FFF75EFD411B0320D8
:1009F0004945F5D937E021F00100F861F86920F0A8
:100A00000400F861FFF750FD054641F28834F869AB
:100A100010F0020F06D1FFF747FD401BA042F6D9A8
:100A2000032020E0B8F1010F02BFB86920F0805028
:100A3000B861DAF81C405946002C5AD0386800F0EA
:100A40000C00082813D1012C0CD03868DAF82010DB
:100A500000F480328A4205D1DAF8241000F47010D4
:100A6000884246D00120C0B203B0BDE8F08F00201C
:100A70000866FFF719FD0546022C0AD1306810F010
:100A8000007F11D0FFF710FD411B03200229F5D98B
:100A9000E9E7306810F0007F2BD0FFF705FD411B20
:100AA00003200229F5D9DEE7DAF82000B0F5803F0F
:100AB00006D13968DAF8082021F400311143396091
:100AC000396821F474110843DAF8241008433860B7
:100AD0000120CBF86000FFF7E7FC0446306810F017
:100AE000007F06D1FFF7E0FC011B03200229F5D9A6
:100AF000B9E70020B7E700BF001002400410024031
:100B000000004242500000200060FEFF411E002015
:100B1000B0EB116F1CBF01207047044AF0235160F5
:100B200003490B70072190601160704710E000E0EE
:100B300023ED00E07047704790F83C300222012B13
:100B400028D080B5012380F83C3080F83D20026831
:100B50005368D2F808C0B2F1804F23F0700E0B68D2
:100B600043EA0E035360BDE8804008D04B4B9A42E5
:100B70001CBFF24B9A4202D0494B9A4204D14968B9
:100B80002CF08003194391600121002280F83D1070
:100B900080F83C20D0B2704710B5044634B394F8C6
:100BA0003D0028B9002084F83C00204600F020F8E1
:100BB0000220211D84F83D00206800F0C3FA0120C6
:100BC00084F8460084F83E0084F83F0084F8400032
:100BD00084F8410084F8420084F8430084F844001B
:100BE00084F8450084F83D00002010BD012010BDB0
:100BF000E0B50168E8482A4A914216D0CF4A9142AE
:100C000018BF8CBD0168002241F40061016005211C
:100C1000006800F40060019001981920FFF7ACFC17
:100C20001920BDE88C40FFF799BC4168002241F0D3
:100C3000040141600021406800F004000090009829
:100C40001E20FFF799FC1E20BDE88C40FFF786BCF4
:100C500090F83D1001291CBF01207047022180F847
:100C60003D100068C168B0F1804F41F00101C160E2
:100C700008D00A4988421CBFE049884202D0F7499F
:100C8000884204D1816801F00701062903D0016878
:100C900041F0010101600020704700BF00040040E6
:100CA0000008004010B50446022094F83C20012AB8
:100CB00070D001224FF6777384F83C2084F83D0011
:100CC000206882689A4382600A6812B3102A20D092
:100CD000202A18BF302A1CD0402A21D0502A2BD0DD
:100CE000602A35D0B2F5005F3ED0B2F5805F4AD0C1
:100CF000702A51D1D1E90123C9681A4342EA01217E
:100D0000826822F47F4211438160816841F077015B
:100D100038E0816821F07701114341F0070131E0AB
:100D20004B68CA68194600F047FA2068816821F0CC
:100D3000770141F0470125E04B68CA68194600F089
:100D40003BFA2068816821F0770141F0570119E0F2
:100D50004B68CA68194600F040FA2068816821F0A3
:100D6000770141F067010DE0D1E90123C9681A4319
:100D700042EA0121826822F47F4211438160816846
:100D800041F4804181600020012184F83D10002160
:100D900084F83C10C0B210BD0120F5E7704710B5D3
:100DA00004462068016911F0020F1CBFC16811F0F0
:100DB000020F15D06FF002010161012121778069D6
:100DC00010F0030F03D02046FFF7E8FF05E02046B0
:100DD00000F09EF8204600F09CF800202077206864
:100DE000016911F0040F1CBFC16811F0040F15D088
:100DF0006FF00401016102212177806910F4407FC6
:100E000003D02046FFF7CAFF05E0204600F080F837
:100E1000204600F07EF8002020772068016911F05C
:100E2000080F1CBFC16811F0080F15D06FF0080142
:100E3000016104212177C06910F0030F03D020461F
:100E4000FFF7ACFF05E0204600F062F8204600F016
:100E500060F8002020772068016911F0100F1CBF96
:100E6000C16811F0100F15D06FF010010161082159
:100E70002177C06910F4407F03D02046FFF78EFF32
:100E800005E0204600F044F8204600F042F800203B
:100E900020772068016911F0010F1CBFC16811F0B3
:100EA000010F06D06FF001010161204600F032F819
:100EB0002068016911F0800F1CBFC16811F0800F1C
:100EC00006D06FF0800101612046FFF733FE2068F5
:100ED000016911F0400F1CBFC16811F0400F06D02E
:100EE0006FF040010161204600F02AF82068016996
:100EF00011F0200F1CBFC16811F0200F00D110BDF0
:100F00006FF0200101612046BDE81040FFF713BEDD
:100F1000704770470068A549884218BF704710B5F0
:100F2000614C0A2104F1100000F083F904F128005B
:100F30000A21BDE8104000F07CB900BF002C014040
:100F40007047FEE7FEB5002105911348026842F0A4
:100F500020020260026802F020020192019A0268F7
:100F600042F008020260026802F008020192019A4F
:100F7000026842F004020260006800F00400019080
:100F8000019841F20400CDE90201049102A9C5488B
:100F9000FFF7A4F906B080BD18100240FEB500218D
:100FA0006448472342F20F7CCDE90411CDE90211D8
:100FB000CDE900117D4AC0E90023C0E9021CC0E967
:100FC00004118161FFF7E8FD08B1FFF763F94FF401
:100FD000805002A902905748FFF764FE08B1FFF75E
:100FE00059F900206946CDE900005248FFF7A4FDF9
:100FF00008B1FFF74FF906B080BD00BF002C0140DB
:10100000FEB500214E4847234FF0310CCDE90411C5
:10101000CDE90211CDE90011664AC0E90023C0E91B
:10102000021C01618161FFF7B7FD08B1FFF732F9DA
:101030004FF4805002A902904148FFF733FE08B1F7
:10104000FFF728F900206946CDE900003C48FFF78A
:1010500073FD08B1FFF71EF906B080BD000800401F
:1010600010B5FFF71BF9104C46F67752C4E90201A0
:1010700051400E4A504008430D49B0FA80F04009F3
:10108000208004F1100000F0C9F80A4904F128009A
:1010900000F0C4F86420FFF70DF92648FFF7D8FDEB
:1010A0002748FFF7D5FDFEE7100000208751843068
:1010B000011200080D120008FEE7FEE770477047B6
:1010C000FFF7F6B9B0B590B0002401A81421CDE91E
:1010D0000B44CDE90944FFF777F801204FF4803144
:1010E00002250690CDE907140A904FF48010CDE94F
:1010F0000D510F9006A8FFF749FB18B1EFF31080D0
:1011000072B6FEE70F200221CDE901054FF48060A1
:101110000394CDE9040401A8FFF76AFA18B1EFF3CC
:10112000108072B6FEE710B0B0BD70470148FFF7FF
:1011300036BE00BFBC0000200148FFF730BE00BF34
:101140000401002010B50368184AB0F1804F08D0A0
:10115000174CA0421CBF154CA04202D0154CA04217
:1011600003D14C6823F070032343B0F1804F08D0C3
:101170000F4CA0421CBF0D4CA04202D00D4CA0420F
:1011800003D1CC6823F4407323434C6923F08003DC
:10119000904243EA040303608B68C3620B68836276
:1011A00004BF096911630121416110BD002C014098
:1011B0000004004000080040D0F820C0036A23F07B
:1011C00001030362836923F0F00343EA02128261A0
:1011D0002CF00A02114301627047D0F820C0036A64
:1011E00023F010030362836923F4704343EA02325D
:1011F00082612CF0A00242EA011101627047FEE711
:1012000003289EBF013004490870704703289EBF21
:101210000530014908707047B8000020B0B5054698
:101220000C462868297902682846904768716C61E5
:10123000B0BDB0B50446A0680844A060206821791C
:1012400002682046904705466079A84208BFB0BDB5
:101250006169012D0CD10020884704F108030DCBF2
:101260006169801A984294BF03200220884703E0F6
:1012700001208847A068E0606571B0BD022906D0F2
:1012800001291CBF002070474FF4805000E004206B
:1012900080B581B20348FFF701F90138B0FA80F058
:1012A000400980BD000C014080B5FFF707F9FFF74A
:1012B00009FFFFF747FEFFF771FEFFF7A1FEFFF7FB
:1012C000CFFEFEE700000000000000000102030462
:1012D0000607080900000000000000007D12000859
:1012E000001300080000002058000000280100083A
:1012F0005813000858000020F806000044010008B8
:1013000001000000100000000000000000000000CC
:1013100000000000000000000000000000000000CD
:10132000DC120008010000000000000000000000C6
:10133000E803000000000000DC12000802000000CA
:101340000000000000000000B80B000000000000DA
:081350000024F400000000007D
:04000005080000ED02
:00000001FF
